{
  "contractName": "TicketNFT",
  "abi": [
    {
      "inputs": [
        {
          "internalType": "string",
          "name": "name",
          "type": "string"
        },
        {
          "internalType": "string",
          "name": "symbol",
          "type": "string"
        }
      ],
      "stateMutability": "nonpayable",
      "type": "constructor"
    },
    {
      "anonymous": false,
      "inputs": [
        {
          "indexed": true,
          "internalType": "address",
          "name": "owner",
          "type": "address"
        },
        {
          "indexed": true,
          "internalType": "address",
          "name": "approved",
          "type": "address"
        },
        {
          "indexed": true,
          "internalType": "uint256",
          "name": "tokenId",
          "type": "uint256"
        }
      ],
      "name": "Approval",
      "type": "event"
    },
    {
      "anonymous": false,
      "inputs": [
        {
          "indexed": true,
          "internalType": "address",
          "name": "owner",
          "type": "address"
        },
        {
          "indexed": true,
          "internalType": "address",
          "name": "operator",
          "type": "address"
        },
        {
          "indexed": false,
          "internalType": "bool",
          "name": "approved",
          "type": "bool"
        }
      ],
      "name": "ApprovalForAll",
      "type": "event"
    },
    {
      "anonymous": false,
      "inputs": [
        {
          "indexed": true,
          "internalType": "address",
          "name": "from",
          "type": "address"
        },
        {
          "indexed": true,
          "internalType": "address",
          "name": "to",
          "type": "address"
        },
        {
          "indexed": true,
          "internalType": "uint256",
          "name": "tokenId",
          "type": "uint256"
        }
      ],
      "name": "Transfer",
      "type": "event"
    },
    {
      "inputs": [
        {
          "internalType": "address",
          "name": "to",
          "type": "address"
        },
        {
          "internalType": "uint256",
          "name": "tokenId",
          "type": "uint256"
        }
      ],
      "name": "approve",
      "outputs": [],
      "stateMutability": "nonpayable",
      "type": "function"
    },
    {
      "inputs": [
        {
          "internalType": "address",
          "name": "owner",
          "type": "address"
        }
      ],
      "name": "balanceOf",
      "outputs": [
        {
          "internalType": "uint256",
          "name": "",
          "type": "uint256"
        }
      ],
      "stateMutability": "view",
      "type": "function",
      "constant": true
    },
    {
      "inputs": [
        {
          "internalType": "uint256",
          "name": "tokenId",
          "type": "uint256"
        }
      ],
      "name": "getApproved",
      "outputs": [
        {
          "internalType": "address",
          "name": "",
          "type": "address"
        }
      ],
      "stateMutability": "view",
      "type": "function",
      "constant": true
    },
    {
      "inputs": [
        {
          "internalType": "address",
          "name": "owner",
          "type": "address"
        },
        {
          "internalType": "address",
          "name": "operator",
          "type": "address"
        }
      ],
      "name": "isApprovedForAll",
      "outputs": [
        {
          "internalType": "bool",
          "name": "",
          "type": "bool"
        }
      ],
      "stateMutability": "view",
      "type": "function",
      "constant": true
    },
    {
      "inputs": [],
      "name": "name",
      "outputs": [
        {
          "internalType": "string",
          "name": "",
          "type": "string"
        }
      ],
      "stateMutability": "view",
      "type": "function",
      "constant": true
    },
    {
      "inputs": [
        {
          "internalType": "uint256",
          "name": "tokenId",
          "type": "uint256"
        }
      ],
      "name": "ownerOf",
      "outputs": [
        {
          "internalType": "address",
          "name": "",
          "type": "address"
        }
      ],
      "stateMutability": "view",
      "type": "function",
      "constant": true
    },
    {
      "inputs": [
        {
          "internalType": "uint256",
          "name": "",
          "type": "uint256"
        }
      ],
      "name": "purchases",
      "outputs": [
        {
          "internalType": "uint256",
          "name": "tokenId",
          "type": "uint256"
        },
        {
          "internalType": "address",
          "name": "buyer",
          "type": "address"
        },
        {
          "internalType": "string",
          "name": "concert",
          "type": "string"
        },
        {
          "internalType": "uint256",
          "name": "purchaseTime",
          "type": "uint256"
        },
        {
          "internalType": "uint256",
          "name": "paymentAmount",
          "type": "uint256"
        }
      ],
      "stateMutability": "view",
      "type": "function",
      "constant": true
    },
    {
      "inputs": [
        {
          "internalType": "address",
          "name": "from",
          "type": "address"
        },
        {
          "internalType": "address",
          "name": "to",
          "type": "address"
        },
        {
          "internalType": "uint256",
          "name": "tokenId",
          "type": "uint256"
        }
      ],
      "name": "safeTransferFrom",
      "outputs": [],
      "stateMutability": "nonpayable",
      "type": "function"
    },
    {
      "inputs": [
        {
          "internalType": "address",
          "name": "from",
          "type": "address"
        },
        {
          "internalType": "address",
          "name": "to",
          "type": "address"
        },
        {
          "internalType": "uint256",
          "name": "tokenId",
          "type": "uint256"
        },
        {
          "internalType": "bytes",
          "name": "_data",
          "type": "bytes"
        }
      ],
      "name": "safeTransferFrom",
      "outputs": [],
      "stateMutability": "nonpayable",
      "type": "function"
    },
    {
      "inputs": [
        {
          "internalType": "address",
          "name": "operator",
          "type": "address"
        },
        {
          "internalType": "bool",
          "name": "approved",
          "type": "bool"
        }
      ],
      "name": "setApprovalForAll",
      "outputs": [],
      "stateMutability": "nonpayable",
      "type": "function"
    },
    {
      "inputs": [
        {
          "internalType": "bytes4",
          "name": "interfaceId",
          "type": "bytes4"
        }
      ],
      "name": "supportsInterface",
      "outputs": [
        {
          "internalType": "bool",
          "name": "",
          "type": "bool"
        }
      ],
      "stateMutability": "view",
      "type": "function",
      "constant": true
    },
    {
      "inputs": [],
      "name": "symbol",
      "outputs": [
        {
          "internalType": "string",
          "name": "",
          "type": "string"
        }
      ],
      "stateMutability": "view",
      "type": "function",
      "constant": true
    },
    {
      "inputs": [
        {
          "internalType": "uint256",
          "name": "index",
          "type": "uint256"
        }
      ],
      "name": "tokenByIndex",
      "outputs": [
        {
          "internalType": "uint256",
          "name": "",
          "type": "uint256"
        }
      ],
      "stateMutability": "view",
      "type": "function",
      "constant": true
    },
    {
      "inputs": [
        {
          "internalType": "address",
          "name": "owner",
          "type": "address"
        },
        {
          "internalType": "uint256",
          "name": "index",
          "type": "uint256"
        }
      ],
      "name": "tokenOfOwnerByIndex",
      "outputs": [
        {
          "internalType": "uint256",
          "name": "",
          "type": "uint256"
        }
      ],
      "stateMutability": "view",
      "type": "function",
      "constant": true
    },
    {
      "inputs": [
        {
          "internalType": "uint256",
          "name": "tokenId",
          "type": "uint256"
        }
      ],
      "name": "tokenURI",
      "outputs": [
        {
          "internalType": "string",
          "name": "",
          "type": "string"
        }
      ],
      "stateMutability": "view",
      "type": "function",
      "constant": true
    },
    {
      "inputs": [],
      "name": "totalNFTsIssued",
      "outputs": [
        {
          "internalType": "uint256",
          "name": "",
          "type": "uint256"
        }
      ],
      "stateMutability": "view",
      "type": "function",
      "constant": true
    },
    {
      "inputs": [],
      "name": "totalSupply",
      "outputs": [
        {
          "internalType": "uint256",
          "name": "",
          "type": "uint256"
        }
      ],
      "stateMutability": "view",
      "type": "function",
      "constant": true
    },
    {
      "inputs": [
        {
          "internalType": "address",
          "name": "from",
          "type": "address"
        },
        {
          "internalType": "address",
          "name": "to",
          "type": "address"
        },
        {
          "internalType": "uint256",
          "name": "tokenId",
          "type": "uint256"
        }
      ],
      "name": "transferFrom",
      "outputs": [],
      "stateMutability": "nonpayable",
      "type": "function"
    },
    {
      "inputs": [
        {
          "internalType": "address",
          "name": "_to",
          "type": "address"
        },
        {
          "internalType": "string",
          "name": "_concert",
          "type": "string"
        },
        {
          "internalType": "string[]",
          "name": "_selectedSeats",
          "type": "string[]"
        },
        {
          "internalType": "uint256",
          "name": "_paymentAmount",
          "type": "uint256"
        }
      ],
      "name": "mint",
      "outputs": [
        {
          "internalType": "uint256",
          "name": "",
          "type": "uint256"
        }
      ],
      "stateMutability": "nonpayable",
      "type": "function"
    },
    {
      "inputs": [
        {
          "internalType": "uint256",
          "name": "_tokenId",
          "type": "uint256"
        }
      ],
      "name": "getTicketInfo",
      "outputs": [
        {
          "components": [
            {
              "internalType": "uint256",
              "name": "tokenId",
              "type": "uint256"
            },
            {
              "internalType": "address",
              "name": "buyer",
              "type": "address"
            },
            {
              "internalType": "string",
              "name": "concert",
              "type": "string"
            },
            {
              "internalType": "uint256",
              "name": "purchaseTime",
              "type": "uint256"
            },
            {
              "internalType": "string[]",
              "name": "selectedSeats",
              "type": "string[]"
            },
            {
              "internalType": "uint256",
              "name": "paymentAmount",
              "type": "uint256"
            }
          ],
          "internalType": "struct TicketNFT.Purchase",
          "name": "",
          "type": "tuple"
        }
      ],
      "stateMutability": "view",
      "type": "function",
      "constant": true
    },
    {
      "inputs": [
        {
          "internalType": "address",
          "name": "_owner",
          "type": "address"
        }
      ],
      "name": "getOwnedTicketIds",
      "outputs": [
        {
          "internalType": "uint256[]",
          "name": "",
          "type": "uint256[]"
        }
      ],
      "stateMutability": "view",
      "type": "function",
      "constant": true
    },
    {
      "inputs": [],
      "name": "getTotalNFTsIssued",
      "outputs": [
        {
          "internalType": "uint256",
          "name": "",
          "type": "uint256"
        }
      ],
      "stateMutability": "view",
      "type": "function",
      "constant": true
    }
  ],
  "bytecode": "0x60806040523480156200001157600080fd5b5060405162003fbd38038062003fbd8339818101604052810190620000379190620002ca565b81818160009080519060200190620000519291906200007d565b5080600190805190602001906200006a9291906200007d565b5050506000600b819055505050620003b3565b8280546200008b906200037e565b90600052602060002090601f016020900481019282620000af5760008555620000fb565b82601f10620000ca57805160ff1916838001178555620000fb565b82800160010185558215620000fb579182015b82811115620000fa578251825591602001919060010190620000dd565b5b5090506200010a91906200010e565b5090565b5b80821115620001295760008160009055506001016200010f565b5090565b6000604051905090565b600080fd5b600080fd5b600080fd5b600080fd5b6000601f19601f8301169050919050565b7f4e487b7100000000000000000000000000000000000000000000000000000000600052604160045260246000fd5b62000196826200014b565b810181811067ffffffffffffffff82111715620001b857620001b76200015c565b5b80604052505050565b6000620001cd6200012d565b9050620001db82826200018b565b919050565b600067ffffffffffffffff821115620001fe57620001fd6200015c565b5b62000209826200014b565b9050602081019050919050565b60005b838110156200023657808201518184015260208101905062000219565b8381111562000246576000848401525b50505050565b6000620002636200025d84620001e0565b620001c1565b90508281526020810184848401111562000282576200028162000146565b5b6200028f84828562000216565b509392505050565b600082601f830112620002af57620002ae62000141565b5b8151620002c18482602086016200024c565b91505092915050565b60008060408385031215620002e457620002e362000137565b5b600083015167ffffffffffffffff8111156200030557620003046200013c565b5b620003138582860162000297565b925050602083015167ffffffffffffffff8111156200033757620003366200013c565b5b620003458582860162000297565b9150509250929050565b7f4e487b7100000000000000000000000000000000000000000000000000000000600052602260045260246000fd5b600060028204905060018216806200039757607f821691505b602082108103620003ad57620003ac6200034f565b5b50919050565b613bfa80620003c36000396000f3fe608060405234801561001057600080fd5b50600436106101425760003560e01c80636352211e116100b8578063a4bfd0cc1161007c578063a4bfd0cc146103a1578063b88d4fde146103d1578063c87b56dd146103ed578063e985e9c51461041d578063f5ebd9381461044d578063ff99a0631461047d57610142565b80636352211e146102d357806370a08231146103035780638392fe311461033357806395d89b4114610367578063a22cb4651461038557610142565b806323b872dd1161010a57806323b872dd146101ff5780632d58b8c61461021b5780632f745c591461023957806342842e0e146102695780634f6ccce71461028557806351145b15146102b557610142565b806301ffc9a71461014757806306fdde0314610177578063081812fc14610195578063095ea7b3146101c557806318160ddd146101e1575b600080fd5b610161600480360381019061015c9190612493565b6104ad565b60405161016e91906124db565b60405180910390f35b61017f610527565b60405161018c919061258f565b60405180910390f35b6101af60048036038101906101aa91906125e7565b6105b9565b6040516101bc9190612655565b60405180910390f35b6101df60048036038101906101da919061269c565b61063e565b005b6101e9610755565b6040516101f691906126eb565b60405180910390f35b61021960048036038101906102149190612706565b610762565b005b6102236107c2565b60405161023091906126eb565b60405180910390f35b610253600480360381019061024e919061269c565b6107cc565b60405161026091906126eb565b60405180910390f35b610283600480360381019061027e9190612706565b610871565b005b61029f600480360381019061029a91906125e7565b610891565b6040516102ac91906126eb565b60405180910390f35b6102bd610902565b6040516102ca91906126eb565b60405180910390f35b6102ed60048036038101906102e891906125e7565b610908565b6040516102fa9190612655565b60405180910390f35b61031d60048036038101906103189190612759565b6109b9565b60405161032a91906126eb565b60405180910390f35b61034d600480360381019061034891906125e7565b610a70565b60405161035e959493929190612786565b60405180910390f35b61036f610b5e565b60405161037c919061258f565b60405180910390f35b61039f600480360381019061039a919061280c565b610bf0565b005b6103bb60048036038101906103b69190612759565b610d70565b6040516103c8919061290a565b60405180910390f35b6103eb60048036038101906103e69190612a61565b610e1e565b005b610407600480360381019061040291906125e7565b610e80565b604051610414919061258f565b60405180910390f35b61043760048036038101906104329190612ae4565b610f27565b60405161044491906124db565b60405180910390f35b61046760048036038101906104629190612cab565b610fbb565b60405161047491906126eb565b60405180910390f35b610497600480360381019061049291906125e7565b611109565b6040516104a49190612ef5565b60405180910390f35b60007f780e9d63000000000000000000000000000000000000000000000000000000007bffffffffffffffffffffffffffffffffffffffffffffffffffffffff1916827bffffffffffffffffffffffffffffffffffffffffffffffffffffffff19161480610520575061051f8261136b565b5b9050919050565b60606000805461053690612f46565b80601f016020809104026020016040519081016040528092919081815260200182805461056290612f46565b80156105af5780601f10610584576101008083540402835291602001916105af565b820191906000526020600020905b81548152906001019060200180831161059257829003601f168201915b5050505050905090565b60006105c48261144d565b610603576040517f08c379a00000000000000000000000000000000000000000000000000000000081526004016105fa90612fe9565b60405180910390fd5b6004600083815260200190815260200160002060009054906101000a900473ffffffffffffffffffffffffffffffffffffffff169050919050565b600061064982610908565b90508073ffffffffffffffffffffffffffffffffffffffff168373ffffffffffffffffffffffffffffffffffffffff16036106b9576040517f08c379a00000000000000000000000000000000000000000000000000000000081526004016106b09061307b565b60405180910390fd5b8073ffffffffffffffffffffffffffffffffffffffff166106d86114b9565b73ffffffffffffffffffffffffffffffffffffffff1614806107075750610706816107016114b9565b610f27565b5b610746576040517f08c379a000000000000000000000000000000000000000000000000000000000815260040161073d9061310d565b60405180910390fd5b61075083836114c1565b505050565b6000600880549050905090565b61077361076d6114b9565b8261157a565b6107b2576040517f08c379a00000000000000000000000000000000000000000000000000000000081526004016107a99061319f565b60405180910390fd5b6107bd838383611658565b505050565b6000600b54905090565b60006107d7836109b9565b8210610818576040517f08c379a000000000000000000000000000000000000000000000000000000000815260040161080f90613231565b60405180910390fd5b600660008473ffffffffffffffffffffffffffffffffffffffff1673ffffffffffffffffffffffffffffffffffffffff168152602001908152602001600020600083815260200190815260200160002054905092915050565b61088c83838360405180602001604052806000815250610e1e565b505050565b600061089b610755565b82106108dc576040517f08c379a00000000000000000000000000000000000000000000000000000000081526004016108d3906132c3565b60405180910390fd5b600882815481106108f0576108ef6132e3565b5b90600052602060002001549050919050565b600b5481565b6000806002600084815260200190815260200160002060009054906101000a900473ffffffffffffffffffffffffffffffffffffffff169050600073ffffffffffffffffffffffffffffffffffffffff168173ffffffffffffffffffffffffffffffffffffffff16036109b0576040517f08c379a00000000000000000000000000000000000000000000000000000000081526004016109a790613384565b60405180910390fd5b80915050919050565b60008073ffffffffffffffffffffffffffffffffffffffff168273ffffffffffffffffffffffffffffffffffffffff1603610a29576040517f08c379a0000000000000000000000000000000000000000000000000000000008152600401610a2090613416565b60405180910390fd5b600360008373ffffffffffffffffffffffffffffffffffffffff1673ffffffffffffffffffffffffffffffffffffffff168152602001908152602001600020549050919050565b600a8181548110610a8057600080fd5b90600052602060002090600602016000915090508060000154908060010160009054906101000a900473ffffffffffffffffffffffffffffffffffffffff1690806002018054610acf90612f46565b80601f0160208091040260200160405190810160405280929190818152602001828054610afb90612f46565b8015610b485780601f10610b1d57610100808354040283529160200191610b48565b820191906000526020600020905b815481529060010190602001808311610b2b57829003601f168201915b5050505050908060030154908060050154905085565b606060018054610b6d90612f46565b80601f0160208091040260200160405190810160405280929190818152602001828054610b9990612f46565b8015610be65780601f10610bbb57610100808354040283529160200191610be6565b820191906000526020600020905b815481529060010190602001808311610bc957829003601f168201915b5050505050905090565b610bf86114b9565b73ffffffffffffffffffffffffffffffffffffffff168273ffffffffffffffffffffffffffffffffffffffff1603610c65576040517f08c379a0000000000000000000000000000000000000000000000000000000008152600401610c5c90613482565b60405180910390fd5b8060056000610c726114b9565b73ffffffffffffffffffffffffffffffffffffffff1673ffffffffffffffffffffffffffffffffffffffff16815260200190815260200160002060008473ffffffffffffffffffffffffffffffffffffffff1673ffffffffffffffffffffffffffffffffffffffff16815260200190815260200160002060006101000a81548160ff0219169083151502179055508173ffffffffffffffffffffffffffffffffffffffff16610d1f6114b9565b73ffffffffffffffffffffffffffffffffffffffff167f17307eab39ab6107e8899845ad3d59bd9653f200f220920489ca2b5937696c3183604051610d6491906124db565b60405180910390a35050565b60606000610d7d836109b9565b905060008167ffffffffffffffff811115610d9b57610d9a612936565b5b604051908082528060200260200182016040528015610dc95781602001602082028036833780820191505090505b50905060005b82811015610e1357610de185826107cc565b828281518110610df457610df36132e3565b5b6020026020010181815250508080610e0b906134d1565b915050610dcf565b508092505050919050565b610e2f610e296114b9565b8361157a565b610e6e576040517f08c379a0000000000000000000000000000000000000000000000000000000008152600401610e659061319f565b60405180910390fd5b610e7a848484846118b3565b50505050565b6060610e8b8261144d565b610eca576040517f08c379a0000000000000000000000000000000000000000000000000000000008152600401610ec19061358b565b60405180910390fd5b6000610ed461190f565b90506000815111610ef45760405180602001604052806000815250610f1f565b80610efe84611926565b604051602001610f0f9291906135e7565b6040516020818303038152906040525b915050919050565b6000600560008473ffffffffffffffffffffffffffffffffffffffff1673ffffffffffffffffffffffffffffffffffffffff16815260200190815260200160002060008373ffffffffffffffffffffffffffffffffffffffff1673ffffffffffffffffffffffffffffffffffffffff16815260200190815260200160002060009054906101000a900460ff16905092915050565b600080600a805490509050610fd08682611a86565b60006040518060c001604052808381526020018873ffffffffffffffffffffffffffffffffffffffff168152602001878152602001428152602001868152602001858152509050600a8190806001815401808255809150506001900390600052602060002090600602016000909190919091506000820151816000015560208201518160010160006101000a81548173ffffffffffffffffffffffffffffffffffffffff021916908373ffffffffffffffffffffffffffffffffffffffff16021790555060408201518160020190805190602001906110b0929190612274565b506060820151816003015560808201518160040190805190602001906110d79291906122fa565b5060a082015181600501555050600b60008154809291906110f7906134d1565b91905055508192505050949350505050565b61111161235a565b600a805490508210611158576040517f08c379a000000000000000000000000000000000000000000000000000000000815260040161114f90613657565b60405180910390fd5b600a828154811061116c5761116b6132e3565b5b90600052602060002090600602016040518060c0016040529081600082015481526020016001820160009054906101000a900473ffffffffffffffffffffffffffffffffffffffff1673ffffffffffffffffffffffffffffffffffffffff1673ffffffffffffffffffffffffffffffffffffffff1681526020016002820180546111f590612f46565b80601f016020809104026020016040519081016040528092919081815260200182805461122190612f46565b801561126e5780601f106112435761010080835404028352916020019161126e565b820191906000526020600020905b81548152906001019060200180831161125157829003601f168201915b505050505081526020016003820154815260200160048201805480602002602001604051908101604052809291908181526020016000905b828210156113525783829060005260206000200180546112c590612f46565b80601f01602080910402602001604051908101604052809291908181526020018280546112f190612f46565b801561133e5780601f106113135761010080835404028352916020019161133e565b820191906000526020600020905b81548152906001019060200180831161132157829003601f168201915b5050505050815260200190600101906112a6565b5050505081526020016005820154815250509050919050565b60007f80ac58cd000000000000000000000000000000000000000000000000000000007bffffffffffffffffffffffffffffffffffffffffffffffffffffffff1916827bffffffffffffffffffffffffffffffffffffffffffffffffffffffff1916148061143657507f5b5e139f000000000000000000000000000000000000000000000000000000007bffffffffffffffffffffffffffffffffffffffffffffffffffffffff1916827bffffffffffffffffffffffffffffffffffffffffffffffffffffffff1916145b80611446575061144582611c53565b5b9050919050565b60008073ffffffffffffffffffffffffffffffffffffffff166002600084815260200190815260200160002060009054906101000a900473ffffffffffffffffffffffffffffffffffffffff1673ffffffffffffffffffffffffffffffffffffffff1614159050919050565b600033905090565b816004600083815260200190815260200160002060006101000a81548173ffffffffffffffffffffffffffffffffffffffff021916908373ffffffffffffffffffffffffffffffffffffffff160217905550808273ffffffffffffffffffffffffffffffffffffffff1661153483610908565b73ffffffffffffffffffffffffffffffffffffffff167f8c5be1e5ebec7d5bd14f71427d1e84f3dd0314c0f7b2291e5b200ac8c7c3b92560405160405180910390a45050565b60006115858261144d565b6115c4576040517f08c379a00000000000000000000000000000000000000000000000000000000081526004016115bb906136e9565b60405180910390fd5b60006115cf83610908565b90508073ffffffffffffffffffffffffffffffffffffffff168473ffffffffffffffffffffffffffffffffffffffff16148061163e57508373ffffffffffffffffffffffffffffffffffffffff16611626846105b9565b73ffffffffffffffffffffffffffffffffffffffff16145b8061164f575061164e8185610f27565b5b91505092915050565b8273ffffffffffffffffffffffffffffffffffffffff1661167882610908565b73ffffffffffffffffffffffffffffffffffffffff16146116ce576040517f08c379a00000000000000000000000000000000000000000000000000000000081526004016116c59061377b565b60405180910390fd5b600073ffffffffffffffffffffffffffffffffffffffff168273ffffffffffffffffffffffffffffffffffffffff160361173d576040517f08c379a00000000000000000000000000000000000000000000000000000000081526004016117349061380d565b60405180910390fd5b611748838383611cbd565b6117536000826114c1565b6001600360008573ffffffffffffffffffffffffffffffffffffffff1673ffffffffffffffffffffffffffffffffffffffff16815260200190815260200160002060008282546117a3919061382d565b925050819055506001600360008473ffffffffffffffffffffffffffffffffffffffff1673ffffffffffffffffffffffffffffffffffffffff16815260200190815260200160002060008282546117fa9190613861565b92505081905550816002600083815260200190815260200160002060006101000a81548173ffffffffffffffffffffffffffffffffffffffff021916908373ffffffffffffffffffffffffffffffffffffffff160217905550808273ffffffffffffffffffffffffffffffffffffffff168473ffffffffffffffffffffffffffffffffffffffff167fddf252ad1be2c89b69c2b068fc378daa952ba7f163c4a11628f55a4df523b3ef60405160405180910390a4505050565b6118be848484611658565b6118ca84848484611dcf565b611909576040517f08c379a000000000000000000000000000000000000000000000000000000000815260040161190090613929565b60405180910390fd5b50505050565b606060405180602001604052806000815250905090565b60606000820361196d576040518060400160405280600181526020017f30000000000000000000000000000000000000000000000000000000000000008152509050611a81565b600082905060005b6000821461199f578080611988906134d1565b915050600a826119989190613978565b9150611975565b60008167ffffffffffffffff8111156119bb576119ba612936565b5b6040519080825280601f01601f1916602001820160405280156119ed5781602001600182028036833780820191505090505b5090505b60008514611a7a57600182611a06919061382d565b9150600a85611a1591906139a9565b6030611a219190613861565b60f81b818381518110611a3757611a366132e3565b5b60200101907effffffffffffffffffffffffffffffffffffffffffffffffffffffffffffff1916908160001a905350600a85611a739190613978565b94506119f1565b8093505050505b919050565b600073ffffffffffffffffffffffffffffffffffffffff168273ffffffffffffffffffffffffffffffffffffffff1603611af5576040517f08c379a0000000000000000000000000000000000000000000000000000000008152600401611aec90613a26565b60405180910390fd5b611afe8161144d565b15611b3e576040517f08c379a0000000000000000000000000000000000000000000000000000000008152600401611b3590613a92565b60405180910390fd5b611b4a60008383611cbd565b6001600360008473ffffffffffffffffffffffffffffffffffffffff1673ffffffffffffffffffffffffffffffffffffffff1681526020019081526020016000206000828254611b9a9190613861565b92505081905550816002600083815260200190815260200160002060006101000a81548173ffffffffffffffffffffffffffffffffffffffff021916908373ffffffffffffffffffffffffffffffffffffffff160217905550808273ffffffffffffffffffffffffffffffffffffffff16600073ffffffffffffffffffffffffffffffffffffffff167fddf252ad1be2c89b69c2b068fc378daa952ba7f163c4a11628f55a4df523b3ef60405160405180910390a45050565b60007f01ffc9a7000000000000000000000000000000000000000000000000000000007bffffffffffffffffffffffffffffffffffffffffffffffffffffffff1916827bffffffffffffffffffffffffffffffffffffffffffffffffffffffff1916149050919050565b611cc8838383611f56565b600073ffffffffffffffffffffffffffffffffffffffff168373ffffffffffffffffffffffffffffffffffffffff1603611d0a57611d0581611f5b565b611d49565b8173ffffffffffffffffffffffffffffffffffffffff168373ffffffffffffffffffffffffffffffffffffffff1614611d4857611d478382611fa4565b5b5b600073ffffffffffffffffffffffffffffffffffffffff168273ffffffffffffffffffffffffffffffffffffffff1603611d8b57611d8681612111565b611dca565b8273ffffffffffffffffffffffffffffffffffffffff168273ffffffffffffffffffffffffffffffffffffffff1614611dc957611dc882826121e2565b5b5b505050565b6000611df08473ffffffffffffffffffffffffffffffffffffffff16612261565b15611f49578373ffffffffffffffffffffffffffffffffffffffff1663150b7a02611e196114b9565b8786866040518563ffffffff1660e01b8152600401611e3b9493929190613b07565b6020604051808303816000875af1925050508015611e7757506040513d601f19601f82011682018060405250810190611e749190613b68565b60015b611ef9573d8060008114611ea7576040519150601f19603f3d011682016040523d82523d6000602084013e611eac565b606091505b506000815103611ef1576040517f08c379a0000000000000000000000000000000000000000000000000000000008152600401611ee890613929565b60405180910390fd5b805181602001fd5b63150b7a0260e01b7bffffffffffffffffffffffffffffffffffffffffffffffffffffffff1916817bffffffffffffffffffffffffffffffffffffffffffffffffffffffff191614915050611f4e565b600190505b949350505050565b505050565b6008805490506009600083815260200190815260200160002081905550600881908060018154018082558091505060019003906000526020600020016000909190919091505550565b60006001611fb1846109b9565b611fbb919061382d565b90506000600760008481526020019081526020016000205490508181146120a0576000600660008673ffffffffffffffffffffffffffffffffffffffff1673ffffffffffffffffffffffffffffffffffffffff168152602001908152602001600020600084815260200190815260200160002054905080600660008773ffffffffffffffffffffffffffffffffffffffff1673ffffffffffffffffffffffffffffffffffffffff168152602001908152602001600020600084815260200190815260200160002081905550816007600083815260200190815260200160002081905550505b6007600084815260200190815260200160002060009055600660008573ffffffffffffffffffffffffffffffffffffffff1673ffffffffffffffffffffffffffffffffffffffff16815260200190815260200160002060008381526020019081526020016000206000905550505050565b60006001600880549050612125919061382d565b9050600060096000848152602001908152602001600020549050600060088381548110612155576121546132e3565b5b906000526020600020015490508060088381548110612177576121766132e3565b5b9060005260206000200181905550816009600083815260200190815260200160002081905550600960008581526020019081526020016000206000905560088054806121c6576121c5613b95565b5b6001900381819060005260206000200160009055905550505050565b60006121ed836109b9565b905081600660008573ffffffffffffffffffffffffffffffffffffffff1673ffffffffffffffffffffffffffffffffffffffff168152602001908152602001600020600083815260200190815260200160002081905550806007600084815260200190815260200160002081905550505050565b600080823b905060008111915050919050565b82805461228090612f46565b90600052602060002090601f0160209004810192826122a257600085556122e9565b82601f106122bb57805160ff19168380011785556122e9565b828001600101855582156122e9579182015b828111156122e85782518255916020019190600101906122cd565b5b5090506122f691906123a6565b5090565b828054828255906000526020600020908101928215612349579160200282015b82811115612348578251829080519060200190612338929190612274565b509160200191906001019061231a565b5b50905061235691906123c3565b5090565b6040518060c0016040528060008152602001600073ffffffffffffffffffffffffffffffffffffffff168152602001606081526020016000815260200160608152602001600081525090565b5b808211156123bf5760008160009055506001016123a7565b5090565b5b808211156123e357600081816123da91906123e7565b506001016123c4565b5090565b5080546123f390612f46565b6000825580601f106124055750612424565b601f01602090049060005260206000209081019061242391906123a6565b5b50565b6000604051905090565b600080fd5b600080fd5b60007fffffffff0000000000000000000000000000000000000000000000000000000082169050919050565b6124708161243b565b811461247b57600080fd5b50565b60008135905061248d81612467565b92915050565b6000602082840312156124a9576124a8612431565b5b60006124b78482850161247e565b91505092915050565b60008115159050919050565b6124d5816124c0565b82525050565b60006020820190506124f060008301846124cc565b92915050565b600081519050919050565b600082825260208201905092915050565b60005b83811015612530578082015181840152602081019050612515565b8381111561253f576000848401525b50505050565b6000601f19601f8301169050919050565b6000612561826124f6565b61256b8185612501565b935061257b818560208601612512565b61258481612545565b840191505092915050565b600060208201905081810360008301526125a98184612556565b905092915050565b6000819050919050565b6125c4816125b1565b81146125cf57600080fd5b50565b6000813590506125e1816125bb565b92915050565b6000602082840312156125fd576125fc612431565b5b600061260b848285016125d2565b91505092915050565b600073ffffffffffffffffffffffffffffffffffffffff82169050919050565b600061263f82612614565b9050919050565b61264f81612634565b82525050565b600060208201905061266a6000830184612646565b92915050565b61267981612634565b811461268457600080fd5b50565b60008135905061269681612670565b92915050565b600080604083850312156126b3576126b2612431565b5b60006126c185828601612687565b92505060206126d2858286016125d2565b9150509250929050565b6126e5816125b1565b82525050565b600060208201905061270060008301846126dc565b92915050565b60008060006060848603121561271f5761271e612431565b5b600061272d86828701612687565b935050602061273e86828701612687565b925050604061274f868287016125d2565b9150509250925092565b60006020828403121561276f5761276e612431565b5b600061277d84828501612687565b91505092915050565b600060a08201905061279b60008301886126dc565b6127a86020830187612646565b81810360408301526127ba8186612556565b90506127c960608301856126dc565b6127d660808301846126dc565b9695505050505050565b6127e9816124c0565b81146127f457600080fd5b50565b600081359050612806816127e0565b92915050565b6000806040838503121561282357612822612431565b5b600061283185828601612687565b9250506020612842858286016127f7565b9150509250929050565b600081519050919050565b600082825260208201905092915050565b6000819050602082019050919050565b612881816125b1565b82525050565b60006128938383612878565b60208301905092915050565b6000602082019050919050565b60006128b78261284c565b6128c18185612857565b93506128cc83612868565b8060005b838110156128fd5781516128e48882612887565b97506128ef8361289f565b9250506001810190506128d0565b5085935050505092915050565b6000602082019050818103600083015261292481846128ac565b905092915050565b600080fd5b600080fd5b7f4e487b7100000000000000000000000000000000000000000000000000000000600052604160045260246000fd5b61296e82612545565b810181811067ffffffffffffffff8211171561298d5761298c612936565b5b80604052505050565b60006129a0612427565b90506129ac8282612965565b919050565b600067ffffffffffffffff8211156129cc576129cb612936565b5b6129d582612545565b9050602081019050919050565b82818337600083830152505050565b6000612a046129ff846129b1565b612996565b905082815260208101848484011115612a2057612a1f612931565b5b612a2b8482856129e2565b509392505050565b600082601f830112612a4857612a4761292c565b5b8135612a588482602086016129f1565b91505092915050565b60008060008060808587031215612a7b57612a7a612431565b5b6000612a8987828801612687565b9450506020612a9a87828801612687565b9350506040612aab878288016125d2565b925050606085013567ffffffffffffffff811115612acc57612acb612436565b5b612ad887828801612a33565b91505092959194509250565b60008060408385031215612afb57612afa612431565b5b6000612b0985828601612687565b9250506020612b1a85828601612687565b9150509250929050565b600067ffffffffffffffff821115612b3f57612b3e612936565b5b612b4882612545565b9050602081019050919050565b6000612b68612b6384612b24565b612996565b905082815260208101848484011115612b8457612b83612931565b5b612b8f8482856129e2565b509392505050565b600082601f830112612bac57612bab61292c565b5b8135612bbc848260208601612b55565b91505092915050565b600067ffffffffffffffff821115612be057612bdf612936565b5b602082029050602081019050919050565b600080fd5b6000612c09612c0484612bc5565b612996565b90508083825260208201905060208402830185811115612c2c57612c2b612bf1565b5b835b81811015612c7357803567ffffffffffffffff811115612c5157612c5061292c565b5b808601612c5e8982612b97565b85526020850194505050602081019050612c2e565b5050509392505050565b600082601f830112612c9257612c9161292c565b5b8135612ca2848260208601612bf6565b91505092915050565b60008060008060808587031215612cc557612cc4612431565b5b6000612cd387828801612687565b945050602085013567ffffffffffffffff811115612cf457612cf3612436565b5b612d0087828801612b97565b935050604085013567ffffffffffffffff811115612d2157612d20612436565b5b612d2d87828801612c7d565b9250506060612d3e878288016125d2565b91505092959194509250565b612d5381612634565b82525050565b600082825260208201905092915050565b6000612d75826124f6565b612d7f8185612d59565b9350612d8f818560208601612512565b612d9881612545565b840191505092915050565b600081519050919050565b600082825260208201905092915050565b6000819050602082019050919050565b6000612ddb8383612d6a565b905092915050565b6000602082019050919050565b6000612dfb82612da3565b612e058185612dae565b935083602082028501612e1785612dbf565b8060005b85811015612e535784840389528151612e348582612dcf565b9450612e3f83612de3565b925060208a01995050600181019050612e1b565b50829750879550505050505092915050565b600060c083016000830151612e7d6000860182612878565b506020830151612e906020860182612d4a565b5060408301518482036040860152612ea88282612d6a565b9150506060830151612ebd6060860182612878565b5060808301518482036080860152612ed58282612df0565b91505060a0830151612eea60a0860182612878565b508091505092915050565b60006020820190508181036000830152612f0f8184612e65565b905092915050565b7f4e487b7100000000000000000000000000000000000000000000000000000000600052602260045260246000fd5b60006002820490506001821680612f5e57607f821691505b602082108103612f7157612f70612f17565b5b50919050565b7f4552433732313a20617070726f76656420717565727920666f72206e6f6e657860008201527f697374656e7420746f6b656e0000000000000000000000000000000000000000602082015250565b6000612fd3602c83612501565b9150612fde82612f77565b604082019050919050565b6000602082019050818103600083015261300281612fc6565b9050919050565b7f4552433732313a20617070726f76616c20746f2063757272656e74206f776e6560008201527f7200000000000000000000000000000000000000000000000000000000000000602082015250565b6000613065602183612501565b915061307082613009565b604082019050919050565b6000602082019050818103600083015261309481613058565b9050919050565b7f4552433732313a20617070726f76652063616c6c6572206973206e6f74206f7760008201527f6e6572206e6f7220617070726f76656420666f7220616c6c0000000000000000602082015250565b60006130f7603883612501565b91506131028261309b565b604082019050919050565b60006020820190508181036000830152613126816130ea565b9050919050565b7f4552433732313a207472616e736665722063616c6c6572206973206e6f74206f60008201527f776e6572206e6f7220617070726f766564000000000000000000000000000000602082015250565b6000613189603183612501565b91506131948261312d565b604082019050919050565b600060208201905081810360008301526131b88161317c565b9050919050565b7f455243373231456e756d657261626c653a206f776e657220696e646578206f7560008201527f74206f6620626f756e6473000000000000000000000000000000000000000000602082015250565b600061321b602b83612501565b9150613226826131bf565b604082019050919050565b6000602082019050818103600083015261324a8161320e565b9050919050565b7f455243373231456e756d657261626c653a20676c6f62616c20696e646578206f60008201527f7574206f6620626f756e64730000000000000000000000000000000000000000602082015250565b60006132ad602c83612501565b91506132b882613251565b604082019050919050565b600060208201905081810360008301526132dc816132a0565b9050919050565b7f4e487b7100000000000000000000000000000000000000000000000000000000600052603260045260246000fd5b7f4552433732313a206f776e657220717565727920666f72206e6f6e657869737460008201527f656e7420746f6b656e0000000000000000000000000000000000000000000000602082015250565b600061336e602983612501565b915061337982613312565b604082019050919050565b6000602082019050818103600083015261339d81613361565b9050919050565b7f4552433732313a2062616c616e636520717565727920666f7220746865207a6560008201527f726f206164647265737300000000000000000000000000000000000000000000602082015250565b6000613400602a83612501565b915061340b826133a4565b604082019050919050565b6000602082019050818103600083015261342f816133f3565b9050919050565b7f4552433732313a20617070726f766520746f2063616c6c657200000000000000600082015250565b600061346c601983612501565b915061347782613436565b602082019050919050565b6000602082019050818103600083015261349b8161345f565b9050919050565b7f4e487b7100000000000000000000000000000000000000000000000000000000600052601160045260246000fd5b60006134dc826125b1565b91507fffffffffffffffffffffffffffffffffffffffffffffffffffffffffffffffff820361350e5761350d6134a2565b5b600182019050919050565b7f4552433732314d657461646174613a2055524920717565727920666f72206e6f60008201527f6e6578697374656e7420746f6b656e0000000000000000000000000000000000602082015250565b6000613575602f83612501565b915061358082613519565b604082019050919050565b600060208201905081810360008301526135a481613568565b9050919050565b600081905092915050565b60006135c1826124f6565b6135cb81856135ab565b93506135db818560208601612512565b80840191505092915050565b60006135f382856135b6565b91506135ff82846135b6565b91508190509392505050565b7f5469636b657420646f6573206e6f742065786973740000000000000000000000600082015250565b6000613641601583612501565b915061364c8261360b565b602082019050919050565b6000602082019050818103600083015261367081613634565b9050919050565b7f4552433732313a206f70657261746f7220717565727920666f72206e6f6e657860008201527f697374656e7420746f6b656e0000000000000000000000000000000000000000602082015250565b60006136d3602c83612501565b91506136de82613677565b604082019050919050565b60006020820190508181036000830152613702816136c6565b9050919050565b7f4552433732313a207472616e73666572206f6620746f6b656e2074686174206960008201527f73206e6f74206f776e0000000000000000000000000000000000000000000000602082015250565b6000613765602983612501565b915061377082613709565b604082019050919050565b6000602082019050818103600083015261379481613758565b9050919050565b7f4552433732313a207472616e7366657220746f20746865207a65726f2061646460008201527f7265737300000000000000000000000000000000000000000000000000000000602082015250565b60006137f7602483612501565b91506138028261379b565b604082019050919050565b60006020820190508181036000830152613826816137ea565b9050919050565b6000613838826125b1565b9150613843836125b1565b925082821015613856576138556134a2565b5b828203905092915050565b600061386c826125b1565b9150613877836125b1565b9250827fffffffffffffffffffffffffffffffffffffffffffffffffffffffffffffffff038211156138ac576138ab6134a2565b5b828201905092915050565b7f4552433732313a207472616e7366657220746f206e6f6e20455243373231526560008201527f63656976657220696d706c656d656e7465720000000000000000000000000000602082015250565b6000613913603283612501565b915061391e826138b7565b604082019050919050565b6000602082019050818103600083015261394281613906565b9050919050565b7f4e487b7100000000000000000000000000000000000000000000000000000000600052601260045260246000fd5b6000613983826125b1565b915061398e836125b1565b92508261399e5761399d613949565b5b828204905092915050565b60006139b4826125b1565b91506139bf836125b1565b9250826139cf576139ce613949565b5b828206905092915050565b7f4552433732313a206d696e7420746f20746865207a65726f2061646472657373600082015250565b6000613a10602083612501565b9150613a1b826139da565b602082019050919050565b60006020820190508181036000830152613a3f81613a03565b9050919050565b7f4552433732313a20746f6b656e20616c7265616479206d696e74656400000000600082015250565b6000613a7c601c83612501565b9150613a8782613a46565b602082019050919050565b60006020820190508181036000830152613aab81613a6f565b9050919050565b600081519050919050565b600082825260208201905092915050565b6000613ad982613ab2565b613ae38185613abd565b9350613af3818560208601612512565b613afc81612545565b840191505092915050565b6000608082019050613b1c6000830187612646565b613b296020830186612646565b613b3660408301856126dc565b8181036060830152613b488184613ace565b905095945050505050565b600081519050613b6281612467565b92915050565b600060208284031215613b7e57613b7d612431565b5b6000613b8c84828501613b53565b91505092915050565b7f4e487b7100000000000000000000000000000000000000000000000000000000600052603160045260246000fdfea26469706673582212207af687b282affa351f89459beaacb9459b24a4ebd5b555a295c572ef1db95b7464736f6c634300080d0033",
  "immutableReferences": {},
  "source": "// SPDX-License-Identifier: MIT\r\n//   MIT    .\r\n\r\npragma solidity 0.8.13;\r\n\r\nimport \"@openzeppelin/contracts/token/ERC721/extensions/ERC721Enumerable.sol\";\r\n\r\ncontract TicketNFT is ERC721Enumerable {\r\n    //      Purchase  \r\n    struct Purchase {\r\n        uint256 tokenId; //  ID\r\n        address buyer; //  \r\n        string concert; //  \r\n        uint256 purchaseTime; //  \r\n        string[] selectedSeats; //   \r\n        uint256 paymentAmount; //  \r\n    }\r\n\r\n    //  ID      \r\n    Purchase[] public purchases;\r\n\r\n    //   NFT   \r\n    uint256 public totalNFTsIssued;\r\n\r\n    // ERC721Enumerable   TicketNFT  \r\n    constructor(\r\n        string memory name, //  \r\n        string memory symbol //  \r\n    ) ERC721(name, symbol) {\r\n        totalNFTsIssued = 0; //   NFT  \r\n    }\r\n\r\n    //   \r\n    function mint(\r\n        address _to, //    \r\n        string memory _concert, //  \r\n        string[] memory _selectedSeats, //   \r\n        uint256 _paymentAmount //  \r\n    ) external returns (uint256) {\r\n        //  ID  \r\n        uint256 tokenId = purchases.length; //    ID\r\n        _mint(_to, tokenId); // ERC721 mint    \r\n        //      \r\n        Purchase memory newPurchase = Purchase({\r\n            tokenId: tokenId,\r\n            buyer: _to,\r\n            concert: _concert,\r\n            purchaseTime: block.timestamp,\r\n            selectedSeats: _selectedSeats,\r\n            paymentAmount: _paymentAmount\r\n        });\r\n        purchases.push(newPurchase);\r\n        totalNFTsIssued++; //  NFT  \r\n        return tokenId; //  ID \r\n    }\r\n\r\n    function getTicketInfo(\r\n        uint256 _tokenId\r\n    ) external view returns (Purchase memory) {\r\n        require(_tokenId < purchases.length, \"Ticket does not exist\");\r\n        return purchases[_tokenId];\r\n    }\r\n\r\n    function getOwnedTicketIds(address _owner) external view returns (uint256[] memory) {\r\n        uint256 balance = balanceOf(_owner);\r\n        uint256[] memory tokenIds = new uint256[](balance);\r\n        for (uint256 i = 0; i < balance; i++) {\r\n            tokenIds[i] = tokenOfOwnerByIndex(_owner, i);\r\n        }\r\n        return tokenIds;\r\n    }\r\n\r\n    //   NFT   \r\n    function getTotalNFTsIssued() external view returns (uint256) {\r\n        return totalNFTsIssued;\r\n    }\r\n}",
  "sourcePath": "C:\\Users\\user\\Desktop\\project\\test\\movie\\client\\src\\contracts\\TicketNFT.sol",
  "compiler": {
    "name": "solc",
    "version": "0.8.13+commit.abaa5c0e.Emscripten.clang"
  },
  "schemaVersion": "3.4.16",
  "updatedAt": "2024-04-16T04:45:09.049Z",
  "networkType": "ethereum",
  "devdoc": {
    "kind": "dev",
    "methods": {
      "approve(address,uint256)": {
        "details": "See {IERC721-approve}."
      },
      "balanceOf(address)": {
        "details": "See {IERC721-balanceOf}."
      },
      "getApproved(uint256)": {
        "details": "See {IERC721-getApproved}."
      },
      "isApprovedForAll(address,address)": {
        "details": "See {IERC721-isApprovedForAll}."
      },
      "name()": {
        "details": "See {IERC721Metadata-name}."
      },
      "ownerOf(uint256)": {
        "details": "See {IERC721-ownerOf}."
      },
      "safeTransferFrom(address,address,uint256)": {
        "details": "See {IERC721-safeTransferFrom}."
      },
      "safeTransferFrom(address,address,uint256,bytes)": {
        "details": "See {IERC721-safeTransferFrom}."
      },
      "setApprovalForAll(address,bool)": {
        "details": "See {IERC721-setApprovalForAll}."
      },
      "supportsInterface(bytes4)": {
        "details": "See {IERC165-supportsInterface}."
      },
      "symbol()": {
        "details": "See {IERC721Metadata-symbol}."
      },
      "tokenByIndex(uint256)": {
        "details": "See {IERC721Enumerable-tokenByIndex}."
      },
      "tokenOfOwnerByIndex(address,uint256)": {
        "details": "See {IERC721Enumerable-tokenOfOwnerByIndex}."
      },
      "tokenURI(uint256)": {
        "details": "See {IERC721Metadata-tokenURI}."
      },
      "totalSupply()": {
        "details": "See {IERC721Enumerable-totalSupply}."
      },
      "transferFrom(address,address,uint256)": {
        "details": "See {IERC721-transferFrom}."
      }
    },
    "version": 1
  },
  "userdoc": {
    "kind": "user",
    "methods": {},
    "version": 1
  }
}