{
  "contractName": "TicketNFT",
  "abi": [
    {
      "inputs": [
        {
          "internalType": "string",
          "name": "name",
          "type": "string"
        },
        {
          "internalType": "string",
          "name": "symbol",
          "type": "string"
        }
      ],
      "stateMutability": "nonpayable",
      "type": "constructor"
    },
    {
      "anonymous": false,
      "inputs": [
        {
          "indexed": true,
          "internalType": "address",
          "name": "owner",
          "type": "address"
        },
        {
          "indexed": true,
          "internalType": "address",
          "name": "approved",
          "type": "address"
        },
        {
          "indexed": true,
          "internalType": "uint256",
          "name": "tokenId",
          "type": "uint256"
        }
      ],
      "name": "Approval",
      "type": "event"
    },
    {
      "anonymous": false,
      "inputs": [
        {
          "indexed": true,
          "internalType": "address",
          "name": "owner",
          "type": "address"
        },
        {
          "indexed": true,
          "internalType": "address",
          "name": "operator",
          "type": "address"
        },
        {
          "indexed": false,
          "internalType": "bool",
          "name": "approved",
          "type": "bool"
        }
      ],
      "name": "ApprovalForAll",
      "type": "event"
    },
    {
      "anonymous": false,
      "inputs": [
        {
          "indexed": true,
          "internalType": "address",
          "name": "from",
          "type": "address"
        },
        {
          "indexed": true,
          "internalType": "address",
          "name": "to",
          "type": "address"
        },
        {
          "indexed": true,
          "internalType": "uint256",
          "name": "tokenId",
          "type": "uint256"
        }
      ],
      "name": "Transfer",
      "type": "event"
    },
    {
      "inputs": [
        {
          "internalType": "address",
          "name": "to",
          "type": "address"
        },
        {
          "internalType": "uint256",
          "name": "tokenId",
          "type": "uint256"
        }
      ],
      "name": "approve",
      "outputs": [],
      "stateMutability": "nonpayable",
      "type": "function"
    },
    {
      "inputs": [
        {
          "internalType": "address",
          "name": "owner",
          "type": "address"
        }
      ],
      "name": "balanceOf",
      "outputs": [
        {
          "internalType": "uint256",
          "name": "",
          "type": "uint256"
        }
      ],
      "stateMutability": "view",
      "type": "function",
      "constant": true
    },
    {
      "inputs": [
        {
          "internalType": "uint256",
          "name": "tokenId",
          "type": "uint256"
        }
      ],
      "name": "getApproved",
      "outputs": [
        {
          "internalType": "address",
          "name": "",
          "type": "address"
        }
      ],
      "stateMutability": "view",
      "type": "function",
      "constant": true
    },
    {
      "inputs": [
        {
          "internalType": "address",
          "name": "owner",
          "type": "address"
        },
        {
          "internalType": "address",
          "name": "operator",
          "type": "address"
        }
      ],
      "name": "isApprovedForAll",
      "outputs": [
        {
          "internalType": "bool",
          "name": "",
          "type": "bool"
        }
      ],
      "stateMutability": "view",
      "type": "function",
      "constant": true
    },
    {
      "inputs": [],
      "name": "name",
      "outputs": [
        {
          "internalType": "string",
          "name": "",
          "type": "string"
        }
      ],
      "stateMutability": "view",
      "type": "function",
      "constant": true
    },
    {
      "inputs": [
        {
          "internalType": "uint256",
          "name": "tokenId",
          "type": "uint256"
        }
      ],
      "name": "ownerOf",
      "outputs": [
        {
          "internalType": "address",
          "name": "",
          "type": "address"
        }
      ],
      "stateMutability": "view",
      "type": "function",
      "constant": true
    },
    {
      "inputs": [
        {
          "internalType": "uint256",
          "name": "",
          "type": "uint256"
        }
      ],
      "name": "purchases",
      "outputs": [
        {
          "internalType": "address",
          "name": "buyer",
          "type": "address"
        },
        {
          "internalType": "string",
          "name": "concert",
          "type": "string"
        },
        {
          "internalType": "string",
          "name": "concertDate",
          "type": "string"
        },
        {
          "internalType": "string",
          "name": "concertTime",
          "type": "string"
        },
        {
          "internalType": "uint256",
          "name": "purchaseTime",
          "type": "uint256"
        },
        {
          "internalType": "uint256",
          "name": "paymentAmount",
          "type": "uint256"
        }
      ],
      "stateMutability": "view",
      "type": "function",
      "constant": true
    },
    {
      "inputs": [
        {
          "internalType": "address",
          "name": "from",
          "type": "address"
        },
        {
          "internalType": "address",
          "name": "to",
          "type": "address"
        },
        {
          "internalType": "uint256",
          "name": "tokenId",
          "type": "uint256"
        }
      ],
      "name": "safeTransferFrom",
      "outputs": [],
      "stateMutability": "nonpayable",
      "type": "function"
    },
    {
      "inputs": [
        {
          "internalType": "address",
          "name": "from",
          "type": "address"
        },
        {
          "internalType": "address",
          "name": "to",
          "type": "address"
        },
        {
          "internalType": "uint256",
          "name": "tokenId",
          "type": "uint256"
        },
        {
          "internalType": "bytes",
          "name": "_data",
          "type": "bytes"
        }
      ],
      "name": "safeTransferFrom",
      "outputs": [],
      "stateMutability": "nonpayable",
      "type": "function"
    },
    {
      "inputs": [
        {
          "internalType": "address",
          "name": "operator",
          "type": "address"
        },
        {
          "internalType": "bool",
          "name": "approved",
          "type": "bool"
        }
      ],
      "name": "setApprovalForAll",
      "outputs": [],
      "stateMutability": "nonpayable",
      "type": "function"
    },
    {
      "inputs": [
        {
          "internalType": "bytes4",
          "name": "interfaceId",
          "type": "bytes4"
        }
      ],
      "name": "supportsInterface",
      "outputs": [
        {
          "internalType": "bool",
          "name": "",
          "type": "bool"
        }
      ],
      "stateMutability": "view",
      "type": "function",
      "constant": true
    },
    {
      "inputs": [],
      "name": "symbol",
      "outputs": [
        {
          "internalType": "string",
          "name": "",
          "type": "string"
        }
      ],
      "stateMutability": "view",
      "type": "function",
      "constant": true
    },
    {
      "inputs": [
        {
          "internalType": "uint256",
          "name": "index",
          "type": "uint256"
        }
      ],
      "name": "tokenByIndex",
      "outputs": [
        {
          "internalType": "uint256",
          "name": "",
          "type": "uint256"
        }
      ],
      "stateMutability": "view",
      "type": "function",
      "constant": true
    },
    {
      "inputs": [
        {
          "internalType": "address",
          "name": "owner",
          "type": "address"
        },
        {
          "internalType": "uint256",
          "name": "index",
          "type": "uint256"
        }
      ],
      "name": "tokenOfOwnerByIndex",
      "outputs": [
        {
          "internalType": "uint256",
          "name": "",
          "type": "uint256"
        }
      ],
      "stateMutability": "view",
      "type": "function",
      "constant": true
    },
    {
      "inputs": [
        {
          "internalType": "uint256",
          "name": "tokenId",
          "type": "uint256"
        }
      ],
      "name": "tokenURI",
      "outputs": [
        {
          "internalType": "string",
          "name": "",
          "type": "string"
        }
      ],
      "stateMutability": "view",
      "type": "function",
      "constant": true
    },
    {
      "inputs": [],
      "name": "totalSupply",
      "outputs": [
        {
          "internalType": "uint256",
          "name": "",
          "type": "uint256"
        }
      ],
      "stateMutability": "view",
      "type": "function",
      "constant": true
    },
    {
      "inputs": [
        {
          "internalType": "address",
          "name": "from",
          "type": "address"
        },
        {
          "internalType": "address",
          "name": "to",
          "type": "address"
        },
        {
          "internalType": "uint256",
          "name": "tokenId",
          "type": "uint256"
        }
      ],
      "name": "transferFrom",
      "outputs": [],
      "stateMutability": "nonpayable",
      "type": "function"
    },
    {
      "inputs": [
        {
          "internalType": "address",
          "name": "_to",
          "type": "address"
        },
        {
          "internalType": "string",
          "name": "_concert",
          "type": "string"
        },
        {
          "internalType": "string",
          "name": "_concertDate",
          "type": "string"
        },
        {
          "internalType": "string",
          "name": "_concertTime",
          "type": "string"
        },
        {
          "internalType": "string[]",
          "name": "_selectedSeats",
          "type": "string[]"
        },
        {
          "internalType": "uint256",
          "name": "_paymentAmount",
          "type": "uint256"
        }
      ],
      "name": "mint",
      "outputs": [
        {
          "internalType": "uint256",
          "name": "",
          "type": "uint256"
        }
      ],
      "stateMutability": "nonpayable",
      "type": "function"
    },
    {
      "inputs": [
        {
          "internalType": "uint256",
          "name": "_tokenId",
          "type": "uint256"
        }
      ],
      "name": "getTicketInfo",
      "outputs": [
        {
          "components": [
            {
              "internalType": "address",
              "name": "buyer",
              "type": "address"
            },
            {
              "internalType": "string",
              "name": "concert",
              "type": "string"
            },
            {
              "internalType": "string",
              "name": "concertDate",
              "type": "string"
            },
            {
              "internalType": "string",
              "name": "concertTime",
              "type": "string"
            },
            {
              "internalType": "uint256",
              "name": "purchaseTime",
              "type": "uint256"
            },
            {
              "internalType": "string[]",
              "name": "selectedSeats",
              "type": "string[]"
            },
            {
              "internalType": "uint256",
              "name": "paymentAmount",
              "type": "uint256"
            }
          ],
          "internalType": "struct TicketNFT.Purchase",
          "name": "",
          "type": "tuple"
        }
      ],
      "stateMutability": "view",
      "type": "function",
      "constant": true
    },
    {
      "inputs": [
        {
          "internalType": "address",
          "name": "_owner",
          "type": "address"
        }
      ],
      "name": "getOwnedTicketIds",
      "outputs": [
        {
          "internalType": "uint256[]",
          "name": "",
          "type": "uint256[]"
        }
      ],
      "stateMutability": "view",
      "type": "function",
      "constant": true
    }
  ],
  "bytecode": "0x60806040523480156200001157600080fd5b5060405162004246380380620042468339818101604052810190620000379190620002c2565b818181600090805190602001906200005192919062000075565b5080600190805190602001906200006a92919062000075565b5050505050620003ab565b828054620000839062000376565b90600052602060002090601f016020900481019282620000a75760008555620000f3565b82601f10620000c257805160ff1916838001178555620000f3565b82800160010185558215620000f3579182015b82811115620000f2578251825591602001919060010190620000d5565b5b50905062000102919062000106565b5090565b5b808211156200012157600081600090555060010162000107565b5090565b6000604051905090565b600080fd5b600080fd5b600080fd5b600080fd5b6000601f19601f8301169050919050565b7f4e487b7100000000000000000000000000000000000000000000000000000000600052604160045260246000fd5b6200018e8262000143565b810181811067ffffffffffffffff82111715620001b057620001af62000154565b5b80604052505050565b6000620001c562000125565b9050620001d3828262000183565b919050565b600067ffffffffffffffff821115620001f657620001f562000154565b5b620002018262000143565b9050602081019050919050565b60005b838110156200022e57808201518184015260208101905062000211565b838111156200023e576000848401525b50505050565b60006200025b6200025584620001d8565b620001b9565b9050828152602081018484840111156200027a57620002796200013e565b5b620002878482856200020e565b509392505050565b600082601f830112620002a757620002a662000139565b5b8151620002b984826020860162000244565b91505092915050565b60008060408385031215620002dc57620002db6200012f565b5b600083015167ffffffffffffffff811115620002fd57620002fc62000134565b5b6200030b858286016200028f565b925050602083015167ffffffffffffffff8111156200032f576200032e62000134565b5b6200033d858286016200028f565b9150509250929050565b7f4e487b7100000000000000000000000000000000000000000000000000000000600052602260045260246000fd5b600060028204905060018216806200038f57607f821691505b602082108103620003a557620003a462000347565b5b50919050565b613e8b80620003bb6000396000f3fe608060405234801561001057600080fd5b506004361061012c5760003560e01c806370a08231116100ad578063a4bfd0cc11610071578063a4bfd0cc14610380578063b88d4fde146103b0578063c87b56dd146103cc578063e985e9c5146103fc578063ff99a0631461042c5761012c565b806370a08231146102b15780638392fe31146102e157806395d89b41146103165780639abb2f7e14610334578063a22cb465146103645761012c565b806323b872dd116100f457806323b872dd146101e95780632f745c591461020557806342842e0e146102355780634f6ccce7146102515780636352211e146102815761012c565b806301ffc9a71461013157806306fdde0314610161578063081812fc1461017f578063095ea7b3146101af57806318160ddd146101cb575b600080fd5b61014b60048036038101906101469190612689565b61045c565b60405161015891906126d1565b60405180910390f35b6101696104d6565b6040516101769190612785565b60405180910390f35b610199600480360381019061019491906127dd565b610568565b6040516101a6919061284b565b60405180910390f35b6101c960048036038101906101c49190612892565b6105ed565b005b6101d3610704565b6040516101e091906128e1565b60405180910390f35b61020360048036038101906101fe91906128fc565b610711565b005b61021f600480360381019061021a9190612892565b610771565b60405161022c91906128e1565b60405180910390f35b61024f600480360381019061024a91906128fc565b610816565b005b61026b600480360381019061026691906127dd565b610836565b60405161027891906128e1565b60405180910390f35b61029b600480360381019061029691906127dd565b6108a7565b6040516102a8919061284b565b60405180910390f35b6102cb60048036038101906102c6919061294f565b610958565b6040516102d891906128e1565b60405180910390f35b6102fb60048036038101906102f691906127dd565b610a0f565b60405161030d9695949392919061297c565b60405180910390f35b61031e610c13565b60405161032b9190612785565b60405180910390f35b61034e60048036038101906103499190612c0d565b610ca5565b60405161035b91906128e1565b60405180910390f35b61037e60048036038101906103799190612d36565b610e13565b005b61039a6004803603810190610395919061294f565b610f93565b6040516103a79190612e34565b60405180910390f35b6103ca60048036038101906103c59190612ef7565b611041565b005b6103e660048036038101906103e191906127dd565b6110a3565b6040516103f39190612785565b60405180910390f35b61041660048036038101906104119190612f7a565b61114a565b60405161042391906126d1565b60405180910390f35b610446600480360381019061044191906127dd565b6111de565b6040516104539190613186565b60405180910390f35b60007f780e9d63000000000000000000000000000000000000000000000000000000007bffffffffffffffffffffffffffffffffffffffffffffffffffffffff1916827bffffffffffffffffffffffffffffffffffffffffffffffffffffffff191614806104cf57506104ce8261155a565b5b9050919050565b6060600080546104e5906131d7565b80601f0160208091040260200160405190810160405280929190818152602001828054610511906131d7565b801561055e5780601f106105335761010080835404028352916020019161055e565b820191906000526020600020905b81548152906001019060200180831161054157829003601f168201915b5050505050905090565b60006105738261163c565b6105b2576040517f08c379a00000000000000000000000000000000000000000000000000000000081526004016105a99061327a565b60405180910390fd5b6004600083815260200190815260200160002060009054906101000a900473ffffffffffffffffffffffffffffffffffffffff169050919050565b60006105f8826108a7565b90508073ffffffffffffffffffffffffffffffffffffffff168373ffffffffffffffffffffffffffffffffffffffff1603610668576040517f08c379a000000000000000000000000000000000000000000000000000000000815260040161065f9061330c565b60405180910390fd5b8073ffffffffffffffffffffffffffffffffffffffff166106876116a8565b73ffffffffffffffffffffffffffffffffffffffff1614806106b657506106b5816106b06116a8565b61114a565b5b6106f5576040517f08c379a00000000000000000000000000000000000000000000000000000000081526004016106ec9061339e565b60405180910390fd5b6106ff83836116b0565b505050565b6000600880549050905090565b61072261071c6116a8565b82611769565b610761576040517f08c379a000000000000000000000000000000000000000000000000000000000815260040161075890613430565b60405180910390fd5b61076c838383611847565b505050565b600061077c83610958565b82106107bd576040517f08c379a00000000000000000000000000000000000000000000000000000000081526004016107b4906134c2565b60405180910390fd5b600660008473ffffffffffffffffffffffffffffffffffffffff1673ffffffffffffffffffffffffffffffffffffffff168152602001908152602001600020600083815260200190815260200160002054905092915050565b61083183838360405180602001604052806000815250611041565b505050565b6000610840610704565b8210610881576040517f08c379a000000000000000000000000000000000000000000000000000000000815260040161087890613554565b60405180910390fd5b6008828154811061089557610894613574565b5b90600052602060002001549050919050565b6000806002600084815260200190815260200160002060009054906101000a900473ffffffffffffffffffffffffffffffffffffffff169050600073ffffffffffffffffffffffffffffffffffffffff168173ffffffffffffffffffffffffffffffffffffffff160361094f576040517f08c379a000000000000000000000000000000000000000000000000000000000815260040161094690613615565b60405180910390fd5b80915050919050565b60008073ffffffffffffffffffffffffffffffffffffffff168273ffffffffffffffffffffffffffffffffffffffff16036109c8576040517f08c379a00000000000000000000000000000000000000000000000000000000081526004016109bf906136a7565b60405180910390fd5b600360008373ffffffffffffffffffffffffffffffffffffffff1673ffffffffffffffffffffffffffffffffffffffff168152602001908152602001600020549050919050565b600a8181548110610a1f57600080fd5b90600052602060002090600702016000915090508060000160009054906101000a900473ffffffffffffffffffffffffffffffffffffffff1690806001018054610a68906131d7565b80601f0160208091040260200160405190810160405280929190818152602001828054610a94906131d7565b8015610ae15780601f10610ab657610100808354040283529160200191610ae1565b820191906000526020600020905b815481529060010190602001808311610ac457829003601f168201915b505050505090806002018054610af6906131d7565b80601f0160208091040260200160405190810160405280929190818152602001828054610b22906131d7565b8015610b6f5780601f10610b4457610100808354040283529160200191610b6f565b820191906000526020600020905b815481529060010190602001808311610b5257829003601f168201915b505050505090806003018054610b84906131d7565b80601f0160208091040260200160405190810160405280929190818152602001828054610bb0906131d7565b8015610bfd5780601f10610bd257610100808354040283529160200191610bfd565b820191906000526020600020905b815481529060010190602001808311610be057829003601f168201915b5050505050908060040154908060060154905086565b606060018054610c22906131d7565b80601f0160208091040260200160405190810160405280929190818152602001828054610c4e906131d7565b8015610c9b5780601f10610c7057610100808354040283529160200191610c9b565b820191906000526020600020905b815481529060010190602001808311610c7e57829003601f168201915b5050505050905090565b600080600a805490509050610cba8882611aa2565b60006040518060e001604052808a73ffffffffffffffffffffffffffffffffffffffff168152602001898152602001888152602001878152602001428152602001868152602001858152509050600a81908060018154018082558091505060019003906000526020600020906007020160009091909190915060008201518160000160006101000a81548173ffffffffffffffffffffffffffffffffffffffff021916908373ffffffffffffffffffffffffffffffffffffffff1602179055506020820151816001019080519060200190610d96929190612463565b506040820151816002019080519060200190610db3929190612463565b506060820151816003019080519060200190610dd0929190612463565b506080820151816004015560a0820151816005019080519060200190610df79291906124e9565b5060c08201518160060155505081925050509695505050505050565b610e1b6116a8565b73ffffffffffffffffffffffffffffffffffffffff168273ffffffffffffffffffffffffffffffffffffffff1603610e88576040517f08c379a0000000000000000000000000000000000000000000000000000000008152600401610e7f90613713565b60405180910390fd5b8060056000610e956116a8565b73ffffffffffffffffffffffffffffffffffffffff1673ffffffffffffffffffffffffffffffffffffffff16815260200190815260200160002060008473ffffffffffffffffffffffffffffffffffffffff1673ffffffffffffffffffffffffffffffffffffffff16815260200190815260200160002060006101000a81548160ff0219169083151502179055508173ffffffffffffffffffffffffffffffffffffffff16610f426116a8565b73ffffffffffffffffffffffffffffffffffffffff167f17307eab39ab6107e8899845ad3d59bd9653f200f220920489ca2b5937696c3183604051610f8791906126d1565b60405180910390a35050565b60606000610fa083610958565b905060008167ffffffffffffffff811115610fbe57610fbd6129fc565b5b604051908082528060200260200182016040528015610fec5781602001602082028036833780820191505090505b50905060005b82811015611036576110048582610771565b82828151811061101757611016613574565b5b602002602001018181525050808061102e90613762565b915050610ff2565b508092505050919050565b61105261104c6116a8565b83611769565b611091576040517f08c379a000000000000000000000000000000000000000000000000000000000815260040161108890613430565b60405180910390fd5b61109d84848484611c6f565b50505050565b60606110ae8261163c565b6110ed576040517f08c379a00000000000000000000000000000000000000000000000000000000081526004016110e49061381c565b60405180910390fd5b60006110f7611ccb565b905060008151116111175760405180602001604052806000815250611142565b8061112184611ce2565b604051602001611132929190613878565b6040516020818303038152906040525b915050919050565b6000600560008473ffffffffffffffffffffffffffffffffffffffff1673ffffffffffffffffffffffffffffffffffffffff16815260200190815260200160002060008373ffffffffffffffffffffffffffffffffffffffff1673ffffffffffffffffffffffffffffffffffffffff16815260200190815260200160002060009054906101000a900460ff16905092915050565b6111e6612549565b600a80549050821061122d576040517f08c379a0000000000000000000000000000000000000000000000000000000008152600401611224906138e8565b60405180910390fd5b600a828154811061124157611240613574565b5b90600052602060002090600702016040518060e00160405290816000820160009054906101000a900473ffffffffffffffffffffffffffffffffffffffff1673ffffffffffffffffffffffffffffffffffffffff1673ffffffffffffffffffffffffffffffffffffffff1681526020016001820180546112c0906131d7565b80601f01602080910402602001604051908101604052809291908181526020018280546112ec906131d7565b80156113395780601f1061130e57610100808354040283529160200191611339565b820191906000526020600020905b81548152906001019060200180831161131c57829003601f168201915b50505050508152602001600282018054611352906131d7565b80601f016020809104026020016040519081016040528092919081815260200182805461137e906131d7565b80156113cb5780601f106113a0576101008083540402835291602001916113cb565b820191906000526020600020905b8154815290600101906020018083116113ae57829003601f168201915b505050505081526020016003820180546113e4906131d7565b80601f0160208091040260200160405190810160405280929190818152602001828054611410906131d7565b801561145d5780601f106114325761010080835404028352916020019161145d565b820191906000526020600020905b81548152906001019060200180831161144057829003601f168201915b505050505081526020016004820154815260200160058201805480602002602001604051908101604052809291908181526020016000905b828210156115415783829060005260206000200180546114b4906131d7565b80601f01602080910402602001604051908101604052809291908181526020018280546114e0906131d7565b801561152d5780601f106115025761010080835404028352916020019161152d565b820191906000526020600020905b81548152906001019060200180831161151057829003601f168201915b505050505081526020019060010190611495565b5050505081526020016006820154815250509050919050565b60007f80ac58cd000000000000000000000000000000000000000000000000000000007bffffffffffffffffffffffffffffffffffffffffffffffffffffffff1916827bffffffffffffffffffffffffffffffffffffffffffffffffffffffff1916148061162557507f5b5e139f000000000000000000000000000000000000000000000000000000007bffffffffffffffffffffffffffffffffffffffffffffffffffffffff1916827bffffffffffffffffffffffffffffffffffffffffffffffffffffffff1916145b80611635575061163482611e42565b5b9050919050565b60008073ffffffffffffffffffffffffffffffffffffffff166002600084815260200190815260200160002060009054906101000a900473ffffffffffffffffffffffffffffffffffffffff1673ffffffffffffffffffffffffffffffffffffffff1614159050919050565b600033905090565b816004600083815260200190815260200160002060006101000a81548173ffffffffffffffffffffffffffffffffffffffff021916908373ffffffffffffffffffffffffffffffffffffffff160217905550808273ffffffffffffffffffffffffffffffffffffffff16611723836108a7565b73ffffffffffffffffffffffffffffffffffffffff167f8c5be1e5ebec7d5bd14f71427d1e84f3dd0314c0f7b2291e5b200ac8c7c3b92560405160405180910390a45050565b60006117748261163c565b6117b3576040517f08c379a00000000000000000000000000000000000000000000000000000000081526004016117aa9061397a565b60405180910390fd5b60006117be836108a7565b90508073ffffffffffffffffffffffffffffffffffffffff168473ffffffffffffffffffffffffffffffffffffffff16148061182d57508373ffffffffffffffffffffffffffffffffffffffff1661181584610568565b73ffffffffffffffffffffffffffffffffffffffff16145b8061183e575061183d818561114a565b5b91505092915050565b8273ffffffffffffffffffffffffffffffffffffffff16611867826108a7565b73ffffffffffffffffffffffffffffffffffffffff16146118bd576040517f08c379a00000000000000000000000000000000000000000000000000000000081526004016118b490613a0c565b60405180910390fd5b600073ffffffffffffffffffffffffffffffffffffffff168273ffffffffffffffffffffffffffffffffffffffff160361192c576040517f08c379a000000000000000000000000000000000000000000000000000000000815260040161192390613a9e565b60405180910390fd5b611937838383611eac565b6119426000826116b0565b6001600360008573ffffffffffffffffffffffffffffffffffffffff1673ffffffffffffffffffffffffffffffffffffffff16815260200190815260200160002060008282546119929190613abe565b925050819055506001600360008473ffffffffffffffffffffffffffffffffffffffff1673ffffffffffffffffffffffffffffffffffffffff16815260200190815260200160002060008282546119e99190613af2565b92505081905550816002600083815260200190815260200160002060006101000a81548173ffffffffffffffffffffffffffffffffffffffff021916908373ffffffffffffffffffffffffffffffffffffffff160217905550808273ffffffffffffffffffffffffffffffffffffffff168473ffffffffffffffffffffffffffffffffffffffff167fddf252ad1be2c89b69c2b068fc378daa952ba7f163c4a11628f55a4df523b3ef60405160405180910390a4505050565b600073ffffffffffffffffffffffffffffffffffffffff168273ffffffffffffffffffffffffffffffffffffffff1603611b11576040517f08c379a0000000000000000000000000000000000000000000000000000000008152600401611b0890613b94565b60405180910390fd5b611b1a8161163c565b15611b5a576040517f08c379a0000000000000000000000000000000000000000000000000000000008152600401611b5190613c00565b60405180910390fd5b611b6660008383611eac565b6001600360008473ffffffffffffffffffffffffffffffffffffffff1673ffffffffffffffffffffffffffffffffffffffff1681526020019081526020016000206000828254611bb69190613af2565b92505081905550816002600083815260200190815260200160002060006101000a81548173ffffffffffffffffffffffffffffffffffffffff021916908373ffffffffffffffffffffffffffffffffffffffff160217905550808273ffffffffffffffffffffffffffffffffffffffff16600073ffffffffffffffffffffffffffffffffffffffff167fddf252ad1be2c89b69c2b068fc378daa952ba7f163c4a11628f55a4df523b3ef60405160405180910390a45050565b611c7a848484611847565b611c8684848484611fbe565b611cc5576040517f08c379a0000000000000000000000000000000000000000000000000000000008152600401611cbc90613c92565b60405180910390fd5b50505050565b606060405180602001604052806000815250905090565b606060008203611d29576040518060400160405280600181526020017f30000000000000000000000000000000000000000000000000000000000000008152509050611e3d565b600082905060005b60008214611d5b578080611d4490613762565b915050600a82611d549190613ce1565b9150611d31565b60008167ffffffffffffffff811115611d7757611d766129fc565b5b6040519080825280601f01601f191660200182016040528015611da95781602001600182028036833780820191505090505b5090505b60008514611e3657600182611dc29190613abe565b9150600a85611dd19190613d12565b6030611ddd9190613af2565b60f81b818381518110611df357611df2613574565b5b60200101907effffffffffffffffffffffffffffffffffffffffffffffffffffffffffffff1916908160001a905350600a85611e2f9190613ce1565b9450611dad565b8093505050505b919050565b60007f01ffc9a7000000000000000000000000000000000000000000000000000000007bffffffffffffffffffffffffffffffffffffffffffffffffffffffff1916827bffffffffffffffffffffffffffffffffffffffffffffffffffffffff1916149050919050565b611eb7838383612145565b600073ffffffffffffffffffffffffffffffffffffffff168373ffffffffffffffffffffffffffffffffffffffff1603611ef957611ef48161214a565b611f38565b8173ffffffffffffffffffffffffffffffffffffffff168373ffffffffffffffffffffffffffffffffffffffff1614611f3757611f368382612193565b5b5b600073ffffffffffffffffffffffffffffffffffffffff168273ffffffffffffffffffffffffffffffffffffffff1603611f7a57611f7581612300565b611fb9565b8273ffffffffffffffffffffffffffffffffffffffff168273ffffffffffffffffffffffffffffffffffffffff1614611fb857611fb782826123d1565b5b5b505050565b6000611fdf8473ffffffffffffffffffffffffffffffffffffffff16612450565b15612138578373ffffffffffffffffffffffffffffffffffffffff1663150b7a026120086116a8565b8786866040518563ffffffff1660e01b815260040161202a9493929190613d98565b6020604051808303816000875af192505050801561206657506040513d601f19601f820116820180604052508101906120639190613df9565b60015b6120e8573d8060008114612096576040519150601f19603f3d011682016040523d82523d6000602084013e61209b565b606091505b5060008151036120e0576040517f08c379a00000000000000000000000000000000000000000000000000000000081526004016120d790613c92565b60405180910390fd5b805181602001fd5b63150b7a0260e01b7bffffffffffffffffffffffffffffffffffffffffffffffffffffffff1916817bffffffffffffffffffffffffffffffffffffffffffffffffffffffff19161491505061213d565b600190505b949350505050565b505050565b6008805490506009600083815260200190815260200160002081905550600881908060018154018082558091505060019003906000526020600020016000909190919091505550565b600060016121a084610958565b6121aa9190613abe565b905060006007600084815260200190815260200160002054905081811461228f576000600660008673ffffffffffffffffffffffffffffffffffffffff1673ffffffffffffffffffffffffffffffffffffffff168152602001908152602001600020600084815260200190815260200160002054905080600660008773ffffffffffffffffffffffffffffffffffffffff1673ffffffffffffffffffffffffffffffffffffffff168152602001908152602001600020600084815260200190815260200160002081905550816007600083815260200190815260200160002081905550505b6007600084815260200190815260200160002060009055600660008573ffffffffffffffffffffffffffffffffffffffff1673ffffffffffffffffffffffffffffffffffffffff16815260200190815260200160002060008381526020019081526020016000206000905550505050565b600060016008805490506123149190613abe565b905060006009600084815260200190815260200160002054905060006008838154811061234457612343613574565b5b90600052602060002001549050806008838154811061236657612365613574565b5b9060005260206000200181905550816009600083815260200190815260200160002081905550600960008581526020019081526020016000206000905560088054806123b5576123b4613e26565b5b6001900381819060005260206000200160009055905550505050565b60006123dc83610958565b905081600660008573ffffffffffffffffffffffffffffffffffffffff1673ffffffffffffffffffffffffffffffffffffffff168152602001908152602001600020600083815260200190815260200160002081905550806007600084815260200190815260200160002081905550505050565b600080823b905060008111915050919050565b82805461246f906131d7565b90600052602060002090601f01602090048101928261249157600085556124d8565b82601f106124aa57805160ff19168380011785556124d8565b828001600101855582156124d8579182015b828111156124d75782518255916020019190600101906124bc565b5b5090506124e5919061259c565b5090565b828054828255906000526020600020908101928215612538579160200282015b82811115612537578251829080519060200190612527929190612463565b5091602001919060010190612509565b5b50905061254591906125b9565b5090565b6040518060e00160405280600073ffffffffffffffffffffffffffffffffffffffff1681526020016060815260200160608152602001606081526020016000815260200160608152602001600081525090565b5b808211156125b557600081600090555060010161259d565b5090565b5b808211156125d957600081816125d091906125dd565b506001016125ba565b5090565b5080546125e9906131d7565b6000825580601f106125fb575061261a565b601f016020900490600052602060002090810190612619919061259c565b5b50565b6000604051905090565b600080fd5b600080fd5b60007fffffffff0000000000000000000000000000000000000000000000000000000082169050919050565b61266681612631565b811461267157600080fd5b50565b6000813590506126838161265d565b92915050565b60006020828403121561269f5761269e612627565b5b60006126ad84828501612674565b91505092915050565b60008115159050919050565b6126cb816126b6565b82525050565b60006020820190506126e660008301846126c2565b92915050565b600081519050919050565b600082825260208201905092915050565b60005b8381101561272657808201518184015260208101905061270b565b83811115612735576000848401525b50505050565b6000601f19601f8301169050919050565b6000612757826126ec565b61276181856126f7565b9350612771818560208601612708565b61277a8161273b565b840191505092915050565b6000602082019050818103600083015261279f818461274c565b905092915050565b6000819050919050565b6127ba816127a7565b81146127c557600080fd5b50565b6000813590506127d7816127b1565b92915050565b6000602082840312156127f3576127f2612627565b5b6000612801848285016127c8565b91505092915050565b600073ffffffffffffffffffffffffffffffffffffffff82169050919050565b60006128358261280a565b9050919050565b6128458161282a565b82525050565b6000602082019050612860600083018461283c565b92915050565b61286f8161282a565b811461287a57600080fd5b50565b60008135905061288c81612866565b92915050565b600080604083850312156128a9576128a8612627565b5b60006128b78582860161287d565b92505060206128c8858286016127c8565b9150509250929050565b6128db816127a7565b82525050565b60006020820190506128f660008301846128d2565b92915050565b60008060006060848603121561291557612914612627565b5b60006129238682870161287d565b93505060206129348682870161287d565b9250506040612945868287016127c8565b9150509250925092565b60006020828403121561296557612964612627565b5b60006129738482850161287d565b91505092915050565b600060c082019050612991600083018961283c565b81810360208301526129a3818861274c565b905081810360408301526129b7818761274c565b905081810360608301526129cb818661274c565b90506129da60808301856128d2565b6129e760a08301846128d2565b979650505050505050565b600080fd5b600080fd5b7f4e487b7100000000000000000000000000000000000000000000000000000000600052604160045260246000fd5b612a348261273b565b810181811067ffffffffffffffff82111715612a5357612a526129fc565b5b80604052505050565b6000612a6661261d565b9050612a728282612a2b565b919050565b600067ffffffffffffffff821115612a9257612a916129fc565b5b612a9b8261273b565b9050602081019050919050565b82818337600083830152505050565b6000612aca612ac584612a77565b612a5c565b905082815260208101848484011115612ae657612ae56129f7565b5b612af1848285612aa8565b509392505050565b600082601f830112612b0e57612b0d6129f2565b5b8135612b1e848260208601612ab7565b91505092915050565b600067ffffffffffffffff821115612b4257612b416129fc565b5b602082029050602081019050919050565b600080fd5b6000612b6b612b6684612b27565b612a5c565b90508083825260208201905060208402830185811115612b8e57612b8d612b53565b5b835b81811015612bd557803567ffffffffffffffff811115612bb357612bb26129f2565b5b808601612bc08982612af9565b85526020850194505050602081019050612b90565b5050509392505050565b600082601f830112612bf457612bf36129f2565b5b8135612c04848260208601612b58565b91505092915050565b60008060008060008060c08789031215612c2a57612c29612627565b5b6000612c3889828a0161287d565b965050602087013567ffffffffffffffff811115612c5957612c5861262c565b5b612c6589828a01612af9565b955050604087013567ffffffffffffffff811115612c8657612c8561262c565b5b612c9289828a01612af9565b945050606087013567ffffffffffffffff811115612cb357612cb261262c565b5b612cbf89828a01612af9565b935050608087013567ffffffffffffffff811115612ce057612cdf61262c565b5b612cec89828a01612bdf565b92505060a0612cfd89828a016127c8565b9150509295509295509295565b612d13816126b6565b8114612d1e57600080fd5b50565b600081359050612d3081612d0a565b92915050565b60008060408385031215612d4d57612d4c612627565b5b6000612d5b8582860161287d565b9250506020612d6c85828601612d21565b9150509250929050565b600081519050919050565b600082825260208201905092915050565b6000819050602082019050919050565b612dab816127a7565b82525050565b6000612dbd8383612da2565b60208301905092915050565b6000602082019050919050565b6000612de182612d76565b612deb8185612d81565b9350612df683612d92565b8060005b83811015612e27578151612e0e8882612db1565b9750612e1983612dc9565b925050600181019050612dfa565b5085935050505092915050565b60006020820190508181036000830152612e4e8184612dd6565b905092915050565b600067ffffffffffffffff821115612e7157612e706129fc565b5b612e7a8261273b565b9050602081019050919050565b6000612e9a612e9584612e56565b612a5c565b905082815260208101848484011115612eb657612eb56129f7565b5b612ec1848285612aa8565b509392505050565b600082601f830112612ede57612edd6129f2565b5b8135612eee848260208601612e87565b91505092915050565b60008060008060808587031215612f1157612f10612627565b5b6000612f1f8782880161287d565b9450506020612f308782880161287d565b9350506040612f41878288016127c8565b925050606085013567ffffffffffffffff811115612f6257612f6161262c565b5b612f6e87828801612ec9565b91505092959194509250565b60008060408385031215612f9157612f90612627565b5b6000612f9f8582860161287d565b9250506020612fb08582860161287d565b9150509250929050565b612fc38161282a565b82525050565b600082825260208201905092915050565b6000612fe5826126ec565b612fef8185612fc9565b9350612fff818560208601612708565b6130088161273b565b840191505092915050565b600081519050919050565b600082825260208201905092915050565b6000819050602082019050919050565b600061304b8383612fda565b905092915050565b6000602082019050919050565b600061306b82613013565b613075818561301e565b9350836020820285016130878561302f565b8060005b858110156130c357848403895281516130a4858261303f565b94506130af83613053565b925060208a0199505060018101905061308b565b50829750879550505050505092915050565b600060e0830160008301516130ed6000860182612fba565b50602083015184820360208601526131058282612fda565b9150506040830151848203604086015261311f8282612fda565b915050606083015184820360608601526131398282612fda565b915050608083015161314e6080860182612da2565b5060a083015184820360a08601526131668282613060565b91505060c083015161317b60c0860182612da2565b508091505092915050565b600060208201905081810360008301526131a081846130d5565b905092915050565b7f4e487b7100000000000000000000000000000000000000000000000000000000600052602260045260246000fd5b600060028204905060018216806131ef57607f821691505b602082108103613202576132016131a8565b5b50919050565b7f4552433732313a20617070726f76656420717565727920666f72206e6f6e657860008201527f697374656e7420746f6b656e0000000000000000000000000000000000000000602082015250565b6000613264602c836126f7565b915061326f82613208565b604082019050919050565b6000602082019050818103600083015261329381613257565b9050919050565b7f4552433732313a20617070726f76616c20746f2063757272656e74206f776e6560008201527f7200000000000000000000000000000000000000000000000000000000000000602082015250565b60006132f66021836126f7565b91506133018261329a565b604082019050919050565b60006020820190508181036000830152613325816132e9565b9050919050565b7f4552433732313a20617070726f76652063616c6c6572206973206e6f74206f7760008201527f6e6572206e6f7220617070726f76656420666f7220616c6c0000000000000000602082015250565b60006133886038836126f7565b91506133938261332c565b604082019050919050565b600060208201905081810360008301526133b78161337b565b9050919050565b7f4552433732313a207472616e736665722063616c6c6572206973206e6f74206f60008201527f776e6572206e6f7220617070726f766564000000000000000000000000000000602082015250565b600061341a6031836126f7565b9150613425826133be565b604082019050919050565b600060208201905081810360008301526134498161340d565b9050919050565b7f455243373231456e756d657261626c653a206f776e657220696e646578206f7560008201527f74206f6620626f756e6473000000000000000000000000000000000000000000602082015250565b60006134ac602b836126f7565b91506134b782613450565b604082019050919050565b600060208201905081810360008301526134db8161349f565b9050919050565b7f455243373231456e756d657261626c653a20676c6f62616c20696e646578206f60008201527f7574206f6620626f756e64730000000000000000000000000000000000000000602082015250565b600061353e602c836126f7565b9150613549826134e2565b604082019050919050565b6000602082019050818103600083015261356d81613531565b9050919050565b7f4e487b7100000000000000000000000000000000000000000000000000000000600052603260045260246000fd5b7f4552433732313a206f776e657220717565727920666f72206e6f6e657869737460008201527f656e7420746f6b656e0000000000000000000000000000000000000000000000602082015250565b60006135ff6029836126f7565b915061360a826135a3565b604082019050919050565b6000602082019050818103600083015261362e816135f2565b9050919050565b7f4552433732313a2062616c616e636520717565727920666f7220746865207a6560008201527f726f206164647265737300000000000000000000000000000000000000000000602082015250565b6000613691602a836126f7565b915061369c82613635565b604082019050919050565b600060208201905081810360008301526136c081613684565b9050919050565b7f4552433732313a20617070726f766520746f2063616c6c657200000000000000600082015250565b60006136fd6019836126f7565b9150613708826136c7565b602082019050919050565b6000602082019050818103600083015261372c816136f0565b9050919050565b7f4e487b7100000000000000000000000000000000000000000000000000000000600052601160045260246000fd5b600061376d826127a7565b91507fffffffffffffffffffffffffffffffffffffffffffffffffffffffffffffffff820361379f5761379e613733565b5b600182019050919050565b7f4552433732314d657461646174613a2055524920717565727920666f72206e6f60008201527f6e6578697374656e7420746f6b656e0000000000000000000000000000000000602082015250565b6000613806602f836126f7565b9150613811826137aa565b604082019050919050565b60006020820190508181036000830152613835816137f9565b9050919050565b600081905092915050565b6000613852826126ec565b61385c818561383c565b935061386c818560208601612708565b80840191505092915050565b60006138848285613847565b91506138908284613847565b91508190509392505050565b7f5469636b657420646f6573206e6f742065786973740000000000000000000000600082015250565b60006138d26015836126f7565b91506138dd8261389c565b602082019050919050565b60006020820190508181036000830152613901816138c5565b9050919050565b7f4552433732313a206f70657261746f7220717565727920666f72206e6f6e657860008201527f697374656e7420746f6b656e0000000000000000000000000000000000000000602082015250565b6000613964602c836126f7565b915061396f82613908565b604082019050919050565b6000602082019050818103600083015261399381613957565b9050919050565b7f4552433732313a207472616e73666572206f6620746f6b656e2074686174206960008201527f73206e6f74206f776e0000000000000000000000000000000000000000000000602082015250565b60006139f66029836126f7565b9150613a018261399a565b604082019050919050565b60006020820190508181036000830152613a25816139e9565b9050919050565b7f4552433732313a207472616e7366657220746f20746865207a65726f2061646460008201527f7265737300000000000000000000000000000000000000000000000000000000602082015250565b6000613a886024836126f7565b9150613a9382613a2c565b604082019050919050565b60006020820190508181036000830152613ab781613a7b565b9050919050565b6000613ac9826127a7565b9150613ad4836127a7565b925082821015613ae757613ae6613733565b5b828203905092915050565b6000613afd826127a7565b9150613b08836127a7565b9250827fffffffffffffffffffffffffffffffffffffffffffffffffffffffffffffffff03821115613b3d57613b3c613733565b5b828201905092915050565b7f4552433732313a206d696e7420746f20746865207a65726f2061646472657373600082015250565b6000613b7e6020836126f7565b9150613b8982613b48565b602082019050919050565b60006020820190508181036000830152613bad81613b71565b9050919050565b7f4552433732313a20746f6b656e20616c7265616479206d696e74656400000000600082015250565b6000613bea601c836126f7565b9150613bf582613bb4565b602082019050919050565b60006020820190508181036000830152613c1981613bdd565b9050919050565b7f4552433732313a207472616e7366657220746f206e6f6e20455243373231526560008201527f63656976657220696d706c656d656e7465720000000000000000000000000000602082015250565b6000613c7c6032836126f7565b9150613c8782613c20565b604082019050919050565b60006020820190508181036000830152613cab81613c6f565b9050919050565b7f4e487b7100000000000000000000000000000000000000000000000000000000600052601260045260246000fd5b6000613cec826127a7565b9150613cf7836127a7565b925082613d0757613d06613cb2565b5b828204905092915050565b6000613d1d826127a7565b9150613d28836127a7565b925082613d3857613d37613cb2565b5b828206905092915050565b600081519050919050565b600082825260208201905092915050565b6000613d6a82613d43565b613d748185613d4e565b9350613d84818560208601612708565b613d8d8161273b565b840191505092915050565b6000608082019050613dad600083018761283c565b613dba602083018661283c565b613dc760408301856128d2565b8181036060830152613dd98184613d5f565b905095945050505050565b600081519050613df38161265d565b92915050565b600060208284031215613e0f57613e0e612627565b5b6000613e1d84828501613de4565b91505092915050565b7f4e487b7100000000000000000000000000000000000000000000000000000000600052603160045260246000fdfea264697066735822122079f2c0b59f92c415124e6d4d17bda38328639ed2891cf78d6015eb5d379c9d9a64736f6c634300080d0033",
  "immutableReferences": {},
  "source": "// SPDX-License-Identifier: MIT\r\n//   MIT    .\r\n\r\npragma solidity 0.8.13;\r\n\r\nimport \"@openzeppelin/contracts/token/ERC721/extensions/ERC721Enumerable.sol\";\r\n\r\ncontract TicketNFT is ERC721Enumerable {\r\n    //      Purchase  \r\n    struct Purchase {\r\n        address buyer; //  \r\n        string concert; //  \r\n        string concertDate; //  \r\n        string concertTime; //  \r\n        uint256 purchaseTime; //  \r\n        string[] selectedSeats; //   \r\n        uint256 paymentAmount; //   \r\n    }\r\n\r\n    //  ID      \r\n    Purchase[] public purchases;\r\n\r\n    // ERC721Enumerable   TicketNFT  \r\n    constructor(\r\n        string memory name, //  \r\n        string memory symbol //  \r\n    ) ERC721(name, symbol) {} // ERC721Enumerable  \r\n\r\n    //   \r\n    function mint(\r\n        address _to, //    \r\n        string memory _concert, //  \r\n        string memory _concertDate, //  \r\n        string memory _concertTime, //  \r\n        string[] memory _selectedSeats, //   \r\n        uint256 _paymentAmount //  \r\n    ) external returns (uint256) {\r\n        //  ID  \r\n        uint256 tokenId = purchases.length; //    ID\r\n        _mint(_to, tokenId); // ERC721 mint    \r\n        //      \r\n        Purchase memory newPurchase = Purchase({\r\n            buyer: _to,\r\n            concert: _concert,\r\n            concertDate: _concertDate,\r\n            concertTime: _concertTime,\r\n            purchaseTime: block.timestamp,\r\n            selectedSeats: _selectedSeats,\r\n            paymentAmount: _paymentAmount\r\n        });\r\n        purchases.push(newPurchase);\r\n        return tokenId; //  ID \r\n    }\r\n\r\n    function getTicketInfo(\r\n        uint256 _tokenId\r\n    ) external view returns (Purchase memory) {\r\n        require(_tokenId < purchases.length, \"Ticket does not exist\");\r\n        return purchases[_tokenId];\r\n    }\r\n\r\n    function getOwnedTicketIds(address _owner) external view returns (uint256[] memory) {\r\n        uint256 balance = balanceOf(_owner);\r\n        uint256[] memory tokenIds = new uint256[](balance);\r\n        for (uint256 i = 0; i < balance; i++) {\r\n            tokenIds[i] = tokenOfOwnerByIndex(_owner, i);\r\n        }\r\n        return tokenIds;\r\n    }\r\n}",
  "sourcePath": "C:\\Users\\user\\Desktop\\project\\test\\movie\\client\\src\\contracts\\TicketNFT.sol",
  "compiler": {
    "name": "solc",
    "version": "0.8.13+commit.abaa5c0e.Emscripten.clang"
  },
  "schemaVersion": "3.4.16",
  "updatedAt": "2024-04-19T02:05:34.080Z",
  "networkType": "ethereum",
  "devdoc": {
    "kind": "dev",
    "methods": {
      "approve(address,uint256)": {
        "details": "See {IERC721-approve}."
      },
      "balanceOf(address)": {
        "details": "See {IERC721-balanceOf}."
      },
      "getApproved(uint256)": {
        "details": "See {IERC721-getApproved}."
      },
      "isApprovedForAll(address,address)": {
        "details": "See {IERC721-isApprovedForAll}."
      },
      "name()": {
        "details": "See {IERC721Metadata-name}."
      },
      "ownerOf(uint256)": {
        "details": "See {IERC721-ownerOf}."
      },
      "safeTransferFrom(address,address,uint256)": {
        "details": "See {IERC721-safeTransferFrom}."
      },
      "safeTransferFrom(address,address,uint256,bytes)": {
        "details": "See {IERC721-safeTransferFrom}."
      },
      "setApprovalForAll(address,bool)": {
        "details": "See {IERC721-setApprovalForAll}."
      },
      "supportsInterface(bytes4)": {
        "details": "See {IERC165-supportsInterface}."
      },
      "symbol()": {
        "details": "See {IERC721Metadata-symbol}."
      },
      "tokenByIndex(uint256)": {
        "details": "See {IERC721Enumerable-tokenByIndex}."
      },
      "tokenOfOwnerByIndex(address,uint256)": {
        "details": "See {IERC721Enumerable-tokenOfOwnerByIndex}."
      },
      "tokenURI(uint256)": {
        "details": "See {IERC721Metadata-tokenURI}."
      },
      "totalSupply()": {
        "details": "See {IERC721Enumerable-totalSupply}."
      },
      "transferFrom(address,address,uint256)": {
        "details": "See {IERC721-transferFrom}."
      }
    },
    "version": 1
  },
  "userdoc": {
    "kind": "user",
    "methods": {},
    "version": 1
  }
}