{
  "contractName": "TicketNFT",
  "abi": [
    {
      "inputs": [
        {
          "internalType": "string",
          "name": "name",
          "type": "string"
        },
        {
          "internalType": "string",
          "name": "symbol",
          "type": "string"
        }
      ],
      "stateMutability": "nonpayable",
      "type": "constructor"
    },
    {
      "anonymous": false,
      "inputs": [
        {
          "indexed": true,
          "internalType": "address",
          "name": "owner",
          "type": "address"
        },
        {
          "indexed": true,
          "internalType": "address",
          "name": "approved",
          "type": "address"
        },
        {
          "indexed": true,
          "internalType": "uint256",
          "name": "tokenId",
          "type": "uint256"
        }
      ],
      "name": "Approval",
      "type": "event"
    },
    {
      "anonymous": false,
      "inputs": [
        {
          "indexed": true,
          "internalType": "address",
          "name": "owner",
          "type": "address"
        },
        {
          "indexed": true,
          "internalType": "address",
          "name": "operator",
          "type": "address"
        },
        {
          "indexed": false,
          "internalType": "bool",
          "name": "approved",
          "type": "bool"
        }
      ],
      "name": "ApprovalForAll",
      "type": "event"
    },
    {
      "anonymous": false,
      "inputs": [
        {
          "indexed": true,
          "internalType": "address",
          "name": "from",
          "type": "address"
        },
        {
          "indexed": true,
          "internalType": "address",
          "name": "to",
          "type": "address"
        },
        {
          "indexed": true,
          "internalType": "uint256",
          "name": "tokenId",
          "type": "uint256"
        }
      ],
      "name": "Transfer",
      "type": "event"
    },
    {
      "inputs": [
        {
          "internalType": "address",
          "name": "to",
          "type": "address"
        },
        {
          "internalType": "uint256",
          "name": "tokenId",
          "type": "uint256"
        }
      ],
      "name": "approve",
      "outputs": [],
      "stateMutability": "nonpayable",
      "type": "function"
    },
    {
      "inputs": [
        {
          "internalType": "address",
          "name": "owner",
          "type": "address"
        }
      ],
      "name": "balanceOf",
      "outputs": [
        {
          "internalType": "uint256",
          "name": "",
          "type": "uint256"
        }
      ],
      "stateMutability": "view",
      "type": "function",
      "constant": true
    },
    {
      "inputs": [
        {
          "internalType": "uint256",
          "name": "tokenId",
          "type": "uint256"
        }
      ],
      "name": "getApproved",
      "outputs": [
        {
          "internalType": "address",
          "name": "",
          "type": "address"
        }
      ],
      "stateMutability": "view",
      "type": "function",
      "constant": true
    },
    {
      "inputs": [
        {
          "internalType": "address",
          "name": "owner",
          "type": "address"
        },
        {
          "internalType": "address",
          "name": "operator",
          "type": "address"
        }
      ],
      "name": "isApprovedForAll",
      "outputs": [
        {
          "internalType": "bool",
          "name": "",
          "type": "bool"
        }
      ],
      "stateMutability": "view",
      "type": "function",
      "constant": true
    },
    {
      "inputs": [],
      "name": "name",
      "outputs": [
        {
          "internalType": "string",
          "name": "",
          "type": "string"
        }
      ],
      "stateMutability": "view",
      "type": "function",
      "constant": true
    },
    {
      "inputs": [
        {
          "internalType": "uint256",
          "name": "tokenId",
          "type": "uint256"
        }
      ],
      "name": "ownerOf",
      "outputs": [
        {
          "internalType": "address",
          "name": "",
          "type": "address"
        }
      ],
      "stateMutability": "view",
      "type": "function",
      "constant": true
    },
    {
      "inputs": [
        {
          "internalType": "uint256",
          "name": "",
          "type": "uint256"
        }
      ],
      "name": "purchases",
      "outputs": [
        {
          "internalType": "address",
          "name": "buyer",
          "type": "address"
        },
        {
          "internalType": "string",
          "name": "concert",
          "type": "string"
        },
        {
          "internalType": "uint256",
          "name": "purchaseTime",
          "type": "uint256"
        },
        {
          "internalType": "uint256",
          "name": "paymentAmount",
          "type": "uint256"
        }
      ],
      "stateMutability": "view",
      "type": "function",
      "constant": true
    },
    {
      "inputs": [
        {
          "internalType": "address",
          "name": "from",
          "type": "address"
        },
        {
          "internalType": "address",
          "name": "to",
          "type": "address"
        },
        {
          "internalType": "uint256",
          "name": "tokenId",
          "type": "uint256"
        }
      ],
      "name": "safeTransferFrom",
      "outputs": [],
      "stateMutability": "nonpayable",
      "type": "function"
    },
    {
      "inputs": [
        {
          "internalType": "address",
          "name": "from",
          "type": "address"
        },
        {
          "internalType": "address",
          "name": "to",
          "type": "address"
        },
        {
          "internalType": "uint256",
          "name": "tokenId",
          "type": "uint256"
        },
        {
          "internalType": "bytes",
          "name": "_data",
          "type": "bytes"
        }
      ],
      "name": "safeTransferFrom",
      "outputs": [],
      "stateMutability": "nonpayable",
      "type": "function"
    },
    {
      "inputs": [
        {
          "internalType": "address",
          "name": "operator",
          "type": "address"
        },
        {
          "internalType": "bool",
          "name": "approved",
          "type": "bool"
        }
      ],
      "name": "setApprovalForAll",
      "outputs": [],
      "stateMutability": "nonpayable",
      "type": "function"
    },
    {
      "inputs": [
        {
          "internalType": "bytes4",
          "name": "interfaceId",
          "type": "bytes4"
        }
      ],
      "name": "supportsInterface",
      "outputs": [
        {
          "internalType": "bool",
          "name": "",
          "type": "bool"
        }
      ],
      "stateMutability": "view",
      "type": "function",
      "constant": true
    },
    {
      "inputs": [],
      "name": "symbol",
      "outputs": [
        {
          "internalType": "string",
          "name": "",
          "type": "string"
        }
      ],
      "stateMutability": "view",
      "type": "function",
      "constant": true
    },
    {
      "inputs": [
        {
          "internalType": "uint256",
          "name": "tokenId",
          "type": "uint256"
        }
      ],
      "name": "tokenURI",
      "outputs": [
        {
          "internalType": "string",
          "name": "",
          "type": "string"
        }
      ],
      "stateMutability": "view",
      "type": "function",
      "constant": true
    },
    {
      "inputs": [
        {
          "internalType": "address",
          "name": "from",
          "type": "address"
        },
        {
          "internalType": "address",
          "name": "to",
          "type": "address"
        },
        {
          "internalType": "uint256",
          "name": "tokenId",
          "type": "uint256"
        }
      ],
      "name": "transferFrom",
      "outputs": [],
      "stateMutability": "nonpayable",
      "type": "function"
    },
    {
      "inputs": [
        {
          "internalType": "address",
          "name": "_to",
          "type": "address"
        },
        {
          "internalType": "string",
          "name": "_concert",
          "type": "string"
        },
        {
          "internalType": "uint256",
          "name": "_tokenId",
          "type": "uint256"
        },
        {
          "internalType": "string[]",
          "name": "_selectedSeats",
          "type": "string[]"
        },
        {
          "internalType": "uint256",
          "name": "_paymentAmount",
          "type": "uint256"
        }
      ],
      "name": "mint",
      "outputs": [],
      "stateMutability": "nonpayable",
      "type": "function"
    },
    {
      "inputs": [
        {
          "internalType": "uint256",
          "name": "_tokenId",
          "type": "uint256"
        }
      ],
      "name": "getTicketInfo",
      "outputs": [
        {
          "components": [
            {
              "internalType": "address",
              "name": "buyer",
              "type": "address"
            },
            {
              "internalType": "string",
              "name": "concert",
              "type": "string"
            },
            {
              "internalType": "uint256",
              "name": "purchaseTime",
              "type": "uint256"
            },
            {
              "internalType": "string[]",
              "name": "selectedSeats",
              "type": "string[]"
            },
            {
              "internalType": "uint256",
              "name": "paymentAmount",
              "type": "uint256"
            }
          ],
          "internalType": "struct TicketNFT.Purchase",
          "name": "",
          "type": "tuple"
        }
      ],
      "stateMutability": "view",
      "type": "function",
      "constant": true
    }
  ],
  "bytecode": "0x60806040523480156200001157600080fd5b5060405162003498380380620034988339818101604052810190620000379190620002c2565b818181600090805190602001906200005192919062000075565b5080600190805190602001906200006a92919062000075565b5050505050620003ab565b828054620000839062000376565b90600052602060002090601f016020900481019282620000a75760008555620000f3565b82601f10620000c257805160ff1916838001178555620000f3565b82800160010185558215620000f3579182015b82811115620000f2578251825591602001919060010190620000d5565b5b50905062000102919062000106565b5090565b5b808211156200012157600081600090555060010162000107565b5090565b6000604051905090565b600080fd5b600080fd5b600080fd5b600080fd5b6000601f19601f8301169050919050565b7f4e487b7100000000000000000000000000000000000000000000000000000000600052604160045260246000fd5b6200018e8262000143565b810181811067ffffffffffffffff82111715620001b057620001af62000154565b5b80604052505050565b6000620001c562000125565b9050620001d3828262000183565b919050565b600067ffffffffffffffff821115620001f657620001f562000154565b5b620002018262000143565b9050602081019050919050565b60005b838110156200022e57808201518184015260208101905062000211565b838111156200023e576000848401525b50505050565b60006200025b6200025584620001d8565b620001b9565b9050828152602081018484840111156200027a57620002796200013e565b5b620002878482856200020e565b509392505050565b600082601f830112620002a757620002a662000139565b5b8151620002b984826020860162000244565b91505092915050565b60008060408385031215620002dc57620002db6200012f565b5b600083015167ffffffffffffffff811115620002fd57620002fc62000134565b5b6200030b858286016200028f565b925050602083015167ffffffffffffffff8111156200032f576200032e62000134565b5b6200033d858286016200028f565b9150509250929050565b7f4e487b7100000000000000000000000000000000000000000000000000000000600052602260045260246000fd5b600060028204905060018216806200038f57607f821691505b602082108103620003a557620003a462000347565b5b50919050565b6130dd80620003bb6000396000f3fe608060405234801561001057600080fd5b50600436106101005760003560e01c80638392fe3111610097578063c87b56dd11610066578063c87b56dd146102c0578063e985e9c5146102f0578063f031da8214610320578063ff99a0631461033c57610100565b80638392fe311461023757806395d89b411461026a578063a22cb46514610288578063b88d4fde146102a457610100565b806323b872dd116100d357806323b872dd1461019f57806342842e0e146101bb5780636352211e146101d757806370a082311461020757610100565b806301ffc9a71461010557806306fdde0314610135578063081812fc14610153578063095ea7b314610183575b600080fd5b61011f600480360381019061011a9190611c13565b61036c565b60405161012c9190611c5b565b60405180910390f35b61013d61044e565b60405161014a9190611d0f565b60405180910390f35b61016d60048036038101906101689190611d67565b6104e0565b60405161017a9190611dd5565b60405180910390f35b61019d60048036038101906101989190611e1c565b610565565b005b6101b960048036038101906101b49190611e5c565b61067c565b005b6101d560048036038101906101d09190611e5c565b6106dc565b005b6101f160048036038101906101ec9190611d67565b6106fc565b6040516101fe9190611dd5565b60405180910390f35b610221600480360381019061021c9190611eaf565b6107ad565b60405161022e9190611eeb565b60405180910390f35b610251600480360381019061024c9190611d67565b610864565b6040516102619493929190611f06565b60405180910390f35b61027261093c565b60405161027f9190611d0f565b60405180910390f35b6102a2600480360381019061029d9190611f7e565b6109ce565b005b6102be60048036038101906102b991906120f3565b610b4e565b005b6102da60048036038101906102d59190611d67565b610bb0565b6040516102e79190611d0f565b60405180910390f35b61030a60048036038101906103059190612176565b610c57565b6040516103179190611c5b565b60405180910390f35b61033a6004803603810190610335919061233d565b610ceb565b005b61035660048036038101906103519190611d67565b610dea565b6040516103639190612597565b60405180910390f35b60007f80ac58cd000000000000000000000000000000000000000000000000000000007bffffffffffffffffffffffffffffffffffffffffffffffffffffffff1916827bffffffffffffffffffffffffffffffffffffffffffffffffffffffff1916148061043757507f5b5e139f000000000000000000000000000000000000000000000000000000007bffffffffffffffffffffffffffffffffffffffffffffffffffffffff1916827bffffffffffffffffffffffffffffffffffffffffffffffffffffffff1916145b80610447575061044682610fec565b5b9050919050565b60606000805461045d906125e8565b80601f0160208091040260200160405190810160405280929190818152602001828054610489906125e8565b80156104d65780601f106104ab576101008083540402835291602001916104d6565b820191906000526020600020905b8154815290600101906020018083116104b957829003601f168201915b5050505050905090565b60006104eb82611056565b61052a576040517f08c379a00000000000000000000000000000000000000000000000000000000081526004016105219061268b565b60405180910390fd5b6004600083815260200190815260200160002060009054906101000a900473ffffffffffffffffffffffffffffffffffffffff169050919050565b6000610570826106fc565b90508073ffffffffffffffffffffffffffffffffffffffff168373ffffffffffffffffffffffffffffffffffffffff16036105e0576040517f08c379a00000000000000000000000000000000000000000000000000000000081526004016105d79061271d565b60405180910390fd5b8073ffffffffffffffffffffffffffffffffffffffff166105ff6110c2565b73ffffffffffffffffffffffffffffffffffffffff16148061062e575061062d816106286110c2565b610c57565b5b61066d576040517f08c379a0000000000000000000000000000000000000000000000000000000008152600401610664906127af565b60405180910390fd5b61067783836110ca565b505050565b61068d6106876110c2565b82611183565b6106cc576040517f08c379a00000000000000000000000000000000000000000000000000000000081526004016106c390612841565b60405180910390fd5b6106d7838383611261565b505050565b6106f783838360405180602001604052806000815250610b4e565b505050565b6000806002600084815260200190815260200160002060009054906101000a900473ffffffffffffffffffffffffffffffffffffffff169050600073ffffffffffffffffffffffffffffffffffffffff168173ffffffffffffffffffffffffffffffffffffffff16036107a4576040517f08c379a000000000000000000000000000000000000000000000000000000000815260040161079b906128d3565b60405180910390fd5b80915050919050565b60008073ffffffffffffffffffffffffffffffffffffffff168273ffffffffffffffffffffffffffffffffffffffff160361081d576040517f08c379a000000000000000000000000000000000000000000000000000000000815260040161081490612965565b60405180910390fd5b600360008373ffffffffffffffffffffffffffffffffffffffff1673ffffffffffffffffffffffffffffffffffffffff168152602001908152602001600020549050919050565b60066020528060005260406000206000915090508060000160009054906101000a900473ffffffffffffffffffffffffffffffffffffffff16908060010180546108ad906125e8565b80601f01602080910402602001604051908101604052809291908181526020018280546108d9906125e8565b80156109265780601f106108fb57610100808354040283529160200191610926565b820191906000526020600020905b81548152906001019060200180831161090957829003601f168201915b5050505050908060020154908060040154905084565b60606001805461094b906125e8565b80601f0160208091040260200160405190810160405280929190818152602001828054610977906125e8565b80156109c45780601f10610999576101008083540402835291602001916109c4565b820191906000526020600020905b8154815290600101906020018083116109a757829003601f168201915b5050505050905090565b6109d66110c2565b73ffffffffffffffffffffffffffffffffffffffff168273ffffffffffffffffffffffffffffffffffffffff1603610a43576040517f08c379a0000000000000000000000000000000000000000000000000000000008152600401610a3a906129d1565b60405180910390fd5b8060056000610a506110c2565b73ffffffffffffffffffffffffffffffffffffffff1673ffffffffffffffffffffffffffffffffffffffff16815260200190815260200160002060008473ffffffffffffffffffffffffffffffffffffffff1673ffffffffffffffffffffffffffffffffffffffff16815260200190815260200160002060006101000a81548160ff0219169083151502179055508173ffffffffffffffffffffffffffffffffffffffff16610afd6110c2565b73ffffffffffffffffffffffffffffffffffffffff167f17307eab39ab6107e8899845ad3d59bd9653f200f220920489ca2b5937696c3183604051610b429190611c5b565b60405180910390a35050565b610b5f610b596110c2565b83611183565b610b9e576040517f08c379a0000000000000000000000000000000000000000000000000000000008152600401610b9590612841565b60405180910390fd5b610baa848484846114bc565b50505050565b6060610bbb82611056565b610bfa576040517f08c379a0000000000000000000000000000000000000000000000000000000008152600401610bf190612a63565b60405180910390fd5b6000610c04611518565b90506000815111610c245760405180602001604052806000815250610c4f565b80610c2e8461152f565b604051602001610c3f929190612abf565b6040516020818303038152906040525b915050919050565b6000600560008473ffffffffffffffffffffffffffffffffffffffff1673ffffffffffffffffffffffffffffffffffffffff16815260200190815260200160002060008373ffffffffffffffffffffffffffffffffffffffff1673ffffffffffffffffffffffffffffffffffffffff16815260200190815260200160002060009054906101000a900460ff16905092915050565b610cf5858461168f565b60006040518060a001604052808773ffffffffffffffffffffffffffffffffffffffff168152602001868152602001428152602001848152602001838152509050806006600086815260200190815260200160002060008201518160000160006101000a81548173ffffffffffffffffffffffffffffffffffffffff021916908373ffffffffffffffffffffffffffffffffffffffff1602179055506020820151816001019080519060200190610dad9291906119fb565b50604082015181600201556060820151816003019080519060200190610dd4929190611a81565b5060808201518160040155905050505050505050565b610df2611ae1565b600660008381526020019081526020016000206040518060a00160405290816000820160009054906101000a900473ffffffffffffffffffffffffffffffffffffffff1673ffffffffffffffffffffffffffffffffffffffff1673ffffffffffffffffffffffffffffffffffffffff168152602001600182018054610e76906125e8565b80601f0160208091040260200160405190810160405280929190818152602001828054610ea2906125e8565b8015610eef5780601f10610ec457610100808354040283529160200191610eef565b820191906000526020600020905b815481529060010190602001808311610ed257829003601f168201915b505050505081526020016002820154815260200160038201805480602002602001604051908101604052809291908181526020016000905b82821015610fd3578382906000526020600020018054610f46906125e8565b80601f0160208091040260200160405190810160405280929190818152602001828054610f72906125e8565b8015610fbf5780601f10610f9457610100808354040283529160200191610fbf565b820191906000526020600020905b815481529060010190602001808311610fa257829003601f168201915b505050505081526020019060010190610f27565b5050505081526020016004820154815250509050919050565b60007f01ffc9a7000000000000000000000000000000000000000000000000000000007bffffffffffffffffffffffffffffffffffffffffffffffffffffffff1916827bffffffffffffffffffffffffffffffffffffffffffffffffffffffff1916149050919050565b60008073ffffffffffffffffffffffffffffffffffffffff166002600084815260200190815260200160002060009054906101000a900473ffffffffffffffffffffffffffffffffffffffff1673ffffffffffffffffffffffffffffffffffffffff1614159050919050565b600033905090565b816004600083815260200190815260200160002060006101000a81548173ffffffffffffffffffffffffffffffffffffffff021916908373ffffffffffffffffffffffffffffffffffffffff160217905550808273ffffffffffffffffffffffffffffffffffffffff1661113d836106fc565b73ffffffffffffffffffffffffffffffffffffffff167f8c5be1e5ebec7d5bd14f71427d1e84f3dd0314c0f7b2291e5b200ac8c7c3b92560405160405180910390a45050565b600061118e82611056565b6111cd576040517f08c379a00000000000000000000000000000000000000000000000000000000081526004016111c490612b55565b60405180910390fd5b60006111d8836106fc565b90508073ffffffffffffffffffffffffffffffffffffffff168473ffffffffffffffffffffffffffffffffffffffff16148061124757508373ffffffffffffffffffffffffffffffffffffffff1661122f846104e0565b73ffffffffffffffffffffffffffffffffffffffff16145b8061125857506112578185610c57565b5b91505092915050565b8273ffffffffffffffffffffffffffffffffffffffff16611281826106fc565b73ffffffffffffffffffffffffffffffffffffffff16146112d7576040517f08c379a00000000000000000000000000000000000000000000000000000000081526004016112ce90612be7565b60405180910390fd5b600073ffffffffffffffffffffffffffffffffffffffff168273ffffffffffffffffffffffffffffffffffffffff1603611346576040517f08c379a000000000000000000000000000000000000000000000000000000000815260040161133d90612c79565b60405180910390fd5b61135183838361185c565b61135c6000826110ca565b6001600360008573ffffffffffffffffffffffffffffffffffffffff1673ffffffffffffffffffffffffffffffffffffffff16815260200190815260200160002060008282546113ac9190612cc8565b925050819055506001600360008473ffffffffffffffffffffffffffffffffffffffff1673ffffffffffffffffffffffffffffffffffffffff16815260200190815260200160002060008282546114039190612cfc565b92505081905550816002600083815260200190815260200160002060006101000a81548173ffffffffffffffffffffffffffffffffffffffff021916908373ffffffffffffffffffffffffffffffffffffffff160217905550808273ffffffffffffffffffffffffffffffffffffffff168473ffffffffffffffffffffffffffffffffffffffff167fddf252ad1be2c89b69c2b068fc378daa952ba7f163c4a11628f55a4df523b3ef60405160405180910390a4505050565b6114c7848484611261565b6114d384848484611861565b611512576040517f08c379a000000000000000000000000000000000000000000000000000000000815260040161150990612dc4565b60405180910390fd5b50505050565b606060405180602001604052806000815250905090565b606060008203611576576040518060400160405280600181526020017f3000000000000000000000000000000000000000000000000000000000000000815250905061168a565b600082905060005b600082146115a857808061159190612de4565b915050600a826115a19190612e5b565b915061157e565b60008167ffffffffffffffff8111156115c4576115c3611fc8565b5b6040519080825280601f01601f1916602001820160405280156115f65781602001600182028036833780820191505090505b5090505b600085146116835760018261160f9190612cc8565b9150600a8561161e9190612e8c565b603061162a9190612cfc565b60f81b8183815181106116405761163f612ebd565b5b60200101907effffffffffffffffffffffffffffffffffffffffffffffffffffffffffffff1916908160001a905350600a8561167c9190612e5b565b94506115fa565b8093505050505b919050565b600073ffffffffffffffffffffffffffffffffffffffff168273ffffffffffffffffffffffffffffffffffffffff16036116fe576040517f08c379a00000000000000000000000000000000000000000000000000000000081526004016116f590612f38565b60405180910390fd5b61170781611056565b15611747576040517f08c379a000000000000000000000000000000000000000000000000000000000815260040161173e90612fa4565b60405180910390fd5b6117536000838361185c565b6001600360008473ffffffffffffffffffffffffffffffffffffffff1673ffffffffffffffffffffffffffffffffffffffff16815260200190815260200160002060008282546117a39190612cfc565b92505081905550816002600083815260200190815260200160002060006101000a81548173ffffffffffffffffffffffffffffffffffffffff021916908373ffffffffffffffffffffffffffffffffffffffff160217905550808273ffffffffffffffffffffffffffffffffffffffff16600073ffffffffffffffffffffffffffffffffffffffff167fddf252ad1be2c89b69c2b068fc378daa952ba7f163c4a11628f55a4df523b3ef60405160405180910390a45050565b505050565b60006118828473ffffffffffffffffffffffffffffffffffffffff166119e8565b156119db578373ffffffffffffffffffffffffffffffffffffffff1663150b7a026118ab6110c2565b8786866040518563ffffffff1660e01b81526004016118cd9493929190613019565b6020604051808303816000875af192505050801561190957506040513d601f19601f82011682018060405250810190611906919061307a565b60015b61198b573d8060008114611939576040519150601f19603f3d011682016040523d82523d6000602084013e61193e565b606091505b506000815103611983576040517f08c379a000000000000000000000000000000000000000000000000000000000815260040161197a90612dc4565b60405180910390fd5b805181602001fd5b63150b7a0260e01b7bffffffffffffffffffffffffffffffffffffffffffffffffffffffff1916817bffffffffffffffffffffffffffffffffffffffffffffffffffffffff1916149150506119e0565b600190505b949350505050565b600080823b905060008111915050919050565b828054611a07906125e8565b90600052602060002090601f016020900481019282611a295760008555611a70565b82601f10611a4257805160ff1916838001178555611a70565b82800160010185558215611a70579182015b82811115611a6f578251825591602001919060010190611a54565b5b509050611a7d9190611b26565b5090565b828054828255906000526020600020908101928215611ad0579160200282015b82811115611acf578251829080519060200190611abf9291906119fb565b5091602001919060010190611aa1565b5b509050611add9190611b43565b5090565b6040518060a00160405280600073ffffffffffffffffffffffffffffffffffffffff168152602001606081526020016000815260200160608152602001600081525090565b5b80821115611b3f576000816000905550600101611b27565b5090565b5b80821115611b635760008181611b5a9190611b67565b50600101611b44565b5090565b508054611b73906125e8565b6000825580601f10611b855750611ba4565b601f016020900490600052602060002090810190611ba39190611b26565b5b50565b6000604051905090565b600080fd5b600080fd5b60007fffffffff0000000000000000000000000000000000000000000000000000000082169050919050565b611bf081611bbb565b8114611bfb57600080fd5b50565b600081359050611c0d81611be7565b92915050565b600060208284031215611c2957611c28611bb1565b5b6000611c3784828501611bfe565b91505092915050565b60008115159050919050565b611c5581611c40565b82525050565b6000602082019050611c706000830184611c4c565b92915050565b600081519050919050565b600082825260208201905092915050565b60005b83811015611cb0578082015181840152602081019050611c95565b83811115611cbf576000848401525b50505050565b6000601f19601f8301169050919050565b6000611ce182611c76565b611ceb8185611c81565b9350611cfb818560208601611c92565b611d0481611cc5565b840191505092915050565b60006020820190508181036000830152611d298184611cd6565b905092915050565b6000819050919050565b611d4481611d31565b8114611d4f57600080fd5b50565b600081359050611d6181611d3b565b92915050565b600060208284031215611d7d57611d7c611bb1565b5b6000611d8b84828501611d52565b91505092915050565b600073ffffffffffffffffffffffffffffffffffffffff82169050919050565b6000611dbf82611d94565b9050919050565b611dcf81611db4565b82525050565b6000602082019050611dea6000830184611dc6565b92915050565b611df981611db4565b8114611e0457600080fd5b50565b600081359050611e1681611df0565b92915050565b60008060408385031215611e3357611e32611bb1565b5b6000611e4185828601611e07565b9250506020611e5285828601611d52565b9150509250929050565b600080600060608486031215611e7557611e74611bb1565b5b6000611e8386828701611e07565b9350506020611e9486828701611e07565b9250506040611ea586828701611d52565b9150509250925092565b600060208284031215611ec557611ec4611bb1565b5b6000611ed384828501611e07565b91505092915050565b611ee581611d31565b82525050565b6000602082019050611f006000830184611edc565b92915050565b6000608082019050611f1b6000830187611dc6565b8181036020830152611f2d8186611cd6565b9050611f3c6040830185611edc565b611f496060830184611edc565b95945050505050565b611f5b81611c40565b8114611f6657600080fd5b50565b600081359050611f7881611f52565b92915050565b60008060408385031215611f9557611f94611bb1565b5b6000611fa385828601611e07565b9250506020611fb485828601611f69565b9150509250929050565b600080fd5b600080fd5b7f4e487b7100000000000000000000000000000000000000000000000000000000600052604160045260246000fd5b61200082611cc5565b810181811067ffffffffffffffff8211171561201f5761201e611fc8565b5b80604052505050565b6000612032611ba7565b905061203e8282611ff7565b919050565b600067ffffffffffffffff82111561205e5761205d611fc8565b5b61206782611cc5565b9050602081019050919050565b82818337600083830152505050565b600061209661209184612043565b612028565b9050828152602081018484840111156120b2576120b1611fc3565b5b6120bd848285612074565b509392505050565b600082601f8301126120da576120d9611fbe565b5b81356120ea848260208601612083565b91505092915050565b6000806000806080858703121561210d5761210c611bb1565b5b600061211b87828801611e07565b945050602061212c87828801611e07565b935050604061213d87828801611d52565b925050606085013567ffffffffffffffff81111561215e5761215d611bb6565b5b61216a878288016120c5565b91505092959194509250565b6000806040838503121561218d5761218c611bb1565b5b600061219b85828601611e07565b92505060206121ac85828601611e07565b9150509250929050565b600067ffffffffffffffff8211156121d1576121d0611fc8565b5b6121da82611cc5565b9050602081019050919050565b60006121fa6121f5846121b6565b612028565b90508281526020810184848401111561221657612215611fc3565b5b612221848285612074565b509392505050565b600082601f83011261223e5761223d611fbe565b5b813561224e8482602086016121e7565b91505092915050565b600067ffffffffffffffff82111561227257612271611fc8565b5b602082029050602081019050919050565b600080fd5b600061229b61229684612257565b612028565b905080838252602082019050602084028301858111156122be576122bd612283565b5b835b8181101561230557803567ffffffffffffffff8111156122e3576122e2611fbe565b5b8086016122f08982612229565b855260208501945050506020810190506122c0565b5050509392505050565b600082601f83011261232457612323611fbe565b5b8135612334848260208601612288565b91505092915050565b600080600080600060a0868803121561235957612358611bb1565b5b600061236788828901611e07565b955050602086013567ffffffffffffffff81111561238857612387611bb6565b5b61239488828901612229565b94505060406123a588828901611d52565b935050606086013567ffffffffffffffff8111156123c6576123c5611bb6565b5b6123d28882890161230f565b92505060806123e388828901611d52565b9150509295509295909350565b6123f981611db4565b82525050565b600082825260208201905092915050565b600061241b82611c76565b61242581856123ff565b9350612435818560208601611c92565b61243e81611cc5565b840191505092915050565b61245281611d31565b82525050565b600081519050919050565b600082825260208201905092915050565b6000819050602082019050919050565b60006124908383612410565b905092915050565b6000602082019050919050565b60006124b082612458565b6124ba8185612463565b9350836020820285016124cc85612474565b8060005b8581101561250857848403895281516124e98582612484565b94506124f483612498565b925060208a019950506001810190506124d0565b50829750879550505050505092915050565b600060a08301600083015161253260008601826123f0565b506020830151848203602086015261254a8282612410565b915050604083015161255f6040860182612449565b506060830151848203606086015261257782826124a5565b915050608083015161258c6080860182612449565b508091505092915050565b600060208201905081810360008301526125b1818461251a565b905092915050565b7f4e487b7100000000000000000000000000000000000000000000000000000000600052602260045260246000fd5b6000600282049050600182168061260057607f821691505b602082108103612613576126126125b9565b5b50919050565b7f4552433732313a20617070726f76656420717565727920666f72206e6f6e657860008201527f697374656e7420746f6b656e0000000000000000000000000000000000000000602082015250565b6000612675602c83611c81565b915061268082612619565b604082019050919050565b600060208201905081810360008301526126a481612668565b9050919050565b7f4552433732313a20617070726f76616c20746f2063757272656e74206f776e6560008201527f7200000000000000000000000000000000000000000000000000000000000000602082015250565b6000612707602183611c81565b9150612712826126ab565b604082019050919050565b60006020820190508181036000830152612736816126fa565b9050919050565b7f4552433732313a20617070726f76652063616c6c6572206973206e6f74206f7760008201527f6e6572206e6f7220617070726f76656420666f7220616c6c0000000000000000602082015250565b6000612799603883611c81565b91506127a48261273d565b604082019050919050565b600060208201905081810360008301526127c88161278c565b9050919050565b7f4552433732313a207472616e736665722063616c6c6572206973206e6f74206f60008201527f776e6572206e6f7220617070726f766564000000000000000000000000000000602082015250565b600061282b603183611c81565b9150612836826127cf565b604082019050919050565b6000602082019050818103600083015261285a8161281e565b9050919050565b7f4552433732313a206f776e657220717565727920666f72206e6f6e657869737460008201527f656e7420746f6b656e0000000000000000000000000000000000000000000000602082015250565b60006128bd602983611c81565b91506128c882612861565b604082019050919050565b600060208201905081810360008301526128ec816128b0565b9050919050565b7f4552433732313a2062616c616e636520717565727920666f7220746865207a6560008201527f726f206164647265737300000000000000000000000000000000000000000000602082015250565b600061294f602a83611c81565b915061295a826128f3565b604082019050919050565b6000602082019050818103600083015261297e81612942565b9050919050565b7f4552433732313a20617070726f766520746f2063616c6c657200000000000000600082015250565b60006129bb601983611c81565b91506129c682612985565b602082019050919050565b600060208201905081810360008301526129ea816129ae565b9050919050565b7f4552433732314d657461646174613a2055524920717565727920666f72206e6f60008201527f6e6578697374656e7420746f6b656e0000000000000000000000000000000000602082015250565b6000612a4d602f83611c81565b9150612a58826129f1565b604082019050919050565b60006020820190508181036000830152612a7c81612a40565b9050919050565b600081905092915050565b6000612a9982611c76565b612aa38185612a83565b9350612ab3818560208601611c92565b80840191505092915050565b6000612acb8285612a8e565b9150612ad78284612a8e565b91508190509392505050565b7f4552433732313a206f70657261746f7220717565727920666f72206e6f6e657860008201527f697374656e7420746f6b656e0000000000000000000000000000000000000000602082015250565b6000612b3f602c83611c81565b9150612b4a82612ae3565b604082019050919050565b60006020820190508181036000830152612b6e81612b32565b9050919050565b7f4552433732313a207472616e73666572206f6620746f6b656e2074686174206960008201527f73206e6f74206f776e0000000000000000000000000000000000000000000000602082015250565b6000612bd1602983611c81565b9150612bdc82612b75565b604082019050919050565b60006020820190508181036000830152612c0081612bc4565b9050919050565b7f4552433732313a207472616e7366657220746f20746865207a65726f2061646460008201527f7265737300000000000000000000000000000000000000000000000000000000602082015250565b6000612c63602483611c81565b9150612c6e82612c07565b604082019050919050565b60006020820190508181036000830152612c9281612c56565b9050919050565b7f4e487b7100000000000000000000000000000000000000000000000000000000600052601160045260246000fd5b6000612cd382611d31565b9150612cde83611d31565b925082821015612cf157612cf0612c99565b5b828203905092915050565b6000612d0782611d31565b9150612d1283611d31565b9250827fffffffffffffffffffffffffffffffffffffffffffffffffffffffffffffffff03821115612d4757612d46612c99565b5b828201905092915050565b7f4552433732313a207472616e7366657220746f206e6f6e20455243373231526560008201527f63656976657220696d706c656d656e7465720000000000000000000000000000602082015250565b6000612dae603283611c81565b9150612db982612d52565b604082019050919050565b60006020820190508181036000830152612ddd81612da1565b9050919050565b6000612def82611d31565b91507fffffffffffffffffffffffffffffffffffffffffffffffffffffffffffffffff8203612e2157612e20612c99565b5b600182019050919050565b7f4e487b7100000000000000000000000000000000000000000000000000000000600052601260045260246000fd5b6000612e6682611d31565b9150612e7183611d31565b925082612e8157612e80612e2c565b5b828204905092915050565b6000612e9782611d31565b9150612ea283611d31565b925082612eb257612eb1612e2c565b5b828206905092915050565b7f4e487b7100000000000000000000000000000000000000000000000000000000600052603260045260246000fd5b7f4552433732313a206d696e7420746f20746865207a65726f2061646472657373600082015250565b6000612f22602083611c81565b9150612f2d82612eec565b602082019050919050565b60006020820190508181036000830152612f5181612f15565b9050919050565b7f4552433732313a20746f6b656e20616c7265616479206d696e74656400000000600082015250565b6000612f8e601c83611c81565b9150612f9982612f58565b602082019050919050565b60006020820190508181036000830152612fbd81612f81565b9050919050565b600081519050919050565b600082825260208201905092915050565b6000612feb82612fc4565b612ff58185612fcf565b9350613005818560208601611c92565b61300e81611cc5565b840191505092915050565b600060808201905061302e6000830187611dc6565b61303b6020830186611dc6565b6130486040830185611edc565b818103606083015261305a8184612fe0565b905095945050505050565b60008151905061307481611be7565b92915050565b6000602082840312156130905761308f611bb1565b5b600061309e84828501613065565b9150509291505056fea2646970667358221220ad8452b52bd499972569bade2c7cbd1cc71a5c7cfb56f7b82e01803e18feacc664736f6c634300080d0033",
  "immutableReferences": {},
  "source": "// SPDX-License-Identifier: MIT\r\n//   MIT    .\r\n\r\npragma solidity 0.8.13;\r\n\r\nimport \"@openzeppelin/contracts/token/ERC721/ERC721.sol\";\r\n\r\ncontract TicketNFT is ERC721 {\r\n    //      Purchase  \r\n    struct Purchase {\r\n        address buyer; //  \r\n        string concert; //  \r\n        uint256 purchaseTime; //  \r\n        string[] selectedSeats; //   \r\n        uint256 paymentAmount; //  \r\n    }\r\n\r\n    //     ID   \r\n    mapping(uint256 => Purchase) public purchases;\r\n\r\n    // ERC721   TicketNFT  \r\n    constructor(\r\n        string memory name, //  \r\n        string memory symbol //  \r\n    ) ERC721(name, symbol) {} // ERC721  \r\n\r\n    //   \r\n    function mint(\r\n        address _to, //    \r\n        string memory _concert, //  \r\n        uint256 _tokenId, //    ID\r\n        string[] memory _selectedSeats, //   \r\n        uint256 _paymentAmount //  \r\n    ) external {\r\n        _mint(_to, _tokenId); // ERC721 mint    \r\n        //      \r\n        Purchase memory newPurchase = Purchase({\r\n            buyer: _to,\r\n            concert: _concert,\r\n            purchaseTime: block.timestamp,\r\n            selectedSeats: _selectedSeats,\r\n            paymentAmount: _paymentAmount\r\n        });\r\n        purchases[_tokenId] = newPurchase;\r\n    }\r\n\r\n    function getTicketInfo(\r\n        uint256 _tokenId\r\n    ) external view returns (Purchase memory) {\r\n        return purchases[_tokenId];\r\n    }\r\n}\r\n",
  "sourcePath": "C:\\Users\\user\\Desktop\\project\\test\\movie\\client\\src\\contracts\\TicketNFT.sol",
  "compiler": {
    "name": "solc",
    "version": "0.8.13+commit.abaa5c0e.Emscripten.clang"
  },
  "schemaVersion": "3.4.16",
  "updatedAt": "2024-04-15T07:28:14.909Z",
  "networkType": "ethereum",
  "devdoc": {
    "kind": "dev",
    "methods": {
      "approve(address,uint256)": {
        "details": "See {IERC721-approve}."
      },
      "balanceOf(address)": {
        "details": "See {IERC721-balanceOf}."
      },
      "getApproved(uint256)": {
        "details": "See {IERC721-getApproved}."
      },
      "isApprovedForAll(address,address)": {
        "details": "See {IERC721-isApprovedForAll}."
      },
      "name()": {
        "details": "See {IERC721Metadata-name}."
      },
      "ownerOf(uint256)": {
        "details": "See {IERC721-ownerOf}."
      },
      "safeTransferFrom(address,address,uint256)": {
        "details": "See {IERC721-safeTransferFrom}."
      },
      "safeTransferFrom(address,address,uint256,bytes)": {
        "details": "See {IERC721-safeTransferFrom}."
      },
      "setApprovalForAll(address,bool)": {
        "details": "See {IERC721-setApprovalForAll}."
      },
      "supportsInterface(bytes4)": {
        "details": "See {IERC165-supportsInterface}."
      },
      "symbol()": {
        "details": "See {IERC721Metadata-symbol}."
      },
      "tokenURI(uint256)": {
        "details": "See {IERC721Metadata-tokenURI}."
      },
      "transferFrom(address,address,uint256)": {
        "details": "See {IERC721-transferFrom}."
      }
    },
    "version": 1
  },
  "userdoc": {
    "kind": "user",
    "methods": {},
    "version": 1
  }
}