{
  "contractName": "TicketNFT",
  "abi": [
    {
      "inputs": [
        {
          "internalType": "string",
          "name": "name",
          "type": "string"
        },
        {
          "internalType": "string",
          "name": "symbol",
          "type": "string"
        }
      ],
      "stateMutability": "nonpayable",
      "type": "constructor"
    },
    {
      "anonymous": false,
      "inputs": [
        {
          "indexed": true,
          "internalType": "address",
          "name": "owner",
          "type": "address"
        },
        {
          "indexed": true,
          "internalType": "address",
          "name": "approved",
          "type": "address"
        },
        {
          "indexed": true,
          "internalType": "uint256",
          "name": "tokenId",
          "type": "uint256"
        }
      ],
      "name": "Approval",
      "type": "event"
    },
    {
      "anonymous": false,
      "inputs": [
        {
          "indexed": true,
          "internalType": "address",
          "name": "owner",
          "type": "address"
        },
        {
          "indexed": true,
          "internalType": "address",
          "name": "operator",
          "type": "address"
        },
        {
          "indexed": false,
          "internalType": "bool",
          "name": "approved",
          "type": "bool"
        }
      ],
      "name": "ApprovalForAll",
      "type": "event"
    },
    {
      "anonymous": false,
      "inputs": [
        {
          "indexed": true,
          "internalType": "address",
          "name": "from",
          "type": "address"
        },
        {
          "indexed": true,
          "internalType": "address",
          "name": "to",
          "type": "address"
        },
        {
          "indexed": true,
          "internalType": "uint256",
          "name": "tokenId",
          "type": "uint256"
        }
      ],
      "name": "Transfer",
      "type": "event"
    },
    {
      "inputs": [
        {
          "internalType": "address",
          "name": "to",
          "type": "address"
        },
        {
          "internalType": "uint256",
          "name": "tokenId",
          "type": "uint256"
        }
      ],
      "name": "approve",
      "outputs": [],
      "stateMutability": "nonpayable",
      "type": "function"
    },
    {
      "inputs": [
        {
          "internalType": "address",
          "name": "owner",
          "type": "address"
        }
      ],
      "name": "balanceOf",
      "outputs": [
        {
          "internalType": "uint256",
          "name": "",
          "type": "uint256"
        }
      ],
      "stateMutability": "view",
      "type": "function",
      "constant": true
    },
    {
      "inputs": [
        {
          "internalType": "uint256",
          "name": "tokenId",
          "type": "uint256"
        }
      ],
      "name": "getApproved",
      "outputs": [
        {
          "internalType": "address",
          "name": "",
          "type": "address"
        }
      ],
      "stateMutability": "view",
      "type": "function",
      "constant": true
    },
    {
      "inputs": [
        {
          "internalType": "address",
          "name": "owner",
          "type": "address"
        },
        {
          "internalType": "address",
          "name": "operator",
          "type": "address"
        }
      ],
      "name": "isApprovedForAll",
      "outputs": [
        {
          "internalType": "bool",
          "name": "",
          "type": "bool"
        }
      ],
      "stateMutability": "view",
      "type": "function",
      "constant": true
    },
    {
      "inputs": [],
      "name": "name",
      "outputs": [
        {
          "internalType": "string",
          "name": "",
          "type": "string"
        }
      ],
      "stateMutability": "view",
      "type": "function",
      "constant": true
    },
    {
      "inputs": [
        {
          "internalType": "uint256",
          "name": "tokenId",
          "type": "uint256"
        }
      ],
      "name": "ownerOf",
      "outputs": [
        {
          "internalType": "address",
          "name": "",
          "type": "address"
        }
      ],
      "stateMutability": "view",
      "type": "function",
      "constant": true
    },
    {
      "inputs": [
        {
          "internalType": "uint256",
          "name": "",
          "type": "uint256"
        }
      ],
      "name": "purchases",
      "outputs": [
        {
          "internalType": "address",
          "name": "buyer",
          "type": "address"
        },
        {
          "internalType": "string",
          "name": "concert",
          "type": "string"
        },
        {
          "internalType": "uint256",
          "name": "purchaseTime",
          "type": "uint256"
        },
        {
          "internalType": "uint256",
          "name": "paymentAmount",
          "type": "uint256"
        }
      ],
      "stateMutability": "view",
      "type": "function",
      "constant": true
    },
    {
      "inputs": [
        {
          "internalType": "address",
          "name": "from",
          "type": "address"
        },
        {
          "internalType": "address",
          "name": "to",
          "type": "address"
        },
        {
          "internalType": "uint256",
          "name": "tokenId",
          "type": "uint256"
        }
      ],
      "name": "safeTransferFrom",
      "outputs": [],
      "stateMutability": "nonpayable",
      "type": "function"
    },
    {
      "inputs": [
        {
          "internalType": "address",
          "name": "from",
          "type": "address"
        },
        {
          "internalType": "address",
          "name": "to",
          "type": "address"
        },
        {
          "internalType": "uint256",
          "name": "tokenId",
          "type": "uint256"
        },
        {
          "internalType": "bytes",
          "name": "_data",
          "type": "bytes"
        }
      ],
      "name": "safeTransferFrom",
      "outputs": [],
      "stateMutability": "nonpayable",
      "type": "function"
    },
    {
      "inputs": [
        {
          "internalType": "address",
          "name": "operator",
          "type": "address"
        },
        {
          "internalType": "bool",
          "name": "approved",
          "type": "bool"
        }
      ],
      "name": "setApprovalForAll",
      "outputs": [],
      "stateMutability": "nonpayable",
      "type": "function"
    },
    {
      "inputs": [
        {
          "internalType": "bytes4",
          "name": "interfaceId",
          "type": "bytes4"
        }
      ],
      "name": "supportsInterface",
      "outputs": [
        {
          "internalType": "bool",
          "name": "",
          "type": "bool"
        }
      ],
      "stateMutability": "view",
      "type": "function",
      "constant": true
    },
    {
      "inputs": [],
      "name": "symbol",
      "outputs": [
        {
          "internalType": "string",
          "name": "",
          "type": "string"
        }
      ],
      "stateMutability": "view",
      "type": "function",
      "constant": true
    },
    {
      "inputs": [
        {
          "internalType": "uint256",
          "name": "index",
          "type": "uint256"
        }
      ],
      "name": "tokenByIndex",
      "outputs": [
        {
          "internalType": "uint256",
          "name": "",
          "type": "uint256"
        }
      ],
      "stateMutability": "view",
      "type": "function",
      "constant": true
    },
    {
      "inputs": [
        {
          "internalType": "address",
          "name": "owner",
          "type": "address"
        },
        {
          "internalType": "uint256",
          "name": "index",
          "type": "uint256"
        }
      ],
      "name": "tokenOfOwnerByIndex",
      "outputs": [
        {
          "internalType": "uint256",
          "name": "",
          "type": "uint256"
        }
      ],
      "stateMutability": "view",
      "type": "function",
      "constant": true
    },
    {
      "inputs": [
        {
          "internalType": "uint256",
          "name": "tokenId",
          "type": "uint256"
        }
      ],
      "name": "tokenURI",
      "outputs": [
        {
          "internalType": "string",
          "name": "",
          "type": "string"
        }
      ],
      "stateMutability": "view",
      "type": "function",
      "constant": true
    },
    {
      "inputs": [],
      "name": "totalSupply",
      "outputs": [
        {
          "internalType": "uint256",
          "name": "",
          "type": "uint256"
        }
      ],
      "stateMutability": "view",
      "type": "function",
      "constant": true
    },
    {
      "inputs": [
        {
          "internalType": "address",
          "name": "from",
          "type": "address"
        },
        {
          "internalType": "address",
          "name": "to",
          "type": "address"
        },
        {
          "internalType": "uint256",
          "name": "tokenId",
          "type": "uint256"
        }
      ],
      "name": "transferFrom",
      "outputs": [],
      "stateMutability": "nonpayable",
      "type": "function"
    },
    {
      "inputs": [
        {
          "internalType": "address",
          "name": "_to",
          "type": "address"
        },
        {
          "internalType": "string",
          "name": "_concert",
          "type": "string"
        },
        {
          "internalType": "string[]",
          "name": "_selectedSeats",
          "type": "string[]"
        },
        {
          "internalType": "uint256",
          "name": "_paymentAmount",
          "type": "uint256"
        }
      ],
      "name": "mint",
      "outputs": [
        {
          "internalType": "uint256",
          "name": "",
          "type": "uint256"
        }
      ],
      "stateMutability": "nonpayable",
      "type": "function"
    },
    {
      "inputs": [
        {
          "internalType": "uint256",
          "name": "_tokenId",
          "type": "uint256"
        }
      ],
      "name": "getTicketInfo",
      "outputs": [
        {
          "components": [
            {
              "internalType": "address",
              "name": "buyer",
              "type": "address"
            },
            {
              "internalType": "string",
              "name": "concert",
              "type": "string"
            },
            {
              "internalType": "uint256",
              "name": "purchaseTime",
              "type": "uint256"
            },
            {
              "internalType": "string[]",
              "name": "selectedSeats",
              "type": "string[]"
            },
            {
              "internalType": "uint256",
              "name": "paymentAmount",
              "type": "uint256"
            }
          ],
          "internalType": "struct TicketNFT.Purchase",
          "name": "",
          "type": "tuple"
        }
      ],
      "stateMutability": "view",
      "type": "function",
      "constant": true
    },
    {
      "inputs": [
        {
          "internalType": "address",
          "name": "_owner",
          "type": "address"
        }
      ],
      "name": "getOwnedTicketIds",
      "outputs": [
        {
          "internalType": "uint256[]",
          "name": "",
          "type": "uint256[]"
        }
      ],
      "stateMutability": "view",
      "type": "function",
      "constant": true
    }
  ],
  "bytecode": "0x60806040523480156200001157600080fd5b5060405162003ef238038062003ef28339818101604052810190620000379190620002c2565b818181600090805190602001906200005192919062000075565b5080600190805190602001906200006a92919062000075565b5050505050620003ab565b828054620000839062000376565b90600052602060002090601f016020900481019282620000a75760008555620000f3565b82601f10620000c257805160ff1916838001178555620000f3565b82800160010185558215620000f3579182015b82811115620000f2578251825591602001919060010190620000d5565b5b50905062000102919062000106565b5090565b5b808211156200012157600081600090555060010162000107565b5090565b6000604051905090565b600080fd5b600080fd5b600080fd5b600080fd5b6000601f19601f8301169050919050565b7f4e487b7100000000000000000000000000000000000000000000000000000000600052604160045260246000fd5b6200018e8262000143565b810181811067ffffffffffffffff82111715620001b057620001af62000154565b5b80604052505050565b6000620001c562000125565b9050620001d3828262000183565b919050565b600067ffffffffffffffff821115620001f657620001f562000154565b5b620002018262000143565b9050602081019050919050565b60005b838110156200022e57808201518184015260208101905062000211565b838111156200023e576000848401525b50505050565b60006200025b6200025584620001d8565b620001b9565b9050828152602081018484840111156200027a57620002796200013e565b5b620002878482856200020e565b509392505050565b600082601f830112620002a757620002a662000139565b5b8151620002b984826020860162000244565b91505092915050565b60008060408385031215620002dc57620002db6200012f565b5b600083015167ffffffffffffffff811115620002fd57620002fc62000134565b5b6200030b858286016200028f565b925050602083015167ffffffffffffffff8111156200032f576200032e62000134565b5b6200033d858286016200028f565b9150509250929050565b7f4e487b7100000000000000000000000000000000000000000000000000000000600052602260045260246000fd5b600060028204905060018216806200038f57607f821691505b602082108103620003a557620003a462000347565b5b50919050565b613b3780620003bb6000396000f3fe608060405234801561001057600080fd5b506004361061012c5760003560e01c806370a08231116100ad578063b88d4fde11610071578063b88d4fde1461037e578063c87b56dd1461039a578063e985e9c5146103ca578063f5ebd938146103fa578063ff99a0631461042a5761012c565b806370a08231146102b15780638392fe31146102e157806395d89b4114610314578063a22cb46514610332578063a4bfd0cc1461034e5761012c565b806323b872dd116100f457806323b872dd146101e95780632f745c591461020557806342842e0e146102355780634f6ccce7146102515780636352211e146102815761012c565b806301ffc9a71461013157806306fdde0314610161578063081812fc1461017f578063095ea7b3146101af57806318160ddd146101cb575b600080fd5b61014b600480360381019061014691906123f1565b61045a565b6040516101589190612439565b60405180910390f35b6101696104d4565b60405161017691906124ed565b60405180910390f35b61019960048036038101906101949190612545565b610566565b6040516101a691906125b3565b60405180910390f35b6101c960048036038101906101c491906125fa565b6105eb565b005b6101d3610702565b6040516101e09190612649565b60405180910390f35b61020360048036038101906101fe9190612664565b61070f565b005b61021f600480360381019061021a91906125fa565b61076f565b60405161022c9190612649565b60405180910390f35b61024f600480360381019061024a9190612664565b610814565b005b61026b60048036038101906102669190612545565b610834565b6040516102789190612649565b60405180910390f35b61029b60048036038101906102969190612545565b6108a5565b6040516102a891906125b3565b60405180910390f35b6102cb60048036038101906102c691906126b7565b610956565b6040516102d89190612649565b60405180910390f35b6102fb60048036038101906102f69190612545565b610a0d565b60405161030b94939291906126e4565b60405180910390f35b61031c610af5565b60405161032991906124ed565b60405180910390f35b61034c6004803603810190610347919061275c565b610b87565b005b610368600480360381019061036391906126b7565b610d07565b604051610375919061285a565b60405180910390f35b610398600480360381019061039391906129b1565b610db5565b005b6103b460048036038101906103af9190612545565b610e17565b6040516103c191906124ed565b60405180910390f35b6103e460048036038101906103df9190612a34565b610ebe565b6040516103f19190612439565b60405180910390f35b610414600480360381019061040f9190612bfb565b610f52565b6040516104219190612649565b60405180910390f35b610444600480360381019061043f9190612545565b611078565b6040516104519190612e32565b60405180910390f35b60007f780e9d63000000000000000000000000000000000000000000000000000000007bffffffffffffffffffffffffffffffffffffffffffffffffffffffff1916827bffffffffffffffffffffffffffffffffffffffffffffffffffffffff191614806104cd57506104cc826112d0565b5b9050919050565b6060600080546104e390612e83565b80601f016020809104026020016040519081016040528092919081815260200182805461050f90612e83565b801561055c5780601f106105315761010080835404028352916020019161055c565b820191906000526020600020905b81548152906001019060200180831161053f57829003601f168201915b5050505050905090565b6000610571826113b2565b6105b0576040517f08c379a00000000000000000000000000000000000000000000000000000000081526004016105a790612f26565b60405180910390fd5b6004600083815260200190815260200160002060009054906101000a900473ffffffffffffffffffffffffffffffffffffffff169050919050565b60006105f6826108a5565b90508073ffffffffffffffffffffffffffffffffffffffff168373ffffffffffffffffffffffffffffffffffffffff1603610666576040517f08c379a000000000000000000000000000000000000000000000000000000000815260040161065d90612fb8565b60405180910390fd5b8073ffffffffffffffffffffffffffffffffffffffff1661068561141e565b73ffffffffffffffffffffffffffffffffffffffff1614806106b457506106b3816106ae61141e565b610ebe565b5b6106f3576040517f08c379a00000000000000000000000000000000000000000000000000000000081526004016106ea9061304a565b60405180910390fd5b6106fd8383611426565b505050565b6000600880549050905090565b61072061071a61141e565b826114df565b61075f576040517f08c379a0000000000000000000000000000000000000000000000000000000008152600401610756906130dc565b60405180910390fd5b61076a8383836115bd565b505050565b600061077a83610956565b82106107bb576040517f08c379a00000000000000000000000000000000000000000000000000000000081526004016107b29061316e565b60405180910390fd5b600660008473ffffffffffffffffffffffffffffffffffffffff1673ffffffffffffffffffffffffffffffffffffffff168152602001908152602001600020600083815260200190815260200160002054905092915050565b61082f83838360405180602001604052806000815250610db5565b505050565b600061083e610702565b821061087f576040517f08c379a000000000000000000000000000000000000000000000000000000000815260040161087690613200565b60405180910390fd5b6008828154811061089357610892613220565b5b90600052602060002001549050919050565b6000806002600084815260200190815260200160002060009054906101000a900473ffffffffffffffffffffffffffffffffffffffff169050600073ffffffffffffffffffffffffffffffffffffffff168173ffffffffffffffffffffffffffffffffffffffff160361094d576040517f08c379a0000000000000000000000000000000000000000000000000000000008152600401610944906132c1565b60405180910390fd5b80915050919050565b60008073ffffffffffffffffffffffffffffffffffffffff168273ffffffffffffffffffffffffffffffffffffffff16036109c6576040517f08c379a00000000000000000000000000000000000000000000000000000000081526004016109bd90613353565b60405180910390fd5b600360008373ffffffffffffffffffffffffffffffffffffffff1673ffffffffffffffffffffffffffffffffffffffff168152602001908152602001600020549050919050565b600a8181548110610a1d57600080fd5b90600052602060002090600502016000915090508060000160009054906101000a900473ffffffffffffffffffffffffffffffffffffffff1690806001018054610a6690612e83565b80601f0160208091040260200160405190810160405280929190818152602001828054610a9290612e83565b8015610adf5780601f10610ab457610100808354040283529160200191610adf565b820191906000526020600020905b815481529060010190602001808311610ac257829003601f168201915b5050505050908060020154908060040154905084565b606060018054610b0490612e83565b80601f0160208091040260200160405190810160405280929190818152602001828054610b3090612e83565b8015610b7d5780601f10610b5257610100808354040283529160200191610b7d565b820191906000526020600020905b815481529060010190602001808311610b6057829003601f168201915b5050505050905090565b610b8f61141e565b73ffffffffffffffffffffffffffffffffffffffff168273ffffffffffffffffffffffffffffffffffffffff1603610bfc576040517f08c379a0000000000000000000000000000000000000000000000000000000008152600401610bf3906133bf565b60405180910390fd5b8060056000610c0961141e565b73ffffffffffffffffffffffffffffffffffffffff1673ffffffffffffffffffffffffffffffffffffffff16815260200190815260200160002060008473ffffffffffffffffffffffffffffffffffffffff1673ffffffffffffffffffffffffffffffffffffffff16815260200190815260200160002060006101000a81548160ff0219169083151502179055508173ffffffffffffffffffffffffffffffffffffffff16610cb661141e565b73ffffffffffffffffffffffffffffffffffffffff167f17307eab39ab6107e8899845ad3d59bd9653f200f220920489ca2b5937696c3183604051610cfb9190612439565b60405180910390a35050565b60606000610d1483610956565b905060008167ffffffffffffffff811115610d3257610d31612886565b5b604051908082528060200260200182016040528015610d605781602001602082028036833780820191505090505b50905060005b82811015610daa57610d78858261076f565b828281518110610d8b57610d8a613220565b5b6020026020010181815250508080610da29061340e565b915050610d66565b508092505050919050565b610dc6610dc061141e565b836114df565b610e05576040517f08c379a0000000000000000000000000000000000000000000000000000000008152600401610dfc906130dc565b60405180910390fd5b610e1184848484611818565b50505050565b6060610e22826113b2565b610e61576040517f08c379a0000000000000000000000000000000000000000000000000000000008152600401610e58906134c8565b60405180910390fd5b6000610e6b611874565b90506000815111610e8b5760405180602001604052806000815250610eb6565b80610e958461188b565b604051602001610ea6929190613524565b6040516020818303038152906040525b915050919050565b6000600560008473ffffffffffffffffffffffffffffffffffffffff1673ffffffffffffffffffffffffffffffffffffffff16815260200190815260200160002060008373ffffffffffffffffffffffffffffffffffffffff1673ffffffffffffffffffffffffffffffffffffffff16815260200190815260200160002060009054906101000a900460ff16905092915050565b600080600a805490509050610f6786826119eb565b60006040518060a001604052808873ffffffffffffffffffffffffffffffffffffffff168152602001878152602001428152602001868152602001858152509050600a81908060018154018082558091505060019003906000526020600020906005020160009091909190915060008201518160000160006101000a81548173ffffffffffffffffffffffffffffffffffffffff021916908373ffffffffffffffffffffffffffffffffffffffff16021790555060208201518160010190805190602001906110379291906121d9565b5060408201518160020155606082015181600301908051906020019061105e92919061225f565b506080820151816004015550508192505050949350505050565b6110806122bf565b600a8054905082106110c7576040517f08c379a00000000000000000000000000000000000000000000000000000000081526004016110be90613594565b60405180910390fd5b600a82815481106110db576110da613220565b5b90600052602060002090600502016040518060a00160405290816000820160009054906101000a900473ffffffffffffffffffffffffffffffffffffffff1673ffffffffffffffffffffffffffffffffffffffff1673ffffffffffffffffffffffffffffffffffffffff16815260200160018201805461115a90612e83565b80601f016020809104026020016040519081016040528092919081815260200182805461118690612e83565b80156111d35780601f106111a8576101008083540402835291602001916111d3565b820191906000526020600020905b8154815290600101906020018083116111b657829003601f168201915b505050505081526020016002820154815260200160038201805480602002602001604051908101604052809291908181526020016000905b828210156112b757838290600052602060002001805461122a90612e83565b80601f016020809104026020016040519081016040528092919081815260200182805461125690612e83565b80156112a35780601f10611278576101008083540402835291602001916112a3565b820191906000526020600020905b81548152906001019060200180831161128657829003601f168201915b50505050508152602001906001019061120b565b5050505081526020016004820154815250509050919050565b60007f80ac58cd000000000000000000000000000000000000000000000000000000007bffffffffffffffffffffffffffffffffffffffffffffffffffffffff1916827bffffffffffffffffffffffffffffffffffffffffffffffffffffffff1916148061139b57507f5b5e139f000000000000000000000000000000000000000000000000000000007bffffffffffffffffffffffffffffffffffffffffffffffffffffffff1916827bffffffffffffffffffffffffffffffffffffffffffffffffffffffff1916145b806113ab57506113aa82611bb8565b5b9050919050565b60008073ffffffffffffffffffffffffffffffffffffffff166002600084815260200190815260200160002060009054906101000a900473ffffffffffffffffffffffffffffffffffffffff1673ffffffffffffffffffffffffffffffffffffffff1614159050919050565b600033905090565b816004600083815260200190815260200160002060006101000a81548173ffffffffffffffffffffffffffffffffffffffff021916908373ffffffffffffffffffffffffffffffffffffffff160217905550808273ffffffffffffffffffffffffffffffffffffffff16611499836108a5565b73ffffffffffffffffffffffffffffffffffffffff167f8c5be1e5ebec7d5bd14f71427d1e84f3dd0314c0f7b2291e5b200ac8c7c3b92560405160405180910390a45050565b60006114ea826113b2565b611529576040517f08c379a000000000000000000000000000000000000000000000000000000000815260040161152090613626565b60405180910390fd5b6000611534836108a5565b90508073ffffffffffffffffffffffffffffffffffffffff168473ffffffffffffffffffffffffffffffffffffffff1614806115a357508373ffffffffffffffffffffffffffffffffffffffff1661158b84610566565b73ffffffffffffffffffffffffffffffffffffffff16145b806115b457506115b38185610ebe565b5b91505092915050565b8273ffffffffffffffffffffffffffffffffffffffff166115dd826108a5565b73ffffffffffffffffffffffffffffffffffffffff1614611633576040517f08c379a000000000000000000000000000000000000000000000000000000000815260040161162a906136b8565b60405180910390fd5b600073ffffffffffffffffffffffffffffffffffffffff168273ffffffffffffffffffffffffffffffffffffffff16036116a2576040517f08c379a00000000000000000000000000000000000000000000000000000000081526004016116999061374a565b60405180910390fd5b6116ad838383611c22565b6116b8600082611426565b6001600360008573ffffffffffffffffffffffffffffffffffffffff1673ffffffffffffffffffffffffffffffffffffffff1681526020019081526020016000206000828254611708919061376a565b925050819055506001600360008473ffffffffffffffffffffffffffffffffffffffff1673ffffffffffffffffffffffffffffffffffffffff168152602001908152602001600020600082825461175f919061379e565b92505081905550816002600083815260200190815260200160002060006101000a81548173ffffffffffffffffffffffffffffffffffffffff021916908373ffffffffffffffffffffffffffffffffffffffff160217905550808273ffffffffffffffffffffffffffffffffffffffff168473ffffffffffffffffffffffffffffffffffffffff167fddf252ad1be2c89b69c2b068fc378daa952ba7f163c4a11628f55a4df523b3ef60405160405180910390a4505050565b6118238484846115bd565b61182f84848484611d34565b61186e576040517f08c379a000000000000000000000000000000000000000000000000000000000815260040161186590613866565b60405180910390fd5b50505050565b606060405180602001604052806000815250905090565b6060600082036118d2576040518060400160405280600181526020017f300000000000000000000000000000000000000000000000000000000000000081525090506119e6565b600082905060005b600082146119045780806118ed9061340e565b915050600a826118fd91906138b5565b91506118da565b60008167ffffffffffffffff8111156119205761191f612886565b5b6040519080825280601f01601f1916602001820160405280156119525781602001600182028036833780820191505090505b5090505b600085146119df5760018261196b919061376a565b9150600a8561197a91906138e6565b6030611986919061379e565b60f81b81838151811061199c5761199b613220565b5b60200101907effffffffffffffffffffffffffffffffffffffffffffffffffffffffffffff1916908160001a905350600a856119d891906138b5565b9450611956565b8093505050505b919050565b600073ffffffffffffffffffffffffffffffffffffffff168273ffffffffffffffffffffffffffffffffffffffff1603611a5a576040517f08c379a0000000000000000000000000000000000000000000000000000000008152600401611a5190613963565b60405180910390fd5b611a63816113b2565b15611aa3576040517f08c379a0000000000000000000000000000000000000000000000000000000008152600401611a9a906139cf565b60405180910390fd5b611aaf60008383611c22565b6001600360008473ffffffffffffffffffffffffffffffffffffffff1673ffffffffffffffffffffffffffffffffffffffff1681526020019081526020016000206000828254611aff919061379e565b92505081905550816002600083815260200190815260200160002060006101000a81548173ffffffffffffffffffffffffffffffffffffffff021916908373ffffffffffffffffffffffffffffffffffffffff160217905550808273ffffffffffffffffffffffffffffffffffffffff16600073ffffffffffffffffffffffffffffffffffffffff167fddf252ad1be2c89b69c2b068fc378daa952ba7f163c4a11628f55a4df523b3ef60405160405180910390a45050565b60007f01ffc9a7000000000000000000000000000000000000000000000000000000007bffffffffffffffffffffffffffffffffffffffffffffffffffffffff1916827bffffffffffffffffffffffffffffffffffffffffffffffffffffffff1916149050919050565b611c2d838383611ebb565b600073ffffffffffffffffffffffffffffffffffffffff168373ffffffffffffffffffffffffffffffffffffffff1603611c6f57611c6a81611ec0565b611cae565b8173ffffffffffffffffffffffffffffffffffffffff168373ffffffffffffffffffffffffffffffffffffffff1614611cad57611cac8382611f09565b5b5b600073ffffffffffffffffffffffffffffffffffffffff168273ffffffffffffffffffffffffffffffffffffffff1603611cf057611ceb81612076565b611d2f565b8273ffffffffffffffffffffffffffffffffffffffff168273ffffffffffffffffffffffffffffffffffffffff1614611d2e57611d2d8282612147565b5b5b505050565b6000611d558473ffffffffffffffffffffffffffffffffffffffff166121c6565b15611eae578373ffffffffffffffffffffffffffffffffffffffff1663150b7a02611d7e61141e565b8786866040518563ffffffff1660e01b8152600401611da09493929190613a44565b6020604051808303816000875af1925050508015611ddc57506040513d601f19601f82011682018060405250810190611dd99190613aa5565b60015b611e5e573d8060008114611e0c576040519150601f19603f3d011682016040523d82523d6000602084013e611e11565b606091505b506000815103611e56576040517f08c379a0000000000000000000000000000000000000000000000000000000008152600401611e4d90613866565b60405180910390fd5b805181602001fd5b63150b7a0260e01b7bffffffffffffffffffffffffffffffffffffffffffffffffffffffff1916817bffffffffffffffffffffffffffffffffffffffffffffffffffffffff191614915050611eb3565b600190505b949350505050565b505050565b6008805490506009600083815260200190815260200160002081905550600881908060018154018082558091505060019003906000526020600020016000909190919091505550565b60006001611f1684610956565b611f20919061376a565b9050600060076000848152602001908152602001600020549050818114612005576000600660008673ffffffffffffffffffffffffffffffffffffffff1673ffffffffffffffffffffffffffffffffffffffff168152602001908152602001600020600084815260200190815260200160002054905080600660008773ffffffffffffffffffffffffffffffffffffffff1673ffffffffffffffffffffffffffffffffffffffff168152602001908152602001600020600084815260200190815260200160002081905550816007600083815260200190815260200160002081905550505b6007600084815260200190815260200160002060009055600660008573ffffffffffffffffffffffffffffffffffffffff1673ffffffffffffffffffffffffffffffffffffffff16815260200190815260200160002060008381526020019081526020016000206000905550505050565b6000600160088054905061208a919061376a565b90506000600960008481526020019081526020016000205490506000600883815481106120ba576120b9613220565b5b9060005260206000200154905080600883815481106120dc576120db613220565b5b90600052602060002001819055508160096000838152602001908152602001600020819055506009600085815260200190815260200160002060009055600880548061212b5761212a613ad2565b5b6001900381819060005260206000200160009055905550505050565b600061215283610956565b905081600660008573ffffffffffffffffffffffffffffffffffffffff1673ffffffffffffffffffffffffffffffffffffffff168152602001908152602001600020600083815260200190815260200160002081905550806007600084815260200190815260200160002081905550505050565b600080823b905060008111915050919050565b8280546121e590612e83565b90600052602060002090601f016020900481019282612207576000855561224e565b82601f1061222057805160ff191683800117855561224e565b8280016001018555821561224e579182015b8281111561224d578251825591602001919060010190612232565b5b50905061225b9190612304565b5090565b8280548282559060005260206000209081019282156122ae579160200282015b828111156122ad57825182908051906020019061229d9291906121d9565b509160200191906001019061227f565b5b5090506122bb9190612321565b5090565b6040518060a00160405280600073ffffffffffffffffffffffffffffffffffffffff168152602001606081526020016000815260200160608152602001600081525090565b5b8082111561231d576000816000905550600101612305565b5090565b5b8082111561234157600081816123389190612345565b50600101612322565b5090565b50805461235190612e83565b6000825580601f106123635750612382565b601f0160209004906000526020600020908101906123819190612304565b5b50565b6000604051905090565b600080fd5b600080fd5b60007fffffffff0000000000000000000000000000000000000000000000000000000082169050919050565b6123ce81612399565b81146123d957600080fd5b50565b6000813590506123eb816123c5565b92915050565b6000602082840312156124075761240661238f565b5b6000612415848285016123dc565b91505092915050565b60008115159050919050565b6124338161241e565b82525050565b600060208201905061244e600083018461242a565b92915050565b600081519050919050565b600082825260208201905092915050565b60005b8381101561248e578082015181840152602081019050612473565b8381111561249d576000848401525b50505050565b6000601f19601f8301169050919050565b60006124bf82612454565b6124c9818561245f565b93506124d9818560208601612470565b6124e2816124a3565b840191505092915050565b6000602082019050818103600083015261250781846124b4565b905092915050565b6000819050919050565b6125228161250f565b811461252d57600080fd5b50565b60008135905061253f81612519565b92915050565b60006020828403121561255b5761255a61238f565b5b600061256984828501612530565b91505092915050565b600073ffffffffffffffffffffffffffffffffffffffff82169050919050565b600061259d82612572565b9050919050565b6125ad81612592565b82525050565b60006020820190506125c860008301846125a4565b92915050565b6125d781612592565b81146125e257600080fd5b50565b6000813590506125f4816125ce565b92915050565b600080604083850312156126115761261061238f565b5b600061261f858286016125e5565b925050602061263085828601612530565b9150509250929050565b6126438161250f565b82525050565b600060208201905061265e600083018461263a565b92915050565b60008060006060848603121561267d5761267c61238f565b5b600061268b868287016125e5565b935050602061269c868287016125e5565b92505060406126ad86828701612530565b9150509250925092565b6000602082840312156126cd576126cc61238f565b5b60006126db848285016125e5565b91505092915050565b60006080820190506126f960008301876125a4565b818103602083015261270b81866124b4565b905061271a604083018561263a565b612727606083018461263a565b95945050505050565b6127398161241e565b811461274457600080fd5b50565b60008135905061275681612730565b92915050565b600080604083850312156127735761277261238f565b5b6000612781858286016125e5565b925050602061279285828601612747565b9150509250929050565b600081519050919050565b600082825260208201905092915050565b6000819050602082019050919050565b6127d18161250f565b82525050565b60006127e383836127c8565b60208301905092915050565b6000602082019050919050565b60006128078261279c565b61281181856127a7565b935061281c836127b8565b8060005b8381101561284d57815161283488826127d7565b975061283f836127ef565b925050600181019050612820565b5085935050505092915050565b6000602082019050818103600083015261287481846127fc565b905092915050565b600080fd5b600080fd5b7f4e487b7100000000000000000000000000000000000000000000000000000000600052604160045260246000fd5b6128be826124a3565b810181811067ffffffffffffffff821117156128dd576128dc612886565b5b80604052505050565b60006128f0612385565b90506128fc82826128b5565b919050565b600067ffffffffffffffff82111561291c5761291b612886565b5b612925826124a3565b9050602081019050919050565b82818337600083830152505050565b600061295461294f84612901565b6128e6565b9050828152602081018484840111156129705761296f612881565b5b61297b848285612932565b509392505050565b600082601f8301126129985761299761287c565b5b81356129a8848260208601612941565b91505092915050565b600080600080608085870312156129cb576129ca61238f565b5b60006129d9878288016125e5565b94505060206129ea878288016125e5565b93505060406129fb87828801612530565b925050606085013567ffffffffffffffff811115612a1c57612a1b612394565b5b612a2887828801612983565b91505092959194509250565b60008060408385031215612a4b57612a4a61238f565b5b6000612a59858286016125e5565b9250506020612a6a858286016125e5565b9150509250929050565b600067ffffffffffffffff821115612a8f57612a8e612886565b5b612a98826124a3565b9050602081019050919050565b6000612ab8612ab384612a74565b6128e6565b905082815260208101848484011115612ad457612ad3612881565b5b612adf848285612932565b509392505050565b600082601f830112612afc57612afb61287c565b5b8135612b0c848260208601612aa5565b91505092915050565b600067ffffffffffffffff821115612b3057612b2f612886565b5b602082029050602081019050919050565b600080fd5b6000612b59612b5484612b15565b6128e6565b90508083825260208201905060208402830185811115612b7c57612b7b612b41565b5b835b81811015612bc357803567ffffffffffffffff811115612ba157612ba061287c565b5b808601612bae8982612ae7565b85526020850194505050602081019050612b7e565b5050509392505050565b600082601f830112612be257612be161287c565b5b8135612bf2848260208601612b46565b91505092915050565b60008060008060808587031215612c1557612c1461238f565b5b6000612c23878288016125e5565b945050602085013567ffffffffffffffff811115612c4457612c43612394565b5b612c5087828801612ae7565b935050604085013567ffffffffffffffff811115612c7157612c70612394565b5b612c7d87828801612bcd565b9250506060612c8e87828801612530565b91505092959194509250565b612ca381612592565b82525050565b600082825260208201905092915050565b6000612cc582612454565b612ccf8185612ca9565b9350612cdf818560208601612470565b612ce8816124a3565b840191505092915050565b600081519050919050565b600082825260208201905092915050565b6000819050602082019050919050565b6000612d2b8383612cba565b905092915050565b6000602082019050919050565b6000612d4b82612cf3565b612d558185612cfe565b935083602082028501612d6785612d0f565b8060005b85811015612da35784840389528151612d848582612d1f565b9450612d8f83612d33565b925060208a01995050600181019050612d6b565b50829750879550505050505092915050565b600060a083016000830151612dcd6000860182612c9a565b5060208301518482036020860152612de58282612cba565b9150506040830151612dfa60408601826127c8565b5060608301518482036060860152612e128282612d40565b9150506080830151612e2760808601826127c8565b508091505092915050565b60006020820190508181036000830152612e4c8184612db5565b905092915050565b7f4e487b7100000000000000000000000000000000000000000000000000000000600052602260045260246000fd5b60006002820490506001821680612e9b57607f821691505b602082108103612eae57612ead612e54565b5b50919050565b7f4552433732313a20617070726f76656420717565727920666f72206e6f6e657860008201527f697374656e7420746f6b656e0000000000000000000000000000000000000000602082015250565b6000612f10602c8361245f565b9150612f1b82612eb4565b604082019050919050565b60006020820190508181036000830152612f3f81612f03565b9050919050565b7f4552433732313a20617070726f76616c20746f2063757272656e74206f776e6560008201527f7200000000000000000000000000000000000000000000000000000000000000602082015250565b6000612fa260218361245f565b9150612fad82612f46565b604082019050919050565b60006020820190508181036000830152612fd181612f95565b9050919050565b7f4552433732313a20617070726f76652063616c6c6572206973206e6f74206f7760008201527f6e6572206e6f7220617070726f76656420666f7220616c6c0000000000000000602082015250565b600061303460388361245f565b915061303f82612fd8565b604082019050919050565b6000602082019050818103600083015261306381613027565b9050919050565b7f4552433732313a207472616e736665722063616c6c6572206973206e6f74206f60008201527f776e6572206e6f7220617070726f766564000000000000000000000000000000602082015250565b60006130c660318361245f565b91506130d18261306a565b604082019050919050565b600060208201905081810360008301526130f5816130b9565b9050919050565b7f455243373231456e756d657261626c653a206f776e657220696e646578206f7560008201527f74206f6620626f756e6473000000000000000000000000000000000000000000602082015250565b6000613158602b8361245f565b9150613163826130fc565b604082019050919050565b600060208201905081810360008301526131878161314b565b9050919050565b7f455243373231456e756d657261626c653a20676c6f62616c20696e646578206f60008201527f7574206f6620626f756e64730000000000000000000000000000000000000000602082015250565b60006131ea602c8361245f565b91506131f58261318e565b604082019050919050565b60006020820190508181036000830152613219816131dd565b9050919050565b7f4e487b7100000000000000000000000000000000000000000000000000000000600052603260045260246000fd5b7f4552433732313a206f776e657220717565727920666f72206e6f6e657869737460008201527f656e7420746f6b656e0000000000000000000000000000000000000000000000602082015250565b60006132ab60298361245f565b91506132b68261324f565b604082019050919050565b600060208201905081810360008301526132da8161329e565b9050919050565b7f4552433732313a2062616c616e636520717565727920666f7220746865207a6560008201527f726f206164647265737300000000000000000000000000000000000000000000602082015250565b600061333d602a8361245f565b9150613348826132e1565b604082019050919050565b6000602082019050818103600083015261336c81613330565b9050919050565b7f4552433732313a20617070726f766520746f2063616c6c657200000000000000600082015250565b60006133a960198361245f565b91506133b482613373565b602082019050919050565b600060208201905081810360008301526133d88161339c565b9050919050565b7f4e487b7100000000000000000000000000000000000000000000000000000000600052601160045260246000fd5b60006134198261250f565b91507fffffffffffffffffffffffffffffffffffffffffffffffffffffffffffffffff820361344b5761344a6133df565b5b600182019050919050565b7f4552433732314d657461646174613a2055524920717565727920666f72206e6f60008201527f6e6578697374656e7420746f6b656e0000000000000000000000000000000000602082015250565b60006134b2602f8361245f565b91506134bd82613456565b604082019050919050565b600060208201905081810360008301526134e1816134a5565b9050919050565b600081905092915050565b60006134fe82612454565b61350881856134e8565b9350613518818560208601612470565b80840191505092915050565b600061353082856134f3565b915061353c82846134f3565b91508190509392505050565b7f5469636b657420646f6573206e6f742065786973740000000000000000000000600082015250565b600061357e60158361245f565b915061358982613548565b602082019050919050565b600060208201905081810360008301526135ad81613571565b9050919050565b7f4552433732313a206f70657261746f7220717565727920666f72206e6f6e657860008201527f697374656e7420746f6b656e0000000000000000000000000000000000000000602082015250565b6000613610602c8361245f565b915061361b826135b4565b604082019050919050565b6000602082019050818103600083015261363f81613603565b9050919050565b7f4552433732313a207472616e73666572206f6620746f6b656e2074686174206960008201527f73206e6f74206f776e0000000000000000000000000000000000000000000000602082015250565b60006136a260298361245f565b91506136ad82613646565b604082019050919050565b600060208201905081810360008301526136d181613695565b9050919050565b7f4552433732313a207472616e7366657220746f20746865207a65726f2061646460008201527f7265737300000000000000000000000000000000000000000000000000000000602082015250565b600061373460248361245f565b915061373f826136d8565b604082019050919050565b6000602082019050818103600083015261376381613727565b9050919050565b60006137758261250f565b91506137808361250f565b925082821015613793576137926133df565b5b828203905092915050565b60006137a98261250f565b91506137b48361250f565b9250827fffffffffffffffffffffffffffffffffffffffffffffffffffffffffffffffff038211156137e9576137e86133df565b5b828201905092915050565b7f4552433732313a207472616e7366657220746f206e6f6e20455243373231526560008201527f63656976657220696d706c656d656e7465720000000000000000000000000000602082015250565b600061385060328361245f565b915061385b826137f4565b604082019050919050565b6000602082019050818103600083015261387f81613843565b9050919050565b7f4e487b7100000000000000000000000000000000000000000000000000000000600052601260045260246000fd5b60006138c08261250f565b91506138cb8361250f565b9250826138db576138da613886565b5b828204905092915050565b60006138f18261250f565b91506138fc8361250f565b92508261390c5761390b613886565b5b828206905092915050565b7f4552433732313a206d696e7420746f20746865207a65726f2061646472657373600082015250565b600061394d60208361245f565b915061395882613917565b602082019050919050565b6000602082019050818103600083015261397c81613940565b9050919050565b7f4552433732313a20746f6b656e20616c7265616479206d696e74656400000000600082015250565b60006139b9601c8361245f565b91506139c482613983565b602082019050919050565b600060208201905081810360008301526139e8816139ac565b9050919050565b600081519050919050565b600082825260208201905092915050565b6000613a16826139ef565b613a2081856139fa565b9350613a30818560208601612470565b613a39816124a3565b840191505092915050565b6000608082019050613a5960008301876125a4565b613a6660208301866125a4565b613a73604083018561263a565b8181036060830152613a858184613a0b565b905095945050505050565b600081519050613a9f816123c5565b92915050565b600060208284031215613abb57613aba61238f565b5b6000613ac984828501613a90565b91505092915050565b7f4e487b7100000000000000000000000000000000000000000000000000000000600052603160045260246000fdfea2646970667358221220c71c551d94aa73b4f17516b3e4d03a9d72698e75fe5f964fdad1ff7e9de8cec964736f6c634300080d0033",
  "immutableReferences": {},
  "source": "// SPDX-License-Identifier: MIT\r\n//   MIT    .\r\n\r\npragma solidity 0.8.13;\r\n\r\nimport \"@openzeppelin/contracts/token/ERC721/extensions/ERC721Enumerable.sol\";\r\n\r\ncontract TicketNFT is ERC721Enumerable {\r\n    //      Purchase  \r\n    struct Purchase {\r\n        address buyer; //  \r\n        string concert; //  \r\n        uint256 purchaseTime; //  \r\n        string[] selectedSeats; //   \r\n        uint256 paymentAmount; //  \r\n    }\r\n\r\n    //  ID      \r\n    Purchase[] public purchases;\r\n\r\n    // ERC721Enumerable   TicketNFT  \r\n    constructor(\r\n        string memory name, //  \r\n        string memory symbol //  \r\n    ) ERC721(name, symbol) {} // ERC721Enumerable  \r\n\r\n    //   \r\n    function mint(\r\n        address _to, //    \r\n        string memory _concert, //  \r\n        string[] memory _selectedSeats, //   \r\n        uint256 _paymentAmount //  \r\n    ) external returns (uint256) {\r\n        //  ID  \r\n        uint256 tokenId = purchases.length; //    ID\r\n        _mint(_to, tokenId); // ERC721 mint    \r\n        //      \r\n        Purchase memory newPurchase = Purchase({\r\n            buyer: _to,\r\n            concert: _concert,\r\n            purchaseTime: block.timestamp,\r\n            selectedSeats: _selectedSeats,\r\n            paymentAmount: _paymentAmount\r\n        });\r\n        purchases.push(newPurchase);\r\n        return tokenId; //  ID \r\n    }\r\n\r\n    function getTicketInfo(\r\n        uint256 _tokenId\r\n    ) external view returns (Purchase memory) {\r\n        require(_tokenId < purchases.length, \"Ticket does not exist\");\r\n        return purchases[_tokenId];\r\n    }\r\n\r\n    function getOwnedTicketIds(address _owner) external view returns (uint256[] memory) {\r\n        uint256 balance = balanceOf(_owner);\r\n        uint256[] memory tokenIds = new uint256[](balance);\r\n        for (uint256 i = 0; i < balance; i++) {\r\n            tokenIds[i] = tokenOfOwnerByIndex(_owner, i);\r\n        }\r\n        return tokenIds;\r\n    }\r\n}",
  "sourcePath": "C:\\Users\\user\\Desktop\\project\\test\\movie\\client\\src\\contracts\\TicketNFT.sol",
  "compiler": {
    "name": "solc",
    "version": "0.8.13+commit.abaa5c0e.Emscripten.clang"
  },
  "schemaVersion": "3.4.16",
  "updatedAt": "2024-04-16T00:59:43.875Z",
  "networkType": "ethereum",
  "devdoc": {
    "kind": "dev",
    "methods": {
      "approve(address,uint256)": {
        "details": "See {IERC721-approve}."
      },
      "balanceOf(address)": {
        "details": "See {IERC721-balanceOf}."
      },
      "getApproved(uint256)": {
        "details": "See {IERC721-getApproved}."
      },
      "isApprovedForAll(address,address)": {
        "details": "See {IERC721-isApprovedForAll}."
      },
      "name()": {
        "details": "See {IERC721Metadata-name}."
      },
      "ownerOf(uint256)": {
        "details": "See {IERC721-ownerOf}."
      },
      "safeTransferFrom(address,address,uint256)": {
        "details": "See {IERC721-safeTransferFrom}."
      },
      "safeTransferFrom(address,address,uint256,bytes)": {
        "details": "See {IERC721-safeTransferFrom}."
      },
      "setApprovalForAll(address,bool)": {
        "details": "See {IERC721-setApprovalForAll}."
      },
      "supportsInterface(bytes4)": {
        "details": "See {IERC165-supportsInterface}."
      },
      "symbol()": {
        "details": "See {IERC721Metadata-symbol}."
      },
      "tokenByIndex(uint256)": {
        "details": "See {IERC721Enumerable-tokenByIndex}."
      },
      "tokenOfOwnerByIndex(address,uint256)": {
        "details": "See {IERC721Enumerable-tokenOfOwnerByIndex}."
      },
      "tokenURI(uint256)": {
        "details": "See {IERC721Metadata-tokenURI}."
      },
      "totalSupply()": {
        "details": "See {IERC721Enumerable-totalSupply}."
      },
      "transferFrom(address,address,uint256)": {
        "details": "See {IERC721-transferFrom}."
      }
    },
    "version": 1
  },
  "userdoc": {
    "kind": "user",
    "methods": {},
    "version": 1
  }
}