{
  "contractName": "TicketNFT",
  "abi": [
    {
      "inputs": [
        {
          "internalType": "string",
          "name": "name",
          "type": "string"
        },
        {
          "internalType": "string",
          "name": "symbol",
          "type": "string"
        }
      ],
      "stateMutability": "nonpayable",
      "type": "constructor"
    },
    {
      "anonymous": false,
      "inputs": [
        {
          "indexed": true,
          "internalType": "address",
          "name": "owner",
          "type": "address"
        },
        {
          "indexed": true,
          "internalType": "address",
          "name": "approved",
          "type": "address"
        },
        {
          "indexed": true,
          "internalType": "uint256",
          "name": "tokenId",
          "type": "uint256"
        }
      ],
      "name": "Approval",
      "type": "event"
    },
    {
      "anonymous": false,
      "inputs": [
        {
          "indexed": true,
          "internalType": "address",
          "name": "owner",
          "type": "address"
        },
        {
          "indexed": true,
          "internalType": "address",
          "name": "operator",
          "type": "address"
        },
        {
          "indexed": false,
          "internalType": "bool",
          "name": "approved",
          "type": "bool"
        }
      ],
      "name": "ApprovalForAll",
      "type": "event"
    },
    {
      "anonymous": false,
      "inputs": [
        {
          "indexed": true,
          "internalType": "address",
          "name": "from",
          "type": "address"
        },
        {
          "indexed": true,
          "internalType": "address",
          "name": "to",
          "type": "address"
        },
        {
          "indexed": true,
          "internalType": "uint256",
          "name": "tokenId",
          "type": "uint256"
        }
      ],
      "name": "Transfer",
      "type": "event"
    },
    {
      "inputs": [
        {
          "internalType": "address",
          "name": "to",
          "type": "address"
        },
        {
          "internalType": "uint256",
          "name": "tokenId",
          "type": "uint256"
        }
      ],
      "name": "approve",
      "outputs": [],
      "stateMutability": "nonpayable",
      "type": "function"
    },
    {
      "inputs": [
        {
          "internalType": "address",
          "name": "owner",
          "type": "address"
        }
      ],
      "name": "balanceOf",
      "outputs": [
        {
          "internalType": "uint256",
          "name": "",
          "type": "uint256"
        }
      ],
      "stateMutability": "view",
      "type": "function",
      "constant": true
    },
    {
      "inputs": [
        {
          "internalType": "uint256",
          "name": "tokenId",
          "type": "uint256"
        }
      ],
      "name": "getApproved",
      "outputs": [
        {
          "internalType": "address",
          "name": "",
          "type": "address"
        }
      ],
      "stateMutability": "view",
      "type": "function",
      "constant": true
    },
    {
      "inputs": [
        {
          "internalType": "address",
          "name": "owner",
          "type": "address"
        },
        {
          "internalType": "address",
          "name": "operator",
          "type": "address"
        }
      ],
      "name": "isApprovedForAll",
      "outputs": [
        {
          "internalType": "bool",
          "name": "",
          "type": "bool"
        }
      ],
      "stateMutability": "view",
      "type": "function",
      "constant": true
    },
    {
      "inputs": [],
      "name": "name",
      "outputs": [
        {
          "internalType": "string",
          "name": "",
          "type": "string"
        }
      ],
      "stateMutability": "view",
      "type": "function",
      "constant": true
    },
    {
      "inputs": [
        {
          "internalType": "uint256",
          "name": "tokenId",
          "type": "uint256"
        }
      ],
      "name": "ownerOf",
      "outputs": [
        {
          "internalType": "address",
          "name": "",
          "type": "address"
        }
      ],
      "stateMutability": "view",
      "type": "function",
      "constant": true
    },
    {
      "inputs": [
        {
          "internalType": "uint256",
          "name": "",
          "type": "uint256"
        }
      ],
      "name": "purchases",
      "outputs": [
        {
          "internalType": "address",
          "name": "buyer",
          "type": "address"
        },
        {
          "internalType": "string",
          "name": "concert",
          "type": "string"
        },
        {
          "internalType": "string",
          "name": "concertDate",
          "type": "string"
        },
        {
          "internalType": "string",
          "name": "concertTime",
          "type": "string"
        },
        {
          "internalType": "uint256",
          "name": "purchaseTime",
          "type": "uint256"
        },
        {
          "internalType": "uint256",
          "name": "paymentAmount",
          "type": "uint256"
        }
      ],
      "stateMutability": "view",
      "type": "function",
      "constant": true
    },
    {
      "inputs": [
        {
          "internalType": "address",
          "name": "from",
          "type": "address"
        },
        {
          "internalType": "address",
          "name": "to",
          "type": "address"
        },
        {
          "internalType": "uint256",
          "name": "tokenId",
          "type": "uint256"
        }
      ],
      "name": "safeTransferFrom",
      "outputs": [],
      "stateMutability": "nonpayable",
      "type": "function"
    },
    {
      "inputs": [
        {
          "internalType": "address",
          "name": "from",
          "type": "address"
        },
        {
          "internalType": "address",
          "name": "to",
          "type": "address"
        },
        {
          "internalType": "uint256",
          "name": "tokenId",
          "type": "uint256"
        },
        {
          "internalType": "bytes",
          "name": "_data",
          "type": "bytes"
        }
      ],
      "name": "safeTransferFrom",
      "outputs": [],
      "stateMutability": "nonpayable",
      "type": "function"
    },
    {
      "inputs": [
        {
          "internalType": "address",
          "name": "operator",
          "type": "address"
        },
        {
          "internalType": "bool",
          "name": "approved",
          "type": "bool"
        }
      ],
      "name": "setApprovalForAll",
      "outputs": [],
      "stateMutability": "nonpayable",
      "type": "function"
    },
    {
      "inputs": [
        {
          "internalType": "bytes4",
          "name": "interfaceId",
          "type": "bytes4"
        }
      ],
      "name": "supportsInterface",
      "outputs": [
        {
          "internalType": "bool",
          "name": "",
          "type": "bool"
        }
      ],
      "stateMutability": "view",
      "type": "function",
      "constant": true
    },
    {
      "inputs": [],
      "name": "symbol",
      "outputs": [
        {
          "internalType": "string",
          "name": "",
          "type": "string"
        }
      ],
      "stateMutability": "view",
      "type": "function",
      "constant": true
    },
    {
      "inputs": [
        {
          "internalType": "uint256",
          "name": "index",
          "type": "uint256"
        }
      ],
      "name": "tokenByIndex",
      "outputs": [
        {
          "internalType": "uint256",
          "name": "",
          "type": "uint256"
        }
      ],
      "stateMutability": "view",
      "type": "function",
      "constant": true
    },
    {
      "inputs": [
        {
          "internalType": "address",
          "name": "owner",
          "type": "address"
        },
        {
          "internalType": "uint256",
          "name": "index",
          "type": "uint256"
        }
      ],
      "name": "tokenOfOwnerByIndex",
      "outputs": [
        {
          "internalType": "uint256",
          "name": "",
          "type": "uint256"
        }
      ],
      "stateMutability": "view",
      "type": "function",
      "constant": true
    },
    {
      "inputs": [
        {
          "internalType": "uint256",
          "name": "tokenId",
          "type": "uint256"
        }
      ],
      "name": "tokenURI",
      "outputs": [
        {
          "internalType": "string",
          "name": "",
          "type": "string"
        }
      ],
      "stateMutability": "view",
      "type": "function",
      "constant": true
    },
    {
      "inputs": [],
      "name": "totalSupply",
      "outputs": [
        {
          "internalType": "uint256",
          "name": "",
          "type": "uint256"
        }
      ],
      "stateMutability": "view",
      "type": "function",
      "constant": true
    },
    {
      "inputs": [
        {
          "internalType": "address",
          "name": "from",
          "type": "address"
        },
        {
          "internalType": "address",
          "name": "to",
          "type": "address"
        },
        {
          "internalType": "uint256",
          "name": "tokenId",
          "type": "uint256"
        }
      ],
      "name": "transferFrom",
      "outputs": [],
      "stateMutability": "nonpayable",
      "type": "function"
    },
    {
      "inputs": [
        {
          "internalType": "address",
          "name": "_to",
          "type": "address"
        },
        {
          "internalType": "string",
          "name": "_concert",
          "type": "string"
        },
        {
          "internalType": "string",
          "name": "_concertDate",
          "type": "string"
        },
        {
          "internalType": "string",
          "name": "_concertTime",
          "type": "string"
        },
        {
          "internalType": "string[]",
          "name": "_selectedSeats",
          "type": "string[]"
        },
        {
          "internalType": "uint256",
          "name": "_paymentAmount",
          "type": "uint256"
        }
      ],
      "name": "mint",
      "outputs": [
        {
          "internalType": "uint256",
          "name": "",
          "type": "uint256"
        }
      ],
      "stateMutability": "nonpayable",
      "type": "function"
    },
    {
      "inputs": [
        {
          "internalType": "uint256",
          "name": "_tokenId",
          "type": "uint256"
        }
      ],
      "name": "getTicketInfo",
      "outputs": [
        {
          "components": [
            {
              "internalType": "address",
              "name": "buyer",
              "type": "address"
            },
            {
              "internalType": "string",
              "name": "concert",
              "type": "string"
            },
            {
              "internalType": "string",
              "name": "concertDate",
              "type": "string"
            },
            {
              "internalType": "string",
              "name": "concertTime",
              "type": "string"
            },
            {
              "internalType": "uint256",
              "name": "purchaseTime",
              "type": "uint256"
            },
            {
              "internalType": "string[]",
              "name": "selectedSeats",
              "type": "string[]"
            },
            {
              "internalType": "uint256",
              "name": "paymentAmount",
              "type": "uint256"
            }
          ],
          "internalType": "struct TicketNFT.Purchase",
          "name": "",
          "type": "tuple"
        }
      ],
      "stateMutability": "view",
      "type": "function",
      "constant": true
    },
    {
      "inputs": [
        {
          "internalType": "address",
          "name": "_owner",
          "type": "address"
        }
      ],
      "name": "getOwnedTicketIds",
      "outputs": [
        {
          "internalType": "uint256[]",
          "name": "",
          "type": "uint256[]"
        }
      ],
      "stateMutability": "view",
      "type": "function",
      "constant": true
    },
    {
      "inputs": [
        {
          "internalType": "address",
          "name": "_to",
          "type": "address"
        },
        {
          "internalType": "uint256",
          "name": "_tokenId",
          "type": "uint256"
        }
      ],
      "name": "transfer",
      "outputs": [],
      "stateMutability": "nonpayable",
      "type": "function"
    }
  ],
  "bytecode": "0x60806040523480156200001157600080fd5b50604051620044f3380380620044f38339818101604052810190620000379190620002c2565b818181600090805190602001906200005192919062000075565b5080600190805190602001906200006a92919062000075565b5050505050620003ab565b828054620000839062000376565b90600052602060002090601f016020900481019282620000a75760008555620000f3565b82601f10620000c257805160ff1916838001178555620000f3565b82800160010185558215620000f3579182015b82811115620000f2578251825591602001919060010190620000d5565b5b50905062000102919062000106565b5090565b5b808211156200012157600081600090555060010162000107565b5090565b6000604051905090565b600080fd5b600080fd5b600080fd5b600080fd5b6000601f19601f8301169050919050565b7f4e487b7100000000000000000000000000000000000000000000000000000000600052604160045260246000fd5b6200018e8262000143565b810181811067ffffffffffffffff82111715620001b057620001af62000154565b5b80604052505050565b6000620001c562000125565b9050620001d3828262000183565b919050565b600067ffffffffffffffff821115620001f657620001f562000154565b5b620002018262000143565b9050602081019050919050565b60005b838110156200022e57808201518184015260208101905062000211565b838111156200023e576000848401525b50505050565b60006200025b6200025584620001d8565b620001b9565b9050828152602081018484840111156200027a57620002796200013e565b5b620002878482856200020e565b509392505050565b600082601f830112620002a757620002a662000139565b5b8151620002b984826020860162000244565b91505092915050565b60008060408385031215620002dc57620002db6200012f565b5b600083015167ffffffffffffffff811115620002fd57620002fc62000134565b5b6200030b858286016200028f565b925050602083015167ffffffffffffffff8111156200032f576200032e62000134565b5b6200033d858286016200028f565b9150509250929050565b7f4e487b7100000000000000000000000000000000000000000000000000000000600052602260045260246000fd5b600060028204905060018216806200038f57607f821691505b602082108103620003a557620003a462000347565b5b50919050565b61413880620003bb6000396000f3fe608060405234801561001057600080fd5b50600436106101375760003560e01c806370a08231116100b8578063a4bfd0cc1161007c578063a4bfd0cc1461038b578063a9059cbb146103bb578063b88d4fde146103d7578063c87b56dd146103f3578063e985e9c514610423578063ff99a0631461045357610137565b806370a08231146102bc5780638392fe31146102ec57806395d89b41146103215780639abb2f7e1461033f578063a22cb4651461036f57610137565b806323b872dd116100ff57806323b872dd146101f45780632f745c591461021057806342842e0e146102405780634f6ccce71461025c5780636352211e1461028c57610137565b806301ffc9a71461013c57806306fdde031461016c578063081812fc1461018a578063095ea7b3146101ba57806318160ddd146101d6575b600080fd5b610156600480360381019061015191906127f2565b610483565b604051610163919061283a565b60405180910390f35b6101746104fd565b60405161018191906128ee565b60405180910390f35b6101a4600480360381019061019f9190612946565b61058f565b6040516101b191906129b4565b60405180910390f35b6101d460048036038101906101cf91906129fb565b610614565b005b6101de61072b565b6040516101eb9190612a4a565b60405180910390f35b61020e60048036038101906102099190612a65565b610738565b005b61022a600480360381019061022591906129fb565b610798565b6040516102379190612a4a565b60405180910390f35b61025a60048036038101906102559190612a65565b61083d565b005b61027660048036038101906102719190612946565b61085d565b6040516102839190612a4a565b60405180910390f35b6102a660048036038101906102a19190612946565b6108ce565b6040516102b391906129b4565b60405180910390f35b6102d660048036038101906102d19190612ab8565b61097f565b6040516102e39190612a4a565b60405180910390f35b61030660048036038101906103019190612946565b610a36565b60405161031896959493929190612ae5565b60405180910390f35b610329610c3a565b60405161033691906128ee565b60405180910390f35b61035960048036038101906103549190612d76565b610ccc565b6040516103669190612a4a565b60405180910390f35b61038960048036038101906103849190612e9f565b610e3a565b005b6103a560048036038101906103a09190612ab8565b610fba565b6040516103b29190612f9d565b60405180910390f35b6103d560048036038101906103d091906129fb565b611068565b005b6103f160048036038101906103ec9190613060565b6111aa565b005b61040d60048036038101906104089190612946565b61120c565b60405161041a91906128ee565b60405180910390f35b61043d600480360381019061043891906130e3565b6112b3565b60405161044a919061283a565b60405180910390f35b61046d60048036038101906104689190612946565b611347565b60405161047a91906132ef565b60405180910390f35b60007f780e9d63000000000000000000000000000000000000000000000000000000007bffffffffffffffffffffffffffffffffffffffffffffffffffffffff1916827bffffffffffffffffffffffffffffffffffffffffffffffffffffffff191614806104f657506104f5826116c3565b5b9050919050565b60606000805461050c90613340565b80601f016020809104026020016040519081016040528092919081815260200182805461053890613340565b80156105855780601f1061055a57610100808354040283529160200191610585565b820191906000526020600020905b81548152906001019060200180831161056857829003601f168201915b5050505050905090565b600061059a826117a5565b6105d9576040517f08c379a00000000000000000000000000000000000000000000000000000000081526004016105d0906133e3565b60405180910390fd5b6004600083815260200190815260200160002060009054906101000a900473ffffffffffffffffffffffffffffffffffffffff169050919050565b600061061f826108ce565b90508073ffffffffffffffffffffffffffffffffffffffff168373ffffffffffffffffffffffffffffffffffffffff160361068f576040517f08c379a000000000000000000000000000000000000000000000000000000000815260040161068690613475565b60405180910390fd5b8073ffffffffffffffffffffffffffffffffffffffff166106ae611811565b73ffffffffffffffffffffffffffffffffffffffff1614806106dd57506106dc816106d7611811565b6112b3565b5b61071c576040517f08c379a000000000000000000000000000000000000000000000000000000000815260040161071390613507565b60405180910390fd5b6107268383611819565b505050565b6000600880549050905090565b610749610743611811565b826118d2565b610788576040517f08c379a000000000000000000000000000000000000000000000000000000000815260040161077f90613599565b60405180910390fd5b6107938383836119b0565b505050565b60006107a38361097f565b82106107e4576040517f08c379a00000000000000000000000000000000000000000000000000000000081526004016107db9061362b565b60405180910390fd5b600660008473ffffffffffffffffffffffffffffffffffffffff1673ffffffffffffffffffffffffffffffffffffffff168152602001908152602001600020600083815260200190815260200160002054905092915050565b610858838383604051806020016040528060008152506111aa565b505050565b600061086761072b565b82106108a8576040517f08c379a000000000000000000000000000000000000000000000000000000000815260040161089f906136bd565b60405180910390fd5b600882815481106108bc576108bb6136dd565b5b90600052602060002001549050919050565b6000806002600084815260200190815260200160002060009054906101000a900473ffffffffffffffffffffffffffffffffffffffff169050600073ffffffffffffffffffffffffffffffffffffffff168173ffffffffffffffffffffffffffffffffffffffff1603610976576040517f08c379a000000000000000000000000000000000000000000000000000000000815260040161096d9061377e565b60405180910390fd5b80915050919050565b60008073ffffffffffffffffffffffffffffffffffffffff168273ffffffffffffffffffffffffffffffffffffffff16036109ef576040517f08c379a00000000000000000000000000000000000000000000000000000000081526004016109e690613810565b60405180910390fd5b600360008373ffffffffffffffffffffffffffffffffffffffff1673ffffffffffffffffffffffffffffffffffffffff168152602001908152602001600020549050919050565b600a8181548110610a4657600080fd5b90600052602060002090600702016000915090508060000160009054906101000a900473ffffffffffffffffffffffffffffffffffffffff1690806001018054610a8f90613340565b80601f0160208091040260200160405190810160405280929190818152602001828054610abb90613340565b8015610b085780601f10610add57610100808354040283529160200191610b08565b820191906000526020600020905b815481529060010190602001808311610aeb57829003601f168201915b505050505090806002018054610b1d90613340565b80601f0160208091040260200160405190810160405280929190818152602001828054610b4990613340565b8015610b965780601f10610b6b57610100808354040283529160200191610b96565b820191906000526020600020905b815481529060010190602001808311610b7957829003601f168201915b505050505090806003018054610bab90613340565b80601f0160208091040260200160405190810160405280929190818152602001828054610bd790613340565b8015610c245780601f10610bf957610100808354040283529160200191610c24565b820191906000526020600020905b815481529060010190602001808311610c0757829003601f168201915b5050505050908060040154908060060154905086565b606060018054610c4990613340565b80601f0160208091040260200160405190810160405280929190818152602001828054610c7590613340565b8015610cc25780601f10610c9757610100808354040283529160200191610cc2565b820191906000526020600020905b815481529060010190602001808311610ca557829003601f168201915b5050505050905090565b600080600a805490509050610ce18882611c0b565b60006040518060e001604052808a73ffffffffffffffffffffffffffffffffffffffff168152602001898152602001888152602001878152602001428152602001868152602001858152509050600a81908060018154018082558091505060019003906000526020600020906007020160009091909190915060008201518160000160006101000a81548173ffffffffffffffffffffffffffffffffffffffff021916908373ffffffffffffffffffffffffffffffffffffffff1602179055506020820151816001019080519060200190610dbd9291906125cc565b506040820151816002019080519060200190610dda9291906125cc565b506060820151816003019080519060200190610df79291906125cc565b506080820151816004015560a0820151816005019080519060200190610e1e929190612652565b5060c08201518160060155505081925050509695505050505050565b610e42611811565b73ffffffffffffffffffffffffffffffffffffffff168273ffffffffffffffffffffffffffffffffffffffff1603610eaf576040517f08c379a0000000000000000000000000000000000000000000000000000000008152600401610ea69061387c565b60405180910390fd5b8060056000610ebc611811565b73ffffffffffffffffffffffffffffffffffffffff1673ffffffffffffffffffffffffffffffffffffffff16815260200190815260200160002060008473ffffffffffffffffffffffffffffffffffffffff1673ffffffffffffffffffffffffffffffffffffffff16815260200190815260200160002060006101000a81548160ff0219169083151502179055508173ffffffffffffffffffffffffffffffffffffffff16610f69611811565b73ffffffffffffffffffffffffffffffffffffffff167f17307eab39ab6107e8899845ad3d59bd9653f200f220920489ca2b5937696c3183604051610fae919061283a565b60405180910390a35050565b60606000610fc78361097f565b905060008167ffffffffffffffff811115610fe557610fe4612b65565b5b6040519080825280602002602001820160405280156110135781602001602082028036833780820191505090505b50905060005b8281101561105d5761102b8582610798565b82828151811061103e5761103d6136dd565b5b6020026020010181815250508080611055906138cb565b915050611019565b508092505050919050565b611071816117a5565b6110b0576040517f08c379a00000000000000000000000000000000000000000000000000000000081526004016110a79061395f565b60405180910390fd5b60006110bb826108ce565b90508073ffffffffffffffffffffffffffffffffffffffff163373ffffffffffffffffffffffffffffffffffffffff161461112b576040517f08c379a0000000000000000000000000000000000000000000000000000000008152600401611122906139cb565b60405180910390fd5b600073ffffffffffffffffffffffffffffffffffffffff168373ffffffffffffffffffffffffffffffffffffffff160361119a576040517f08c379a000000000000000000000000000000000000000000000000000000000815260040161119190613a37565b60405180910390fd5b6111a58184846119b0565b505050565b6111bb6111b5611811565b836118d2565b6111fa576040517f08c379a00000000000000000000000000000000000000000000000000000000081526004016111f190613599565b60405180910390fd5b61120684848484611dd8565b50505050565b6060611217826117a5565b611256576040517f08c379a000000000000000000000000000000000000000000000000000000000815260040161124d90613ac9565b60405180910390fd5b6000611260611e34565b9050600081511161128057604051806020016040528060008152506112ab565b8061128a84611e4b565b60405160200161129b929190613b25565b6040516020818303038152906040525b915050919050565b6000600560008473ffffffffffffffffffffffffffffffffffffffff1673ffffffffffffffffffffffffffffffffffffffff16815260200190815260200160002060008373ffffffffffffffffffffffffffffffffffffffff1673ffffffffffffffffffffffffffffffffffffffff16815260200190815260200160002060009054906101000a900460ff16905092915050565b61134f6126b2565b600a805490508210611396576040517f08c379a000000000000000000000000000000000000000000000000000000000815260040161138d90613b95565b60405180910390fd5b600a82815481106113aa576113a96136dd565b5b90600052602060002090600702016040518060e00160405290816000820160009054906101000a900473ffffffffffffffffffffffffffffffffffffffff1673ffffffffffffffffffffffffffffffffffffffff1673ffffffffffffffffffffffffffffffffffffffff16815260200160018201805461142990613340565b80601f016020809104026020016040519081016040528092919081815260200182805461145590613340565b80156114a25780601f10611477576101008083540402835291602001916114a2565b820191906000526020600020905b81548152906001019060200180831161148557829003601f168201915b505050505081526020016002820180546114bb90613340565b80601f01602080910402602001604051908101604052809291908181526020018280546114e790613340565b80156115345780601f1061150957610100808354040283529160200191611534565b820191906000526020600020905b81548152906001019060200180831161151757829003601f168201915b5050505050815260200160038201805461154d90613340565b80601f016020809104026020016040519081016040528092919081815260200182805461157990613340565b80156115c65780601f1061159b576101008083540402835291602001916115c6565b820191906000526020600020905b8154815290600101906020018083116115a957829003601f168201915b505050505081526020016004820154815260200160058201805480602002602001604051908101604052809291908181526020016000905b828210156116aa57838290600052602060002001805461161d90613340565b80601f016020809104026020016040519081016040528092919081815260200182805461164990613340565b80156116965780601f1061166b57610100808354040283529160200191611696565b820191906000526020600020905b81548152906001019060200180831161167957829003601f168201915b5050505050815260200190600101906115fe565b5050505081526020016006820154815250509050919050565b60007f80ac58cd000000000000000000000000000000000000000000000000000000007bffffffffffffffffffffffffffffffffffffffffffffffffffffffff1916827bffffffffffffffffffffffffffffffffffffffffffffffffffffffff1916148061178e57507f5b5e139f000000000000000000000000000000000000000000000000000000007bffffffffffffffffffffffffffffffffffffffffffffffffffffffff1916827bffffffffffffffffffffffffffffffffffffffffffffffffffffffff1916145b8061179e575061179d82611fab565b5b9050919050565b60008073ffffffffffffffffffffffffffffffffffffffff166002600084815260200190815260200160002060009054906101000a900473ffffffffffffffffffffffffffffffffffffffff1673ffffffffffffffffffffffffffffffffffffffff1614159050919050565b600033905090565b816004600083815260200190815260200160002060006101000a81548173ffffffffffffffffffffffffffffffffffffffff021916908373ffffffffffffffffffffffffffffffffffffffff160217905550808273ffffffffffffffffffffffffffffffffffffffff1661188c836108ce565b73ffffffffffffffffffffffffffffffffffffffff167f8c5be1e5ebec7d5bd14f71427d1e84f3dd0314c0f7b2291e5b200ac8c7c3b92560405160405180910390a45050565b60006118dd826117a5565b61191c576040517f08c379a000000000000000000000000000000000000000000000000000000000815260040161191390613c27565b60405180910390fd5b6000611927836108ce565b90508073ffffffffffffffffffffffffffffffffffffffff168473ffffffffffffffffffffffffffffffffffffffff16148061199657508373ffffffffffffffffffffffffffffffffffffffff1661197e8461058f565b73ffffffffffffffffffffffffffffffffffffffff16145b806119a757506119a681856112b3565b5b91505092915050565b8273ffffffffffffffffffffffffffffffffffffffff166119d0826108ce565b73ffffffffffffffffffffffffffffffffffffffff1614611a26576040517f08c379a0000000000000000000000000000000000000000000000000000000008152600401611a1d90613cb9565b60405180910390fd5b600073ffffffffffffffffffffffffffffffffffffffff168273ffffffffffffffffffffffffffffffffffffffff1603611a95576040517f08c379a0000000000000000000000000000000000000000000000000000000008152600401611a8c90613d4b565b60405180910390fd5b611aa0838383612015565b611aab600082611819565b6001600360008573ffffffffffffffffffffffffffffffffffffffff1673ffffffffffffffffffffffffffffffffffffffff1681526020019081526020016000206000828254611afb9190613d6b565b925050819055506001600360008473ffffffffffffffffffffffffffffffffffffffff1673ffffffffffffffffffffffffffffffffffffffff1681526020019081526020016000206000828254611b529190613d9f565b92505081905550816002600083815260200190815260200160002060006101000a81548173ffffffffffffffffffffffffffffffffffffffff021916908373ffffffffffffffffffffffffffffffffffffffff160217905550808273ffffffffffffffffffffffffffffffffffffffff168473ffffffffffffffffffffffffffffffffffffffff167fddf252ad1be2c89b69c2b068fc378daa952ba7f163c4a11628f55a4df523b3ef60405160405180910390a4505050565b600073ffffffffffffffffffffffffffffffffffffffff168273ffffffffffffffffffffffffffffffffffffffff1603611c7a576040517f08c379a0000000000000000000000000000000000000000000000000000000008152600401611c7190613e41565b60405180910390fd5b611c83816117a5565b15611cc3576040517f08c379a0000000000000000000000000000000000000000000000000000000008152600401611cba90613ead565b60405180910390fd5b611ccf60008383612015565b6001600360008473ffffffffffffffffffffffffffffffffffffffff1673ffffffffffffffffffffffffffffffffffffffff1681526020019081526020016000206000828254611d1f9190613d9f565b92505081905550816002600083815260200190815260200160002060006101000a81548173ffffffffffffffffffffffffffffffffffffffff021916908373ffffffffffffffffffffffffffffffffffffffff160217905550808273ffffffffffffffffffffffffffffffffffffffff16600073ffffffffffffffffffffffffffffffffffffffff167fddf252ad1be2c89b69c2b068fc378daa952ba7f163c4a11628f55a4df523b3ef60405160405180910390a45050565b611de38484846119b0565b611def84848484612127565b611e2e576040517f08c379a0000000000000000000000000000000000000000000000000000000008152600401611e2590613f3f565b60405180910390fd5b50505050565b606060405180602001604052806000815250905090565b606060008203611e92576040518060400160405280600181526020017f30000000000000000000000000000000000000000000000000000000000000008152509050611fa6565b600082905060005b60008214611ec4578080611ead906138cb565b915050600a82611ebd9190613f8e565b9150611e9a565b60008167ffffffffffffffff811115611ee057611edf612b65565b5b6040519080825280601f01601f191660200182016040528015611f125781602001600182028036833780820191505090505b5090505b60008514611f9f57600182611f2b9190613d6b565b9150600a85611f3a9190613fbf565b6030611f469190613d9f565b60f81b818381518110611f5c57611f5b6136dd565b5b60200101907effffffffffffffffffffffffffffffffffffffffffffffffffffffffffffff1916908160001a905350600a85611f989190613f8e565b9450611f16565b8093505050505b919050565b60007f01ffc9a7000000000000000000000000000000000000000000000000000000007bffffffffffffffffffffffffffffffffffffffffffffffffffffffff1916827bffffffffffffffffffffffffffffffffffffffffffffffffffffffff1916149050919050565b6120208383836122ae565b600073ffffffffffffffffffffffffffffffffffffffff168373ffffffffffffffffffffffffffffffffffffffff16036120625761205d816122b3565b6120a1565b8173ffffffffffffffffffffffffffffffffffffffff168373ffffffffffffffffffffffffffffffffffffffff16146120a05761209f83826122fc565b5b5b600073ffffffffffffffffffffffffffffffffffffffff168273ffffffffffffffffffffffffffffffffffffffff16036120e3576120de81612469565b612122565b8273ffffffffffffffffffffffffffffffffffffffff168273ffffffffffffffffffffffffffffffffffffffff161461212157612120828261253a565b5b5b505050565b60006121488473ffffffffffffffffffffffffffffffffffffffff166125b9565b156122a1578373ffffffffffffffffffffffffffffffffffffffff1663150b7a02612171611811565b8786866040518563ffffffff1660e01b81526004016121939493929190614045565b6020604051808303816000875af19250505080156121cf57506040513d601f19601f820116820180604052508101906121cc91906140a6565b60015b612251573d80600081146121ff576040519150601f19603f3d011682016040523d82523d6000602084013e612204565b606091505b506000815103612249576040517f08c379a000000000000000000000000000000000000000000000000000000000815260040161224090613f3f565b60405180910390fd5b805181602001fd5b63150b7a0260e01b7bffffffffffffffffffffffffffffffffffffffffffffffffffffffff1916817bffffffffffffffffffffffffffffffffffffffffffffffffffffffff1916149150506122a6565b600190505b949350505050565b505050565b6008805490506009600083815260200190815260200160002081905550600881908060018154018082558091505060019003906000526020600020016000909190919091505550565b600060016123098461097f565b6123139190613d6b565b90506000600760008481526020019081526020016000205490508181146123f8576000600660008673ffffffffffffffffffffffffffffffffffffffff1673ffffffffffffffffffffffffffffffffffffffff168152602001908152602001600020600084815260200190815260200160002054905080600660008773ffffffffffffffffffffffffffffffffffffffff1673ffffffffffffffffffffffffffffffffffffffff168152602001908152602001600020600084815260200190815260200160002081905550816007600083815260200190815260200160002081905550505b6007600084815260200190815260200160002060009055600660008573ffffffffffffffffffffffffffffffffffffffff1673ffffffffffffffffffffffffffffffffffffffff16815260200190815260200160002060008381526020019081526020016000206000905550505050565b6000600160088054905061247d9190613d6b565b90506000600960008481526020019081526020016000205490506000600883815481106124ad576124ac6136dd565b5b9060005260206000200154905080600883815481106124cf576124ce6136dd565b5b90600052602060002001819055508160096000838152602001908152602001600020819055506009600085815260200190815260200160002060009055600880548061251e5761251d6140d3565b5b6001900381819060005260206000200160009055905550505050565b60006125458361097f565b905081600660008573ffffffffffffffffffffffffffffffffffffffff1673ffffffffffffffffffffffffffffffffffffffff168152602001908152602001600020600083815260200190815260200160002081905550806007600084815260200190815260200160002081905550505050565b600080823b905060008111915050919050565b8280546125d890613340565b90600052602060002090601f0160209004810192826125fa5760008555612641565b82601f1061261357805160ff1916838001178555612641565b82800160010185558215612641579182015b82811115612640578251825591602001919060010190612625565b5b50905061264e9190612705565b5090565b8280548282559060005260206000209081019282156126a1579160200282015b828111156126a05782518290805190602001906126909291906125cc565b5091602001919060010190612672565b5b5090506126ae9190612722565b5090565b6040518060e00160405280600073ffffffffffffffffffffffffffffffffffffffff1681526020016060815260200160608152602001606081526020016000815260200160608152602001600081525090565b5b8082111561271e576000816000905550600101612706565b5090565b5b8082111561274257600081816127399190612746565b50600101612723565b5090565b50805461275290613340565b6000825580601f106127645750612783565b601f0160209004906000526020600020908101906127829190612705565b5b50565b6000604051905090565b600080fd5b600080fd5b60007fffffffff0000000000000000000000000000000000000000000000000000000082169050919050565b6127cf8161279a565b81146127da57600080fd5b50565b6000813590506127ec816127c6565b92915050565b60006020828403121561280857612807612790565b5b6000612816848285016127dd565b91505092915050565b60008115159050919050565b6128348161281f565b82525050565b600060208201905061284f600083018461282b565b92915050565b600081519050919050565b600082825260208201905092915050565b60005b8381101561288f578082015181840152602081019050612874565b8381111561289e576000848401525b50505050565b6000601f19601f8301169050919050565b60006128c082612855565b6128ca8185612860565b93506128da818560208601612871565b6128e3816128a4565b840191505092915050565b6000602082019050818103600083015261290881846128b5565b905092915050565b6000819050919050565b61292381612910565b811461292e57600080fd5b50565b6000813590506129408161291a565b92915050565b60006020828403121561295c5761295b612790565b5b600061296a84828501612931565b91505092915050565b600073ffffffffffffffffffffffffffffffffffffffff82169050919050565b600061299e82612973565b9050919050565b6129ae81612993565b82525050565b60006020820190506129c960008301846129a5565b92915050565b6129d881612993565b81146129e357600080fd5b50565b6000813590506129f5816129cf565b92915050565b60008060408385031215612a1257612a11612790565b5b6000612a20858286016129e6565b9250506020612a3185828601612931565b9150509250929050565b612a4481612910565b82525050565b6000602082019050612a5f6000830184612a3b565b92915050565b600080600060608486031215612a7e57612a7d612790565b5b6000612a8c868287016129e6565b9350506020612a9d868287016129e6565b9250506040612aae86828701612931565b9150509250925092565b600060208284031215612ace57612acd612790565b5b6000612adc848285016129e6565b91505092915050565b600060c082019050612afa60008301896129a5565b8181036020830152612b0c81886128b5565b90508181036040830152612b2081876128b5565b90508181036060830152612b3481866128b5565b9050612b436080830185612a3b565b612b5060a0830184612a3b565b979650505050505050565b600080fd5b600080fd5b7f4e487b7100000000000000000000000000000000000000000000000000000000600052604160045260246000fd5b612b9d826128a4565b810181811067ffffffffffffffff82111715612bbc57612bbb612b65565b5b80604052505050565b6000612bcf612786565b9050612bdb8282612b94565b919050565b600067ffffffffffffffff821115612bfb57612bfa612b65565b5b612c04826128a4565b9050602081019050919050565b82818337600083830152505050565b6000612c33612c2e84612be0565b612bc5565b905082815260208101848484011115612c4f57612c4e612b60565b5b612c5a848285612c11565b509392505050565b600082601f830112612c7757612c76612b5b565b5b8135612c87848260208601612c20565b91505092915050565b600067ffffffffffffffff821115612cab57612caa612b65565b5b602082029050602081019050919050565b600080fd5b6000612cd4612ccf84612c90565b612bc5565b90508083825260208201905060208402830185811115612cf757612cf6612cbc565b5b835b81811015612d3e57803567ffffffffffffffff811115612d1c57612d1b612b5b565b5b808601612d298982612c62565b85526020850194505050602081019050612cf9565b5050509392505050565b600082601f830112612d5d57612d5c612b5b565b5b8135612d6d848260208601612cc1565b91505092915050565b60008060008060008060c08789031215612d9357612d92612790565b5b6000612da189828a016129e6565b965050602087013567ffffffffffffffff811115612dc257612dc1612795565b5b612dce89828a01612c62565b955050604087013567ffffffffffffffff811115612def57612dee612795565b5b612dfb89828a01612c62565b945050606087013567ffffffffffffffff811115612e1c57612e1b612795565b5b612e2889828a01612c62565b935050608087013567ffffffffffffffff811115612e4957612e48612795565b5b612e5589828a01612d48565b92505060a0612e6689828a01612931565b9150509295509295509295565b612e7c8161281f565b8114612e8757600080fd5b50565b600081359050612e9981612e73565b92915050565b60008060408385031215612eb657612eb5612790565b5b6000612ec4858286016129e6565b9250506020612ed585828601612e8a565b9150509250929050565b600081519050919050565b600082825260208201905092915050565b6000819050602082019050919050565b612f1481612910565b82525050565b6000612f268383612f0b565b60208301905092915050565b6000602082019050919050565b6000612f4a82612edf565b612f548185612eea565b9350612f5f83612efb565b8060005b83811015612f90578151612f778882612f1a565b9750612f8283612f32565b925050600181019050612f63565b5085935050505092915050565b60006020820190508181036000830152612fb78184612f3f565b905092915050565b600067ffffffffffffffff821115612fda57612fd9612b65565b5b612fe3826128a4565b9050602081019050919050565b6000613003612ffe84612fbf565b612bc5565b90508281526020810184848401111561301f5761301e612b60565b5b61302a848285612c11565b509392505050565b600082601f83011261304757613046612b5b565b5b8135613057848260208601612ff0565b91505092915050565b6000806000806080858703121561307a57613079612790565b5b6000613088878288016129e6565b9450506020613099878288016129e6565b93505060406130aa87828801612931565b925050606085013567ffffffffffffffff8111156130cb576130ca612795565b5b6130d787828801613032565b91505092959194509250565b600080604083850312156130fa576130f9612790565b5b6000613108858286016129e6565b9250506020613119858286016129e6565b9150509250929050565b61312c81612993565b82525050565b600082825260208201905092915050565b600061314e82612855565b6131588185613132565b9350613168818560208601612871565b613171816128a4565b840191505092915050565b600081519050919050565b600082825260208201905092915050565b6000819050602082019050919050565b60006131b48383613143565b905092915050565b6000602082019050919050565b60006131d48261317c565b6131de8185613187565b9350836020820285016131f085613198565b8060005b8581101561322c578484038952815161320d85826131a8565b9450613218836131bc565b925060208a019950506001810190506131f4565b50829750879550505050505092915050565b600060e0830160008301516132566000860182613123565b506020830151848203602086015261326e8282613143565b915050604083015184820360408601526132888282613143565b915050606083015184820360608601526132a28282613143565b91505060808301516132b76080860182612f0b565b5060a083015184820360a08601526132cf82826131c9565b91505060c08301516132e460c0860182612f0b565b508091505092915050565b60006020820190508181036000830152613309818461323e565b905092915050565b7f4e487b7100000000000000000000000000000000000000000000000000000000600052602260045260246000fd5b6000600282049050600182168061335857607f821691505b60208210810361336b5761336a613311565b5b50919050565b7f4552433732313a20617070726f76656420717565727920666f72206e6f6e657860008201527f697374656e7420746f6b656e0000000000000000000000000000000000000000602082015250565b60006133cd602c83612860565b91506133d882613371565b604082019050919050565b600060208201905081810360008301526133fc816133c0565b9050919050565b7f4552433732313a20617070726f76616c20746f2063757272656e74206f776e6560008201527f7200000000000000000000000000000000000000000000000000000000000000602082015250565b600061345f602183612860565b915061346a82613403565b604082019050919050565b6000602082019050818103600083015261348e81613452565b9050919050565b7f4552433732313a20617070726f76652063616c6c6572206973206e6f74206f7760008201527f6e6572206e6f7220617070726f76656420666f7220616c6c0000000000000000602082015250565b60006134f1603883612860565b91506134fc82613495565b604082019050919050565b60006020820190508181036000830152613520816134e4565b9050919050565b7f4552433732313a207472616e736665722063616c6c6572206973206e6f74206f60008201527f776e6572206e6f7220617070726f766564000000000000000000000000000000602082015250565b6000613583603183612860565b915061358e82613527565b604082019050919050565b600060208201905081810360008301526135b281613576565b9050919050565b7f455243373231456e756d657261626c653a206f776e657220696e646578206f7560008201527f74206f6620626f756e6473000000000000000000000000000000000000000000602082015250565b6000613615602b83612860565b9150613620826135b9565b604082019050919050565b6000602082019050818103600083015261364481613608565b9050919050565b7f455243373231456e756d657261626c653a20676c6f62616c20696e646578206f60008201527f7574206f6620626f756e64730000000000000000000000000000000000000000602082015250565b60006136a7602c83612860565b91506136b28261364b565b604082019050919050565b600060208201905081810360008301526136d68161369a565b9050919050565b7f4e487b7100000000000000000000000000000000000000000000000000000000600052603260045260246000fd5b7f4552433732313a206f776e657220717565727920666f72206e6f6e657869737460008201527f656e7420746f6b656e0000000000000000000000000000000000000000000000602082015250565b6000613768602983612860565b91506137738261370c565b604082019050919050565b600060208201905081810360008301526137978161375b565b9050919050565b7f4552433732313a2062616c616e636520717565727920666f7220746865207a6560008201527f726f206164647265737300000000000000000000000000000000000000000000602082015250565b60006137fa602a83612860565b91506138058261379e565b604082019050919050565b60006020820190508181036000830152613829816137ed565b9050919050565b7f4552433732313a20617070726f766520746f2063616c6c657200000000000000600082015250565b6000613866601983612860565b915061387182613830565b602082019050919050565b6000602082019050818103600083015261389581613859565b9050919050565b7f4e487b7100000000000000000000000000000000000000000000000000000000600052601160045260246000fd5b60006138d682612910565b91507fffffffffffffffffffffffffffffffffffffffffffffffffffffffffffffffff82036139085761390761389c565b5b600182019050919050565b7f546f6b656e20646f6573206e6f74206578697374000000000000000000000000600082015250565b6000613949601483612860565b915061395482613913565b602082019050919050565b600060208201905081810360008301526139788161393c565b9050919050565b7f4e6f7420746f6b656e206f776e65720000000000000000000000000000000000600082015250565b60006139b5600f83612860565b91506139c08261397f565b602082019050919050565b600060208201905081810360008301526139e4816139a8565b9050919050565b7f496e76616c696420726563697069656e74206164647265737300000000000000600082015250565b6000613a21601983612860565b9150613a2c826139eb565b602082019050919050565b60006020820190508181036000830152613a5081613a14565b9050919050565b7f4552433732314d657461646174613a2055524920717565727920666f72206e6f60008201527f6e6578697374656e7420746f6b656e0000000000000000000000000000000000602082015250565b6000613ab3602f83612860565b9150613abe82613a57565b604082019050919050565b60006020820190508181036000830152613ae281613aa6565b9050919050565b600081905092915050565b6000613aff82612855565b613b098185613ae9565b9350613b19818560208601612871565b80840191505092915050565b6000613b318285613af4565b9150613b3d8284613af4565b91508190509392505050565b7f5469636b657420646f6573206e6f742065786973740000000000000000000000600082015250565b6000613b7f601583612860565b9150613b8a82613b49565b602082019050919050565b60006020820190508181036000830152613bae81613b72565b9050919050565b7f4552433732313a206f70657261746f7220717565727920666f72206e6f6e657860008201527f697374656e7420746f6b656e0000000000000000000000000000000000000000602082015250565b6000613c11602c83612860565b9150613c1c82613bb5565b604082019050919050565b60006020820190508181036000830152613c4081613c04565b9050919050565b7f4552433732313a207472616e73666572206f6620746f6b656e2074686174206960008201527f73206e6f74206f776e0000000000000000000000000000000000000000000000602082015250565b6000613ca3602983612860565b9150613cae82613c47565b604082019050919050565b60006020820190508181036000830152613cd281613c96565b9050919050565b7f4552433732313a207472616e7366657220746f20746865207a65726f2061646460008201527f7265737300000000000000000000000000000000000000000000000000000000602082015250565b6000613d35602483612860565b9150613d4082613cd9565b604082019050919050565b60006020820190508181036000830152613d6481613d28565b9050919050565b6000613d7682612910565b9150613d8183612910565b925082821015613d9457613d9361389c565b5b828203905092915050565b6000613daa82612910565b9150613db583612910565b9250827fffffffffffffffffffffffffffffffffffffffffffffffffffffffffffffffff03821115613dea57613de961389c565b5b828201905092915050565b7f4552433732313a206d696e7420746f20746865207a65726f2061646472657373600082015250565b6000613e2b602083612860565b9150613e3682613df5565b602082019050919050565b60006020820190508181036000830152613e5a81613e1e565b9050919050565b7f4552433732313a20746f6b656e20616c7265616479206d696e74656400000000600082015250565b6000613e97601c83612860565b9150613ea282613e61565b602082019050919050565b60006020820190508181036000830152613ec681613e8a565b9050919050565b7f4552433732313a207472616e7366657220746f206e6f6e20455243373231526560008201527f63656976657220696d706c656d656e7465720000000000000000000000000000602082015250565b6000613f29603283612860565b9150613f3482613ecd565b604082019050919050565b60006020820190508181036000830152613f5881613f1c565b9050919050565b7f4e487b7100000000000000000000000000000000000000000000000000000000600052601260045260246000fd5b6000613f9982612910565b9150613fa483612910565b925082613fb457613fb3613f5f565b5b828204905092915050565b6000613fca82612910565b9150613fd583612910565b925082613fe557613fe4613f5f565b5b828206905092915050565b600081519050919050565b600082825260208201905092915050565b600061401782613ff0565b6140218185613ffb565b9350614031818560208601612871565b61403a816128a4565b840191505092915050565b600060808201905061405a60008301876129a5565b61406760208301866129a5565b6140746040830185612a3b565b8181036060830152614086818461400c565b905095945050505050565b6000815190506140a0816127c6565b92915050565b6000602082840312156140bc576140bb612790565b5b60006140ca84828501614091565b91505092915050565b7f4e487b7100000000000000000000000000000000000000000000000000000000600052603160045260246000fdfea264697066735822122065309fe80f71bb9db74607b359c6bb2ca4d7193dfedaa27f7edb26be81f2a43e64736f6c634300080d0033",
  "immutableReferences": {},
  "source": "// SPDX-License-Identifier: MIT\r\n//   MIT    .\r\n\r\npragma solidity 0.8.13;\r\n\r\nimport \"@openzeppelin/contracts/token/ERC721/extensions/ERC721Enumerable.sol\";\r\n\r\ncontract TicketNFT is ERC721Enumerable {\r\n    //      Purchase  \r\n    struct Purchase {\r\n        address buyer; //  \r\n        string concert; //  \r\n        string concertDate; //  \r\n        string concertTime; //  \r\n        uint256 purchaseTime; //  \r\n        string[] selectedSeats; //   \r\n        uint256 paymentAmount; //   \r\n    }\r\n\r\n    //  ID      \r\n    Purchase[] public purchases;\r\n\r\n    // ERC721Enumerable   TicketNFT  \r\n    constructor(\r\n        string memory name, //  \r\n        string memory symbol //  \r\n    ) ERC721(name, symbol) {} // ERC721Enumerable  \r\n\r\n    //   \r\n    function mint(\r\n        address _to, //    \r\n        string memory _concert, //  \r\n        string memory _concertDate, //  \r\n        string memory _concertTime, //  \r\n        string[] memory _selectedSeats, //   \r\n        uint256 _paymentAmount //  \r\n    ) external returns (uint256) {\r\n        //  ID  \r\n        uint256 tokenId = purchases.length; //    ID\r\n        _mint(_to, tokenId); // ERC721 mint    \r\n        //      \r\n        Purchase memory newPurchase = Purchase({\r\n            buyer: _to,\r\n            concert: _concert,\r\n            concertDate: _concertDate,\r\n            concertTime: _concertTime,\r\n            purchaseTime: block.timestamp,\r\n            selectedSeats: _selectedSeats,\r\n            paymentAmount: _paymentAmount\r\n        });\r\n        purchases.push(newPurchase);\r\n        return tokenId; //  ID \r\n    }\r\n\r\n    function getTicketInfo(\r\n        uint256 _tokenId\r\n    ) external view returns (Purchase memory) {\r\n        require(_tokenId < purchases.length, \"Ticket does not exist\");\r\n        return purchases[_tokenId];\r\n    }\r\n\r\n    function getOwnedTicketIds(\r\n        address _owner\r\n    ) external view returns (uint256[] memory) {\r\n        uint256 balance = balanceOf(_owner);\r\n        uint256[] memory tokenIds = new uint256[](balance);\r\n        for (uint256 i = 0; i < balance; i++) {\r\n            tokenIds[i] = tokenOfOwnerByIndex(_owner, i);\r\n        }\r\n        return tokenIds;\r\n    }\r\n\r\n    // NFT  \r\n    function transfer(address _to, uint256 _tokenId) external {\r\n        require(_exists(_tokenId), \"Token does not exist\");\r\n        address owner = ownerOf(_tokenId);\r\n        require(msg.sender == owner, \"Not token owner\");\r\n        require(_to != address(0), \"Invalid recipient address\");\r\n        _transfer(owner, _to, _tokenId);\r\n    }\r\n}\r\n",
  "sourcePath": "C:\\Users\\user\\Desktop\\project\\test\\movie\\client\\src\\contracts\\TicketNFT.sol",
  "compiler": {
    "name": "solc",
    "version": "0.8.13+commit.abaa5c0e.Emscripten.clang"
  },
  "schemaVersion": "3.4.16",
  "updatedAt": "2024-04-22T04:24:42.333Z",
  "networkType": "ethereum",
  "devdoc": {
    "kind": "dev",
    "methods": {
      "approve(address,uint256)": {
        "details": "See {IERC721-approve}."
      },
      "balanceOf(address)": {
        "details": "See {IERC721-balanceOf}."
      },
      "getApproved(uint256)": {
        "details": "See {IERC721-getApproved}."
      },
      "isApprovedForAll(address,address)": {
        "details": "See {IERC721-isApprovedForAll}."
      },
      "name()": {
        "details": "See {IERC721Metadata-name}."
      },
      "ownerOf(uint256)": {
        "details": "See {IERC721-ownerOf}."
      },
      "safeTransferFrom(address,address,uint256)": {
        "details": "See {IERC721-safeTransferFrom}."
      },
      "safeTransferFrom(address,address,uint256,bytes)": {
        "details": "See {IERC721-safeTransferFrom}."
      },
      "setApprovalForAll(address,bool)": {
        "details": "See {IERC721-setApprovalForAll}."
      },
      "supportsInterface(bytes4)": {
        "details": "See {IERC165-supportsInterface}."
      },
      "symbol()": {
        "details": "See {IERC721Metadata-symbol}."
      },
      "tokenByIndex(uint256)": {
        "details": "See {IERC721Enumerable-tokenByIndex}."
      },
      "tokenOfOwnerByIndex(address,uint256)": {
        "details": "See {IERC721Enumerable-tokenOfOwnerByIndex}."
      },
      "tokenURI(uint256)": {
        "details": "See {IERC721Metadata-tokenURI}."
      },
      "totalSupply()": {
        "details": "See {IERC721Enumerable-totalSupply}."
      },
      "transferFrom(address,address,uint256)": {
        "details": "See {IERC721-transferFrom}."
      }
    },
    "version": 1
  },
  "userdoc": {
    "kind": "user",
    "methods": {},
    "version": 1
  }
}