{
  "contractName": "TicketNFT",
  "abi": [
    {
      "inputs": [
        {
          "internalType": "string",
          "name": "name",
          "type": "string"
        },
        {
          "internalType": "string",
          "name": "symbol",
          "type": "string"
        }
      ],
      "stateMutability": "nonpayable",
      "type": "constructor"
    },
    {
      "anonymous": false,
      "inputs": [
        {
          "indexed": true,
          "internalType": "address",
          "name": "owner",
          "type": "address"
        },
        {
          "indexed": true,
          "internalType": "address",
          "name": "approved",
          "type": "address"
        },
        {
          "indexed": true,
          "internalType": "uint256",
          "name": "tokenId",
          "type": "uint256"
        }
      ],
      "name": "Approval",
      "type": "event"
    },
    {
      "anonymous": false,
      "inputs": [
        {
          "indexed": true,
          "internalType": "address",
          "name": "owner",
          "type": "address"
        },
        {
          "indexed": true,
          "internalType": "address",
          "name": "operator",
          "type": "address"
        },
        {
          "indexed": false,
          "internalType": "bool",
          "name": "approved",
          "type": "bool"
        }
      ],
      "name": "ApprovalForAll",
      "type": "event"
    },
    {
      "anonymous": false,
      "inputs": [
        {
          "indexed": true,
          "internalType": "address",
          "name": "from",
          "type": "address"
        },
        {
          "indexed": true,
          "internalType": "address",
          "name": "to",
          "type": "address"
        },
        {
          "indexed": true,
          "internalType": "uint256",
          "name": "tokenId",
          "type": "uint256"
        }
      ],
      "name": "Transfer",
      "type": "event"
    },
    {
      "inputs": [
        {
          "internalType": "address",
          "name": "to",
          "type": "address"
        },
        {
          "internalType": "uint256",
          "name": "tokenId",
          "type": "uint256"
        }
      ],
      "name": "approve",
      "outputs": [],
      "stateMutability": "nonpayable",
      "type": "function"
    },
    {
      "inputs": [
        {
          "internalType": "address",
          "name": "owner",
          "type": "address"
        }
      ],
      "name": "balanceOf",
      "outputs": [
        {
          "internalType": "uint256",
          "name": "",
          "type": "uint256"
        }
      ],
      "stateMutability": "view",
      "type": "function",
      "constant": true
    },
    {
      "inputs": [
        {
          "internalType": "uint256",
          "name": "tokenId",
          "type": "uint256"
        }
      ],
      "name": "getApproved",
      "outputs": [
        {
          "internalType": "address",
          "name": "",
          "type": "address"
        }
      ],
      "stateMutability": "view",
      "type": "function",
      "constant": true
    },
    {
      "inputs": [
        {
          "internalType": "address",
          "name": "owner",
          "type": "address"
        },
        {
          "internalType": "address",
          "name": "operator",
          "type": "address"
        }
      ],
      "name": "isApprovedForAll",
      "outputs": [
        {
          "internalType": "bool",
          "name": "",
          "type": "bool"
        }
      ],
      "stateMutability": "view",
      "type": "function",
      "constant": true
    },
    {
      "inputs": [],
      "name": "name",
      "outputs": [
        {
          "internalType": "string",
          "name": "",
          "type": "string"
        }
      ],
      "stateMutability": "view",
      "type": "function",
      "constant": true
    },
    {
      "inputs": [
        {
          "internalType": "uint256",
          "name": "tokenId",
          "type": "uint256"
        }
      ],
      "name": "ownerOf",
      "outputs": [
        {
          "internalType": "address",
          "name": "",
          "type": "address"
        }
      ],
      "stateMutability": "view",
      "type": "function",
      "constant": true
    },
    {
      "inputs": [
        {
          "internalType": "uint256",
          "name": "",
          "type": "uint256"
        }
      ],
      "name": "purchases",
      "outputs": [
        {
          "internalType": "address",
          "name": "buyer",
          "type": "address"
        },
        {
          "internalType": "string",
          "name": "concert",
          "type": "string"
        },
        {
          "internalType": "string",
          "name": "concertDate",
          "type": "string"
        },
        {
          "internalType": "string",
          "name": "concertTime",
          "type": "string"
        },
        {
          "internalType": "uint256",
          "name": "purchaseTime",
          "type": "uint256"
        },
        {
          "internalType": "uint256",
          "name": "paymentAmount",
          "type": "uint256"
        },
        {
          "internalType": "uint256",
          "name": "totalTicket",
          "type": "uint256"
        }
      ],
      "stateMutability": "view",
      "type": "function",
      "constant": true
    },
    {
      "inputs": [
        {
          "internalType": "address",
          "name": "from",
          "type": "address"
        },
        {
          "internalType": "address",
          "name": "to",
          "type": "address"
        },
        {
          "internalType": "uint256",
          "name": "tokenId",
          "type": "uint256"
        }
      ],
      "name": "safeTransferFrom",
      "outputs": [],
      "stateMutability": "nonpayable",
      "type": "function"
    },
    {
      "inputs": [
        {
          "internalType": "address",
          "name": "from",
          "type": "address"
        },
        {
          "internalType": "address",
          "name": "to",
          "type": "address"
        },
        {
          "internalType": "uint256",
          "name": "tokenId",
          "type": "uint256"
        },
        {
          "internalType": "bytes",
          "name": "_data",
          "type": "bytes"
        }
      ],
      "name": "safeTransferFrom",
      "outputs": [],
      "stateMutability": "nonpayable",
      "type": "function"
    },
    {
      "inputs": [
        {
          "internalType": "address",
          "name": "operator",
          "type": "address"
        },
        {
          "internalType": "bool",
          "name": "approved",
          "type": "bool"
        }
      ],
      "name": "setApprovalForAll",
      "outputs": [],
      "stateMutability": "nonpayable",
      "type": "function"
    },
    {
      "inputs": [
        {
          "internalType": "bytes4",
          "name": "interfaceId",
          "type": "bytes4"
        }
      ],
      "name": "supportsInterface",
      "outputs": [
        {
          "internalType": "bool",
          "name": "",
          "type": "bool"
        }
      ],
      "stateMutability": "view",
      "type": "function",
      "constant": true
    },
    {
      "inputs": [],
      "name": "symbol",
      "outputs": [
        {
          "internalType": "string",
          "name": "",
          "type": "string"
        }
      ],
      "stateMutability": "view",
      "type": "function",
      "constant": true
    },
    {
      "inputs": [
        {
          "internalType": "uint256",
          "name": "index",
          "type": "uint256"
        }
      ],
      "name": "tokenByIndex",
      "outputs": [
        {
          "internalType": "uint256",
          "name": "",
          "type": "uint256"
        }
      ],
      "stateMutability": "view",
      "type": "function",
      "constant": true
    },
    {
      "inputs": [
        {
          "internalType": "address",
          "name": "owner",
          "type": "address"
        },
        {
          "internalType": "uint256",
          "name": "index",
          "type": "uint256"
        }
      ],
      "name": "tokenOfOwnerByIndex",
      "outputs": [
        {
          "internalType": "uint256",
          "name": "",
          "type": "uint256"
        }
      ],
      "stateMutability": "view",
      "type": "function",
      "constant": true
    },
    {
      "inputs": [
        {
          "internalType": "uint256",
          "name": "tokenId",
          "type": "uint256"
        }
      ],
      "name": "tokenURI",
      "outputs": [
        {
          "internalType": "string",
          "name": "",
          "type": "string"
        }
      ],
      "stateMutability": "view",
      "type": "function",
      "constant": true
    },
    {
      "inputs": [],
      "name": "totalSupply",
      "outputs": [
        {
          "internalType": "uint256",
          "name": "",
          "type": "uint256"
        }
      ],
      "stateMutability": "view",
      "type": "function",
      "constant": true
    },
    {
      "inputs": [
        {
          "internalType": "uint256",
          "name": "",
          "type": "uint256"
        },
        {
          "internalType": "uint256",
          "name": "",
          "type": "uint256"
        }
      ],
      "name": "tradeHistories",
      "outputs": [
        {
          "internalType": "address",
          "name": "buyer",
          "type": "address"
        },
        {
          "internalType": "string",
          "name": "concert",
          "type": "string"
        },
        {
          "internalType": "string",
          "name": "concertDate",
          "type": "string"
        },
        {
          "internalType": "string",
          "name": "concertTime",
          "type": "string"
        },
        {
          "internalType": "uint256",
          "name": "purchaseTime",
          "type": "uint256"
        },
        {
          "internalType": "uint256",
          "name": "paymentAmount",
          "type": "uint256"
        },
        {
          "internalType": "uint256",
          "name": "totalTicket",
          "type": "uint256"
        }
      ],
      "stateMutability": "view",
      "type": "function",
      "constant": true
    },
    {
      "inputs": [
        {
          "internalType": "address",
          "name": "from",
          "type": "address"
        },
        {
          "internalType": "address",
          "name": "to",
          "type": "address"
        },
        {
          "internalType": "uint256",
          "name": "tokenId",
          "type": "uint256"
        }
      ],
      "name": "transferFrom",
      "outputs": [],
      "stateMutability": "nonpayable",
      "type": "function"
    },
    {
      "inputs": [
        {
          "internalType": "address",
          "name": "_to",
          "type": "address"
        },
        {
          "internalType": "string",
          "name": "_concert",
          "type": "string"
        },
        {
          "internalType": "string",
          "name": "_concertDate",
          "type": "string"
        },
        {
          "internalType": "string",
          "name": "_concertTime",
          "type": "string"
        },
        {
          "internalType": "uint256",
          "name": "_paymentAmount",
          "type": "uint256"
        },
        {
          "internalType": "uint256",
          "name": "_totalTicket",
          "type": "uint256"
        }
      ],
      "name": "mint",
      "outputs": [
        {
          "internalType": "uint256",
          "name": "",
          "type": "uint256"
        }
      ],
      "stateMutability": "nonpayable",
      "type": "function"
    },
    {
      "inputs": [
        {
          "internalType": "uint256",
          "name": "_tokenId",
          "type": "uint256"
        }
      ],
      "name": "getTicketInfo",
      "outputs": [
        {
          "components": [
            {
              "internalType": "address",
              "name": "buyer",
              "type": "address"
            },
            {
              "internalType": "string",
              "name": "concert",
              "type": "string"
            },
            {
              "internalType": "string",
              "name": "concertDate",
              "type": "string"
            },
            {
              "internalType": "string",
              "name": "concertTime",
              "type": "string"
            },
            {
              "internalType": "uint256",
              "name": "purchaseTime",
              "type": "uint256"
            },
            {
              "internalType": "uint256",
              "name": "paymentAmount",
              "type": "uint256"
            },
            {
              "internalType": "uint256",
              "name": "totalTicket",
              "type": "uint256"
            }
          ],
          "internalType": "struct TicketNFT.Purchase",
          "name": "",
          "type": "tuple"
        }
      ],
      "stateMutability": "view",
      "type": "function",
      "constant": true
    },
    {
      "inputs": [
        {
          "internalType": "address",
          "name": "_owner",
          "type": "address"
        }
      ],
      "name": "getOwnedTicketIds",
      "outputs": [
        {
          "internalType": "uint256[]",
          "name": "",
          "type": "uint256[]"
        }
      ],
      "stateMutability": "view",
      "type": "function",
      "constant": true
    },
    {
      "inputs": [
        {
          "internalType": "address",
          "name": "_to",
          "type": "address"
        },
        {
          "internalType": "uint256",
          "name": "_tokenId",
          "type": "uint256"
        }
      ],
      "name": "transfer",
      "outputs": [],
      "stateMutability": "nonpayable",
      "type": "function"
    },
    {
      "inputs": [
        {
          "internalType": "uint256",
          "name": "_tokenId",
          "type": "uint256"
        }
      ],
      "name": "getTradeHistory",
      "outputs": [
        {
          "components": [
            {
              "internalType": "address",
              "name": "buyer",
              "type": "address"
            },
            {
              "internalType": "string",
              "name": "concert",
              "type": "string"
            },
            {
              "internalType": "string",
              "name": "concertDate",
              "type": "string"
            },
            {
              "internalType": "string",
              "name": "concertTime",
              "type": "string"
            },
            {
              "internalType": "uint256",
              "name": "purchaseTime",
              "type": "uint256"
            },
            {
              "internalType": "uint256",
              "name": "paymentAmount",
              "type": "uint256"
            },
            {
              "internalType": "uint256",
              "name": "totalTicket",
              "type": "uint256"
            }
          ],
          "internalType": "struct TicketNFT.Purchase[]",
          "name": "",
          "type": "tuple[]"
        }
      ],
      "stateMutability": "view",
      "type": "function",
      "constant": true
    }
  ],
  "bytecode": "0x60806040523480156200001157600080fd5b5060405162004d2938038062004d298339818101604052810190620000379190620002c2565b818181600090805190602001906200005192919062000075565b5080600190805190602001906200006a92919062000075565b5050505050620003ab565b828054620000839062000376565b90600052602060002090601f016020900481019282620000a75760008555620000f3565b82601f10620000c257805160ff1916838001178555620000f3565b82800160010185558215620000f3579182015b82811115620000f2578251825591602001919060010190620000d5565b5b50905062000102919062000106565b5090565b5b808211156200012157600081600090555060010162000107565b5090565b6000604051905090565b600080fd5b600080fd5b600080fd5b600080fd5b6000601f19601f8301169050919050565b7f4e487b7100000000000000000000000000000000000000000000000000000000600052604160045260246000fd5b6200018e8262000143565b810181811067ffffffffffffffff82111715620001b057620001af62000154565b5b80604052505050565b6000620001c562000125565b9050620001d3828262000183565b919050565b600067ffffffffffffffff821115620001f657620001f562000154565b5b620002018262000143565b9050602081019050919050565b60005b838110156200022e57808201518184015260208101905062000211565b838111156200023e576000848401525b50505050565b60006200025b6200025584620001d8565b620001b9565b9050828152602081018484840111156200027a57620002796200013e565b5b620002878482856200020e565b509392505050565b600082601f830112620002a757620002a662000139565b5b8151620002b984826020860162000244565b91505092915050565b60008060408385031215620002dc57620002db6200012f565b5b600083015167ffffffffffffffff811115620002fd57620002fc62000134565b5b6200030b858286016200028f565b925050602083015167ffffffffffffffff8111156200032f576200032e62000134565b5b6200033d858286016200028f565b9150509250929050565b7f4e487b7100000000000000000000000000000000000000000000000000000000600052602260045260246000fd5b600060028204905060018216806200038f57607f821691505b602082108103620003a557620003a462000347565b5b50919050565b61496e80620003bb6000396000f3fe608060405234801561001057600080fd5b506004361061014d5760003560e01c80638392fe31116100c3578063b88d4fde1161007c578063b88d4fde146103ee578063c74e07ac1461040a578063c87b56dd1461043a578063d9e83b541461046a578063e985e9c5146104a0578063ff99a063146104d05761014d565b80638392fe3114610302578063873c5e601461033857806395d89b4114610368578063a22cb46514610386578063a4bfd0cc146103a2578063a9059cbb146103d25761014d565b806323b872dd1161011557806323b872dd1461020a5780632f745c591461022657806342842e0e146102565780634f6ccce7146102725780636352211e146102a257806370a08231146102d25761014d565b806301ffc9a71461015257806306fdde0314610182578063081812fc146101a0578063095ea7b3146101d057806318160ddd146101ec575b600080fd5b61016c60048036038101906101679190613017565b610500565b604051610179919061305f565b60405180910390f35b61018a61057a565b6040516101979190613113565b60405180910390f35b6101ba60048036038101906101b5919061316b565b61060c565b6040516101c791906131d9565b60405180910390f35b6101ea60048036038101906101e59190613220565b610691565b005b6101f46107a8565b604051610201919061326f565b60405180910390f35b610224600480360381019061021f919061328a565b6107b5565b005b610240600480360381019061023b9190613220565b610815565b60405161024d919061326f565b60405180910390f35b610270600480360381019061026b919061328a565b6108ba565b005b61028c6004803603810190610287919061316b565b6108da565b604051610299919061326f565b60405180910390f35b6102bc60048036038101906102b7919061316b565b61094b565b6040516102c991906131d9565b60405180910390f35b6102ec60048036038101906102e791906132dd565b6109fc565b6040516102f9919061326f565b60405180910390f35b61031c6004803603810190610317919061316b565b610ab3565b60405161032f979695949392919061330a565b60405180910390f35b610352600480360381019061034d919061316b565b610cbd565b60405161035f9190613562565b60405180910390f35b610370610f59565b60405161037d9190613113565b60405180910390f35b6103a0600480360381019061039b91906135b0565b610feb565b005b6103bc60048036038101906103b791906132dd565b61116b565b6040516103c9919061369f565b60405180910390f35b6103ec60048036038101906103e79190613220565b611219565b005b610408600480360381019061040391906137f6565b6116f5565b005b610424600480360381019061041f919061391a565b611757565b604051610431919061326f565b60405180910390f35b610454600480360381019061044f919061316b565b6119ad565b6040516104619190613113565b60405180910390f35b610484600480360381019061047f91906139fb565b611a54565b604051610497979695949392919061330a565b60405180910390f35b6104ba60048036038101906104b59190613a3b565b611c6b565b6040516104c7919061305f565b60405180910390f35b6104ea60048036038101906104e5919061316b565b611cff565b6040516104f79190613b25565b60405180910390f35b60007f780e9d63000000000000000000000000000000000000000000000000000000007bffffffffffffffffffffffffffffffffffffffffffffffffffffffff1916827bffffffffffffffffffffffffffffffffffffffffffffffffffffffff19161480610573575061057282611fac565b5b9050919050565b60606000805461058990613b76565b80601f01602080910402602001604051908101604052809291908181526020018280546105b590613b76565b80156106025780601f106105d757610100808354040283529160200191610602565b820191906000526020600020905b8154815290600101906020018083116105e557829003601f168201915b5050505050905090565b60006106178261208e565b610656576040517f08c379a000000000000000000000000000000000000000000000000000000000815260040161064d90613c19565b60405180910390fd5b6004600083815260200190815260200160002060009054906101000a900473ffffffffffffffffffffffffffffffffffffffff169050919050565b600061069c8261094b565b90508073ffffffffffffffffffffffffffffffffffffffff168373ffffffffffffffffffffffffffffffffffffffff160361070c576040517f08c379a000000000000000000000000000000000000000000000000000000000815260040161070390613cab565b60405180910390fd5b8073ffffffffffffffffffffffffffffffffffffffff1661072b6120fa565b73ffffffffffffffffffffffffffffffffffffffff16148061075a5750610759816107546120fa565b611c6b565b5b610799576040517f08c379a000000000000000000000000000000000000000000000000000000000815260040161079090613d3d565b60405180910390fd5b6107a38383612102565b505050565b6000600880549050905090565b6107c66107c06120fa565b826121bb565b610805576040517f08c379a00000000000000000000000000000000000000000000000000000000081526004016107fc90613dcf565b60405180910390fd5b610810838383612299565b505050565b6000610820836109fc565b8210610861576040517f08c379a000000000000000000000000000000000000000000000000000000000815260040161085890613e61565b60405180910390fd5b600660008473ffffffffffffffffffffffffffffffffffffffff1673ffffffffffffffffffffffffffffffffffffffff168152602001908152602001600020600083815260200190815260200160002054905092915050565b6108d5838383604051806020016040528060008152506116f5565b505050565b60006108e46107a8565b8210610925576040517f08c379a000000000000000000000000000000000000000000000000000000000815260040161091c90613ef3565b60405180910390fd5b6008828154811061093957610938613f13565b5b90600052602060002001549050919050565b6000806002600084815260200190815260200160002060009054906101000a900473ffffffffffffffffffffffffffffffffffffffff169050600073ffffffffffffffffffffffffffffffffffffffff168173ffffffffffffffffffffffffffffffffffffffff16036109f3576040517f08c379a00000000000000000000000000000000000000000000000000000000081526004016109ea90613fb4565b60405180910390fd5b80915050919050565b60008073ffffffffffffffffffffffffffffffffffffffff168273ffffffffffffffffffffffffffffffffffffffff1603610a6c576040517f08c379a0000000000000000000000000000000000000000000000000000000008152600401610a6390614046565b60405180910390fd5b600360008373ffffffffffffffffffffffffffffffffffffffff1673ffffffffffffffffffffffffffffffffffffffff168152602001908152602001600020549050919050565b600a8181548110610ac357600080fd5b90600052602060002090600702016000915090508060000160009054906101000a900473ffffffffffffffffffffffffffffffffffffffff1690806001018054610b0c90613b76565b80601f0160208091040260200160405190810160405280929190818152602001828054610b3890613b76565b8015610b855780601f10610b5a57610100808354040283529160200191610b85565b820191906000526020600020905b815481529060010190602001808311610b6857829003601f168201915b505050505090806002018054610b9a90613b76565b80601f0160208091040260200160405190810160405280929190818152602001828054610bc690613b76565b8015610c135780601f10610be857610100808354040283529160200191610c13565b820191906000526020600020905b815481529060010190602001808311610bf657829003601f168201915b505050505090806003018054610c2890613b76565b80601f0160208091040260200160405190810160405280929190818152602001828054610c5490613b76565b8015610ca15780601f10610c7657610100808354040283529160200191610ca1565b820191906000526020600020905b815481529060010190602001808311610c8457829003601f168201915b5050505050908060040154908060050154908060060154905087565b6060600b6000838152602001908152602001600020805480602002602001604051908101604052809291908181526020016000905b82821015610f4e57838290600052602060002090600702016040518060e00160405290816000820160009054906101000a900473ffffffffffffffffffffffffffffffffffffffff1673ffffffffffffffffffffffffffffffffffffffff1673ffffffffffffffffffffffffffffffffffffffff168152602001600182018054610d7b90613b76565b80601f0160208091040260200160405190810160405280929190818152602001828054610da790613b76565b8015610df45780601f10610dc957610100808354040283529160200191610df4565b820191906000526020600020905b815481529060010190602001808311610dd757829003601f168201915b50505050508152602001600282018054610e0d90613b76565b80601f0160208091040260200160405190810160405280929190818152602001828054610e3990613b76565b8015610e865780601f10610e5b57610100808354040283529160200191610e86565b820191906000526020600020905b815481529060010190602001808311610e6957829003601f168201915b50505050508152602001600382018054610e9f90613b76565b80601f0160208091040260200160405190810160405280929190818152602001828054610ecb90613b76565b8015610f185780601f10610eed57610100808354040283529160200191610f18565b820191906000526020600020905b815481529060010190602001808311610efb57829003601f168201915b50505050508152602001600482015481526020016005820154815260200160068201548152505081526020019060010190610cf2565b505050509050919050565b606060018054610f6890613b76565b80601f0160208091040260200160405190810160405280929190818152602001828054610f9490613b76565b8015610fe15780601f10610fb657610100808354040283529160200191610fe1565b820191906000526020600020905b815481529060010190602001808311610fc457829003601f168201915b5050505050905090565b610ff36120fa565b73ffffffffffffffffffffffffffffffffffffffff168273ffffffffffffffffffffffffffffffffffffffff1603611060576040517f08c379a0000000000000000000000000000000000000000000000000000000008152600401611057906140b2565b60405180910390fd5b806005600061106d6120fa565b73ffffffffffffffffffffffffffffffffffffffff1673ffffffffffffffffffffffffffffffffffffffff16815260200190815260200160002060008473ffffffffffffffffffffffffffffffffffffffff1673ffffffffffffffffffffffffffffffffffffffff16815260200190815260200160002060006101000a81548160ff0219169083151502179055508173ffffffffffffffffffffffffffffffffffffffff1661111a6120fa565b73ffffffffffffffffffffffffffffffffffffffff167f17307eab39ab6107e8899845ad3d59bd9653f200f220920489ca2b5937696c318360405161115f919061305f565b60405180910390a35050565b60606000611178836109fc565b905060008167ffffffffffffffff811115611196576111956136cb565b5b6040519080825280602002602001820160405280156111c45781602001602082028036833780820191505090505b50905060005b8281101561120e576111dc8582610815565b8282815181106111ef576111ee613f13565b5b602002602001018181525050808061120690614101565b9150506111ca565b508092505050919050565b6112228161208e565b611261576040517f08c379a000000000000000000000000000000000000000000000000000000000815260040161125890614195565b60405180910390fd5b600061126c8261094b565b90508073ffffffffffffffffffffffffffffffffffffffff163373ffffffffffffffffffffffffffffffffffffffff16146112dc576040517f08c379a00000000000000000000000000000000000000000000000000000000081526004016112d390614201565b60405180910390fd5b600073ffffffffffffffffffffffffffffffffffffffff168373ffffffffffffffffffffffffffffffffffffffff160361134b576040517f08c379a00000000000000000000000000000000000000000000000000000000081526004016113429061426d565b60405180910390fd5b611356818484612299565b60006040518060e001604052808573ffffffffffffffffffffffffffffffffffffffff168152602001600a858154811061139357611392613f13565b5b906000526020600020906007020160010180546113af90613b76565b80601f01602080910402602001604051908101604052809291908181526020018280546113db90613b76565b80156114285780601f106113fd57610100808354040283529160200191611428565b820191906000526020600020905b81548152906001019060200180831161140b57829003601f168201915b50505050508152602001600a858154811061144657611445613f13565b5b9060005260206000209060070201600201805461146290613b76565b80601f016020809104026020016040519081016040528092919081815260200182805461148e90613b76565b80156114db5780601f106114b0576101008083540402835291602001916114db565b820191906000526020600020905b8154815290600101906020018083116114be57829003601f168201915b50505050508152602001600a85815481106114f9576114f8613f13565b5b9060005260206000209060070201600301805461151590613b76565b80601f016020809104026020016040519081016040528092919081815260200182805461154190613b76565b801561158e5780601f106115635761010080835404028352916020019161158e565b820191906000526020600020905b81548152906001019060200180831161157157829003601f168201915b50505050508152602001428152602001600a85815481106115b2576115b1613f13565b5b9060005260206000209060070201600501548152602001600a85815481106115dd576115dc613f13565b5b9060005260206000209060070201600601548152509050600b600084815260200190815260200160002081908060018154018082558091505060019003906000526020600020906007020160009091909190915060008201518160000160006101000a81548173ffffffffffffffffffffffffffffffffffffffff021916908373ffffffffffffffffffffffffffffffffffffffff1602179055506020820151816001019080519060200190611694929190612eb5565b5060408201518160020190805190602001906116b1929190612eb5565b5060608201518160030190805190602001906116ce929190612eb5565b506080820151816004015560a0820151816005015560c08201518160060155505050505050565b6117066117006120fa565b836121bb565b611745576040517f08c379a000000000000000000000000000000000000000000000000000000000815260040161173c90613dcf565b60405180910390fd5b611751848484846124f4565b50505050565b600080600a80549050905061176c8882612550565b60006040518060e001604052808a73ffffffffffffffffffffffffffffffffffffffff168152602001898152602001888152602001878152602001428152602001868152602001858152509050600a81908060018154018082558091505060019003906000526020600020906007020160009091909190915060008201518160000160006101000a81548173ffffffffffffffffffffffffffffffffffffffff021916908373ffffffffffffffffffffffffffffffffffffffff1602179055506020820151816001019080519060200190611848929190612eb5565b506040820151816002019080519060200190611865929190612eb5565b506060820151816003019080519060200190611882929190612eb5565b506080820151816004015560a0820151816005015560c082015181600601555050600b600083815260200190815260200160002081908060018154018082558091505060019003906000526020600020906007020160009091909190915060008201518160000160006101000a81548173ffffffffffffffffffffffffffffffffffffffff021916908373ffffffffffffffffffffffffffffffffffffffff1602179055506020820151816001019080519060200190611943929190612eb5565b506040820151816002019080519060200190611960929190612eb5565b50606082015181600301908051906020019061197d929190612eb5565b506080820151816004015560a0820151816005015560c08201518160060155505081925050509695505050505050565b60606119b88261208e565b6119f7576040517f08c379a00000000000000000000000000000000000000000000000000000000081526004016119ee906142ff565b60405180910390fd5b6000611a0161271d565b90506000815111611a215760405180602001604052806000815250611a4c565b80611a2b84612734565b604051602001611a3c92919061435b565b6040516020818303038152906040525b915050919050565b600b6020528160005260406000208181548110611a7057600080fd5b9060005260206000209060070201600091509150508060000160009054906101000a900473ffffffffffffffffffffffffffffffffffffffff1690806001018054611aba90613b76565b80601f0160208091040260200160405190810160405280929190818152602001828054611ae690613b76565b8015611b335780601f10611b0857610100808354040283529160200191611b33565b820191906000526020600020905b815481529060010190602001808311611b1657829003601f168201915b505050505090806002018054611b4890613b76565b80601f0160208091040260200160405190810160405280929190818152602001828054611b7490613b76565b8015611bc15780601f10611b9657610100808354040283529160200191611bc1565b820191906000526020600020905b815481529060010190602001808311611ba457829003601f168201915b505050505090806003018054611bd690613b76565b80601f0160208091040260200160405190810160405280929190818152602001828054611c0290613b76565b8015611c4f5780601f10611c2457610100808354040283529160200191611c4f565b820191906000526020600020905b815481529060010190602001808311611c3257829003601f168201915b5050505050908060040154908060050154908060060154905087565b6000600560008473ffffffffffffffffffffffffffffffffffffffff1673ffffffffffffffffffffffffffffffffffffffff16815260200190815260200160002060008373ffffffffffffffffffffffffffffffffffffffff1673ffffffffffffffffffffffffffffffffffffffff16815260200190815260200160002060009054906101000a900460ff16905092915050565b611d07612f3b565b600a805490508210611d4e576040517f08c379a0000000000000000000000000000000000000000000000000000000008152600401611d45906143cb565b60405180910390fd5b600a8281548110611d6257611d61613f13565b5b90600052602060002090600702016040518060e00160405290816000820160009054906101000a900473ffffffffffffffffffffffffffffffffffffffff1673ffffffffffffffffffffffffffffffffffffffff1673ffffffffffffffffffffffffffffffffffffffff168152602001600182018054611de190613b76565b80601f0160208091040260200160405190810160405280929190818152602001828054611e0d90613b76565b8015611e5a5780601f10611e2f57610100808354040283529160200191611e5a565b820191906000526020600020905b815481529060010190602001808311611e3d57829003601f168201915b50505050508152602001600282018054611e7390613b76565b80601f0160208091040260200160405190810160405280929190818152602001828054611e9f90613b76565b8015611eec5780601f10611ec157610100808354040283529160200191611eec565b820191906000526020600020905b815481529060010190602001808311611ecf57829003601f168201915b50505050508152602001600382018054611f0590613b76565b80601f0160208091040260200160405190810160405280929190818152602001828054611f3190613b76565b8015611f7e5780601f10611f5357610100808354040283529160200191611f7e565b820191906000526020600020905b815481529060010190602001808311611f6157829003601f168201915b5050505050815260200160048201548152602001600582015481526020016006820154815250509050919050565b60007f80ac58cd000000000000000000000000000000000000000000000000000000007bffffffffffffffffffffffffffffffffffffffffffffffffffffffff1916827bffffffffffffffffffffffffffffffffffffffffffffffffffffffff1916148061207757507f5b5e139f000000000000000000000000000000000000000000000000000000007bffffffffffffffffffffffffffffffffffffffffffffffffffffffff1916827bffffffffffffffffffffffffffffffffffffffffffffffffffffffff1916145b80612087575061208682612894565b5b9050919050565b60008073ffffffffffffffffffffffffffffffffffffffff166002600084815260200190815260200160002060009054906101000a900473ffffffffffffffffffffffffffffffffffffffff1673ffffffffffffffffffffffffffffffffffffffff1614159050919050565b600033905090565b816004600083815260200190815260200160002060006101000a81548173ffffffffffffffffffffffffffffffffffffffff021916908373ffffffffffffffffffffffffffffffffffffffff160217905550808273ffffffffffffffffffffffffffffffffffffffff166121758361094b565b73ffffffffffffffffffffffffffffffffffffffff167f8c5be1e5ebec7d5bd14f71427d1e84f3dd0314c0f7b2291e5b200ac8c7c3b92560405160405180910390a45050565b60006121c68261208e565b612205576040517f08c379a00000000000000000000000000000000000000000000000000000000081526004016121fc9061445d565b60405180910390fd5b60006122108361094b565b90508073ffffffffffffffffffffffffffffffffffffffff168473ffffffffffffffffffffffffffffffffffffffff16148061227f57508373ffffffffffffffffffffffffffffffffffffffff166122678461060c565b73ffffffffffffffffffffffffffffffffffffffff16145b80612290575061228f8185611c6b565b5b91505092915050565b8273ffffffffffffffffffffffffffffffffffffffff166122b98261094b565b73ffffffffffffffffffffffffffffffffffffffff161461230f576040517f08c379a0000000000000000000000000000000000000000000000000000000008152600401612306906144ef565b60405180910390fd5b600073ffffffffffffffffffffffffffffffffffffffff168273ffffffffffffffffffffffffffffffffffffffff160361237e576040517f08c379a000000000000000000000000000000000000000000000000000000000815260040161237590614581565b60405180910390fd5b6123898383836128fe565b612394600082612102565b6001600360008573ffffffffffffffffffffffffffffffffffffffff1673ffffffffffffffffffffffffffffffffffffffff16815260200190815260200160002060008282546123e491906145a1565b925050819055506001600360008473ffffffffffffffffffffffffffffffffffffffff1673ffffffffffffffffffffffffffffffffffffffff168152602001908152602001600020600082825461243b91906145d5565b92505081905550816002600083815260200190815260200160002060006101000a81548173ffffffffffffffffffffffffffffffffffffffff021916908373ffffffffffffffffffffffffffffffffffffffff160217905550808273ffffffffffffffffffffffffffffffffffffffff168473ffffffffffffffffffffffffffffffffffffffff167fddf252ad1be2c89b69c2b068fc378daa952ba7f163c4a11628f55a4df523b3ef60405160405180910390a4505050565b6124ff848484612299565b61250b84848484612a10565b61254a576040517f08c379a00000000000000000000000000000000000000000000000000000000081526004016125419061469d565b60405180910390fd5b50505050565b600073ffffffffffffffffffffffffffffffffffffffff168273ffffffffffffffffffffffffffffffffffffffff16036125bf576040517f08c379a00000000000000000000000000000000000000000000000000000000081526004016125b690614709565b60405180910390fd5b6125c88161208e565b15612608576040517f08c379a00000000000000000000000000000000000000000000000000000000081526004016125ff90614775565b60405180910390fd5b612614600083836128fe565b6001600360008473ffffffffffffffffffffffffffffffffffffffff1673ffffffffffffffffffffffffffffffffffffffff168152602001908152602001600020600082825461266491906145d5565b92505081905550816002600083815260200190815260200160002060006101000a81548173ffffffffffffffffffffffffffffffffffffffff021916908373ffffffffffffffffffffffffffffffffffffffff160217905550808273ffffffffffffffffffffffffffffffffffffffff16600073ffffffffffffffffffffffffffffffffffffffff167fddf252ad1be2c89b69c2b068fc378daa952ba7f163c4a11628f55a4df523b3ef60405160405180910390a45050565b606060405180602001604052806000815250905090565b60606000820361277b576040518060400160405280600181526020017f3000000000000000000000000000000000000000000000000000000000000000815250905061288f565b600082905060005b600082146127ad57808061279690614101565b915050600a826127a691906147c4565b9150612783565b60008167ffffffffffffffff8111156127c9576127c86136cb565b5b6040519080825280601f01601f1916602001820160405280156127fb5781602001600182028036833780820191505090505b5090505b600085146128885760018261281491906145a1565b9150600a8561282391906147f5565b603061282f91906145d5565b60f81b81838151811061284557612844613f13565b5b60200101907effffffffffffffffffffffffffffffffffffffffffffffffffffffffffffff1916908160001a905350600a8561288191906147c4565b94506127ff565b8093505050505b919050565b60007f01ffc9a7000000000000000000000000000000000000000000000000000000007bffffffffffffffffffffffffffffffffffffffffffffffffffffffff1916827bffffffffffffffffffffffffffffffffffffffffffffffffffffffff1916149050919050565b612909838383612b97565b600073ffffffffffffffffffffffffffffffffffffffff168373ffffffffffffffffffffffffffffffffffffffff160361294b5761294681612b9c565b61298a565b8173ffffffffffffffffffffffffffffffffffffffff168373ffffffffffffffffffffffffffffffffffffffff1614612989576129888382612be5565b5b5b600073ffffffffffffffffffffffffffffffffffffffff168273ffffffffffffffffffffffffffffffffffffffff16036129cc576129c781612d52565b612a0b565b8273ffffffffffffffffffffffffffffffffffffffff168273ffffffffffffffffffffffffffffffffffffffff1614612a0a57612a098282612e23565b5b5b505050565b6000612a318473ffffffffffffffffffffffffffffffffffffffff16612ea2565b15612b8a578373ffffffffffffffffffffffffffffffffffffffff1663150b7a02612a5a6120fa565b8786866040518563ffffffff1660e01b8152600401612a7c949392919061487b565b6020604051808303816000875af1925050508015612ab857506040513d601f19601f82011682018060405250810190612ab591906148dc565b60015b612b3a573d8060008114612ae8576040519150601f19603f3d011682016040523d82523d6000602084013e612aed565b606091505b506000815103612b32576040517f08c379a0000000000000000000000000000000000000000000000000000000008152600401612b299061469d565b60405180910390fd5b805181602001fd5b63150b7a0260e01b7bffffffffffffffffffffffffffffffffffffffffffffffffffffffff1916817bffffffffffffffffffffffffffffffffffffffffffffffffffffffff191614915050612b8f565b600190505b949350505050565b505050565b6008805490506009600083815260200190815260200160002081905550600881908060018154018082558091505060019003906000526020600020016000909190919091505550565b60006001612bf2846109fc565b612bfc91906145a1565b9050600060076000848152602001908152602001600020549050818114612ce1576000600660008673ffffffffffffffffffffffffffffffffffffffff1673ffffffffffffffffffffffffffffffffffffffff168152602001908152602001600020600084815260200190815260200160002054905080600660008773ffffffffffffffffffffffffffffffffffffffff1673ffffffffffffffffffffffffffffffffffffffff168152602001908152602001600020600084815260200190815260200160002081905550816007600083815260200190815260200160002081905550505b6007600084815260200190815260200160002060009055600660008573ffffffffffffffffffffffffffffffffffffffff1673ffffffffffffffffffffffffffffffffffffffff16815260200190815260200160002060008381526020019081526020016000206000905550505050565b60006001600880549050612d6691906145a1565b9050600060096000848152602001908152602001600020549050600060088381548110612d9657612d95613f13565b5b906000526020600020015490508060088381548110612db857612db7613f13565b5b906000526020600020018190555081600960008381526020019081526020016000208190555060096000858152602001908152602001600020600090556008805480612e0757612e06614909565b5b6001900381819060005260206000200160009055905550505050565b6000612e2e836109fc565b905081600660008573ffffffffffffffffffffffffffffffffffffffff1673ffffffffffffffffffffffffffffffffffffffff168152602001908152602001600020600083815260200190815260200160002081905550806007600084815260200190815260200160002081905550505050565b600080823b905060008111915050919050565b828054612ec190613b76565b90600052602060002090601f016020900481019282612ee35760008555612f2a565b82601f10612efc57805160ff1916838001178555612f2a565b82800160010185558215612f2a579182015b82811115612f29578251825591602001919060010190612f0e565b5b509050612f379190612f8e565b5090565b6040518060e00160405280600073ffffffffffffffffffffffffffffffffffffffff1681526020016060815260200160608152602001606081526020016000815260200160008152602001600081525090565b5b80821115612fa7576000816000905550600101612f8f565b5090565b6000604051905090565b600080fd5b600080fd5b60007fffffffff0000000000000000000000000000000000000000000000000000000082169050919050565b612ff481612fbf565b8114612fff57600080fd5b50565b60008135905061301181612feb565b92915050565b60006020828403121561302d5761302c612fb5565b5b600061303b84828501613002565b91505092915050565b60008115159050919050565b61305981613044565b82525050565b60006020820190506130746000830184613050565b92915050565b600081519050919050565b600082825260208201905092915050565b60005b838110156130b4578082015181840152602081019050613099565b838111156130c3576000848401525b50505050565b6000601f19601f8301169050919050565b60006130e58261307a565b6130ef8185613085565b93506130ff818560208601613096565b613108816130c9565b840191505092915050565b6000602082019050818103600083015261312d81846130da565b905092915050565b6000819050919050565b61314881613135565b811461315357600080fd5b50565b6000813590506131658161313f565b92915050565b60006020828403121561318157613180612fb5565b5b600061318f84828501613156565b91505092915050565b600073ffffffffffffffffffffffffffffffffffffffff82169050919050565b60006131c382613198565b9050919050565b6131d3816131b8565b82525050565b60006020820190506131ee60008301846131ca565b92915050565b6131fd816131b8565b811461320857600080fd5b50565b60008135905061321a816131f4565b92915050565b6000806040838503121561323757613236612fb5565b5b60006132458582860161320b565b925050602061325685828601613156565b9150509250929050565b61326981613135565b82525050565b60006020820190506132846000830184613260565b92915050565b6000806000606084860312156132a3576132a2612fb5565b5b60006132b18682870161320b565b93505060206132c28682870161320b565b92505060406132d386828701613156565b9150509250925092565b6000602082840312156132f3576132f2612fb5565b5b60006133018482850161320b565b91505092915050565b600060e08201905061331f600083018a6131ca565b818103602083015261333181896130da565b9050818103604083015261334581886130da565b9050818103606083015261335981876130da565b90506133686080830186613260565b61337560a0830185613260565b61338260c0830184613260565b98975050505050505050565b600081519050919050565b600082825260208201905092915050565b6000819050602082019050919050565b6133c3816131b8565b82525050565b600082825260208201905092915050565b60006133e58261307a565b6133ef81856133c9565b93506133ff818560208601613096565b613408816130c9565b840191505092915050565b61341c81613135565b82525050565b600060e08301600083015161343a60008601826133ba565b506020830151848203602086015261345282826133da565b9150506040830151848203604086015261346c82826133da565b9150506060830151848203606086015261348682826133da565b915050608083015161349b6080860182613413565b5060a08301516134ae60a0860182613413565b5060c08301516134c160c0860182613413565b508091505092915050565b60006134d88383613422565b905092915050565b6000602082019050919050565b60006134f88261338e565b6135028185613399565b935083602082028501613514856133aa565b8060005b85811015613550578484038952815161353185826134cc565b945061353c836134e0565b925060208a01995050600181019050613518565b50829750879550505050505092915050565b6000602082019050818103600083015261357c81846134ed565b905092915050565b61358d81613044565b811461359857600080fd5b50565b6000813590506135aa81613584565b92915050565b600080604083850312156135c7576135c6612fb5565b5b60006135d58582860161320b565b92505060206135e68582860161359b565b9150509250929050565b600081519050919050565b600082825260208201905092915050565b6000819050602082019050919050565b60006136288383613413565b60208301905092915050565b6000602082019050919050565b600061364c826135f0565b61365681856135fb565b93506136618361360c565b8060005b83811015613692578151613679888261361c565b975061368483613634565b925050600181019050613665565b5085935050505092915050565b600060208201905081810360008301526136b98184613641565b905092915050565b600080fd5b600080fd5b7f4e487b7100000000000000000000000000000000000000000000000000000000600052604160045260246000fd5b613703826130c9565b810181811067ffffffffffffffff82111715613722576137216136cb565b5b80604052505050565b6000613735612fab565b905061374182826136fa565b919050565b600067ffffffffffffffff821115613761576137606136cb565b5b61376a826130c9565b9050602081019050919050565b82818337600083830152505050565b600061379961379484613746565b61372b565b9050828152602081018484840111156137b5576137b46136c6565b5b6137c0848285613777565b509392505050565b600082601f8301126137dd576137dc6136c1565b5b81356137ed848260208601613786565b91505092915050565b600080600080608085870312156138105761380f612fb5565b5b600061381e8782880161320b565b945050602061382f8782880161320b565b935050604061384087828801613156565b925050606085013567ffffffffffffffff81111561386157613860612fba565b5b61386d878288016137c8565b91505092959194509250565b600067ffffffffffffffff821115613894576138936136cb565b5b61389d826130c9565b9050602081019050919050565b60006138bd6138b884613879565b61372b565b9050828152602081018484840111156138d9576138d86136c6565b5b6138e4848285613777565b509392505050565b600082601f830112613901576139006136c1565b5b81356139118482602086016138aa565b91505092915050565b60008060008060008060c0878903121561393757613936612fb5565b5b600061394589828a0161320b565b965050602087013567ffffffffffffffff81111561396657613965612fba565b5b61397289828a016138ec565b955050604087013567ffffffffffffffff81111561399357613992612fba565b5b61399f89828a016138ec565b945050606087013567ffffffffffffffff8111156139c0576139bf612fba565b5b6139cc89828a016138ec565b93505060806139dd89828a01613156565b92505060a06139ee89828a01613156565b9150509295509295509295565b60008060408385031215613a1257613a11612fb5565b5b6000613a2085828601613156565b9250506020613a3185828601613156565b9150509250929050565b60008060408385031215613a5257613a51612fb5565b5b6000613a608582860161320b565b9250506020613a718582860161320b565b9150509250929050565b600060e083016000830151613a9360008601826133ba565b5060208301518482036020860152613aab82826133da565b91505060408301518482036040860152613ac582826133da565b91505060608301518482036060860152613adf82826133da565b9150506080830151613af46080860182613413565b5060a0830151613b0760a0860182613413565b5060c0830151613b1a60c0860182613413565b508091505092915050565b60006020820190508181036000830152613b3f8184613a7b565b905092915050565b7f4e487b7100000000000000000000000000000000000000000000000000000000600052602260045260246000fd5b60006002820490506001821680613b8e57607f821691505b602082108103613ba157613ba0613b47565b5b50919050565b7f4552433732313a20617070726f76656420717565727920666f72206e6f6e657860008201527f697374656e7420746f6b656e0000000000000000000000000000000000000000602082015250565b6000613c03602c83613085565b9150613c0e82613ba7565b604082019050919050565b60006020820190508181036000830152613c3281613bf6565b9050919050565b7f4552433732313a20617070726f76616c20746f2063757272656e74206f776e6560008201527f7200000000000000000000000000000000000000000000000000000000000000602082015250565b6000613c95602183613085565b9150613ca082613c39565b604082019050919050565b60006020820190508181036000830152613cc481613c88565b9050919050565b7f4552433732313a20617070726f76652063616c6c6572206973206e6f74206f7760008201527f6e6572206e6f7220617070726f76656420666f7220616c6c0000000000000000602082015250565b6000613d27603883613085565b9150613d3282613ccb565b604082019050919050565b60006020820190508181036000830152613d5681613d1a565b9050919050565b7f4552433732313a207472616e736665722063616c6c6572206973206e6f74206f60008201527f776e6572206e6f7220617070726f766564000000000000000000000000000000602082015250565b6000613db9603183613085565b9150613dc482613d5d565b604082019050919050565b60006020820190508181036000830152613de881613dac565b9050919050565b7f455243373231456e756d657261626c653a206f776e657220696e646578206f7560008201527f74206f6620626f756e6473000000000000000000000000000000000000000000602082015250565b6000613e4b602b83613085565b9150613e5682613def565b604082019050919050565b60006020820190508181036000830152613e7a81613e3e565b9050919050565b7f455243373231456e756d657261626c653a20676c6f62616c20696e646578206f60008201527f7574206f6620626f756e64730000000000000000000000000000000000000000602082015250565b6000613edd602c83613085565b9150613ee882613e81565b604082019050919050565b60006020820190508181036000830152613f0c81613ed0565b9050919050565b7f4e487b7100000000000000000000000000000000000000000000000000000000600052603260045260246000fd5b7f4552433732313a206f776e657220717565727920666f72206e6f6e657869737460008201527f656e7420746f6b656e0000000000000000000000000000000000000000000000602082015250565b6000613f9e602983613085565b9150613fa982613f42565b604082019050919050565b60006020820190508181036000830152613fcd81613f91565b9050919050565b7f4552433732313a2062616c616e636520717565727920666f7220746865207a6560008201527f726f206164647265737300000000000000000000000000000000000000000000602082015250565b6000614030602a83613085565b915061403b82613fd4565b604082019050919050565b6000602082019050818103600083015261405f81614023565b9050919050565b7f4552433732313a20617070726f766520746f2063616c6c657200000000000000600082015250565b600061409c601983613085565b91506140a782614066565b602082019050919050565b600060208201905081810360008301526140cb8161408f565b9050919050565b7f4e487b7100000000000000000000000000000000000000000000000000000000600052601160045260246000fd5b600061410c82613135565b91507fffffffffffffffffffffffffffffffffffffffffffffffffffffffffffffffff820361413e5761413d6140d2565b5b600182019050919050565b7f546f6b656e20646f6573206e6f74206578697374000000000000000000000000600082015250565b600061417f601483613085565b915061418a82614149565b602082019050919050565b600060208201905081810360008301526141ae81614172565b9050919050565b7f4e6f7420746f6b656e206f776e65720000000000000000000000000000000000600082015250565b60006141eb600f83613085565b91506141f6826141b5565b602082019050919050565b6000602082019050818103600083015261421a816141de565b9050919050565b7f496e76616c696420726563697069656e74206164647265737300000000000000600082015250565b6000614257601983613085565b915061426282614221565b602082019050919050565b600060208201905081810360008301526142868161424a565b9050919050565b7f4552433732314d657461646174613a2055524920717565727920666f72206e6f60008201527f6e6578697374656e7420746f6b656e0000000000000000000000000000000000602082015250565b60006142e9602f83613085565b91506142f48261428d565b604082019050919050565b60006020820190508181036000830152614318816142dc565b9050919050565b600081905092915050565b60006143358261307a565b61433f818561431f565b935061434f818560208601613096565b80840191505092915050565b6000614367828561432a565b9150614373828461432a565b91508190509392505050565b7f5469636b657420646f6573206e6f742065786973740000000000000000000000600082015250565b60006143b5601583613085565b91506143c08261437f565b602082019050919050565b600060208201905081810360008301526143e4816143a8565b9050919050565b7f4552433732313a206f70657261746f7220717565727920666f72206e6f6e657860008201527f697374656e7420746f6b656e0000000000000000000000000000000000000000602082015250565b6000614447602c83613085565b9150614452826143eb565b604082019050919050565b600060208201905081810360008301526144768161443a565b9050919050565b7f4552433732313a207472616e73666572206f6620746f6b656e2074686174206960008201527f73206e6f74206f776e0000000000000000000000000000000000000000000000602082015250565b60006144d9602983613085565b91506144e48261447d565b604082019050919050565b60006020820190508181036000830152614508816144cc565b9050919050565b7f4552433732313a207472616e7366657220746f20746865207a65726f2061646460008201527f7265737300000000000000000000000000000000000000000000000000000000602082015250565b600061456b602483613085565b91506145768261450f565b604082019050919050565b6000602082019050818103600083015261459a8161455e565b9050919050565b60006145ac82613135565b91506145b783613135565b9250828210156145ca576145c96140d2565b5b828203905092915050565b60006145e082613135565b91506145eb83613135565b9250827fffffffffffffffffffffffffffffffffffffffffffffffffffffffffffffffff038211156146205761461f6140d2565b5b828201905092915050565b7f4552433732313a207472616e7366657220746f206e6f6e20455243373231526560008201527f63656976657220696d706c656d656e7465720000000000000000000000000000602082015250565b6000614687603283613085565b91506146928261462b565b604082019050919050565b600060208201905081810360008301526146b68161467a565b9050919050565b7f4552433732313a206d696e7420746f20746865207a65726f2061646472657373600082015250565b60006146f3602083613085565b91506146fe826146bd565b602082019050919050565b60006020820190508181036000830152614722816146e6565b9050919050565b7f4552433732313a20746f6b656e20616c7265616479206d696e74656400000000600082015250565b600061475f601c83613085565b915061476a82614729565b602082019050919050565b6000602082019050818103600083015261478e81614752565b9050919050565b7f4e487b7100000000000000000000000000000000000000000000000000000000600052601260045260246000fd5b60006147cf82613135565b91506147da83613135565b9250826147ea576147e9614795565b5b828204905092915050565b600061480082613135565b915061480b83613135565b92508261481b5761481a614795565b5b828206905092915050565b600081519050919050565b600082825260208201905092915050565b600061484d82614826565b6148578185614831565b9350614867818560208601613096565b614870816130c9565b840191505092915050565b600060808201905061489060008301876131ca565b61489d60208301866131ca565b6148aa6040830185613260565b81810360608301526148bc8184614842565b905095945050505050565b6000815190506148d681612feb565b92915050565b6000602082840312156148f2576148f1612fb5565b5b6000614900848285016148c7565b91505092915050565b7f4e487b7100000000000000000000000000000000000000000000000000000000600052603160045260246000fdfea2646970667358221220b2fcd953cd373190ffdc55a78ca275bbc0aa0a0ff0fab44769b00167e553567d64736f6c634300080d0033",
  "immutableReferences": {},
  "source": "// SPDX-License-Identifier: MIT\r\n//   MIT    .\r\n\r\npragma solidity 0.8.13;\r\n\r\nimport \"@openzeppelin/contracts/token/ERC721/extensions/ERC721Enumerable.sol\";\r\n\r\ncontract TicketNFT is ERC721Enumerable {\r\n    //      Purchase  \r\n    struct Purchase {\r\n        address buyer; //  \r\n        string concert; //  \r\n        string concertDate; //  \r\n        string concertTime; //  \r\n        uint256 purchaseTime; //  \r\n        uint256 paymentAmount; //   \r\n        uint256 totalTicket; //  \r\n    }\r\n\r\n    //  ID      \r\n    Purchase[] public purchases;\r\n\r\n    // ERC721Enumerable   TicketNFT  \r\n    constructor(\r\n        string memory name, //  \r\n        string memory symbol //  \r\n    ) ERC721(name, symbol) {} // ERC721Enumerable  \r\n\r\n    //   \r\n    function mint(\r\n        address _to, //    \r\n        string memory _concert, //  \r\n        string memory _concertDate, //  \r\n        string memory _concertTime, //  \r\n        uint256 _paymentAmount, //  \r\n        uint256 _totalTicket\r\n    ) external returns (uint256) {\r\n        //  ID  \r\n        uint256 tokenId = purchases.length; //    ID\r\n        _mint(_to, tokenId); // ERC721 mint    \r\n        //      \r\n        Purchase memory newPurchase = Purchase({\r\n            buyer: _to,\r\n            concert: _concert,\r\n            concertDate: _concertDate,\r\n            concertTime: _concertTime,\r\n            purchaseTime: block.timestamp,\r\n            paymentAmount: _paymentAmount,\r\n            totalTicket: _totalTicket\r\n        });\r\n        purchases.push(newPurchase);\r\n        tradeHistories[tokenId].push(newPurchase);\r\n        return tokenId; //  ID \r\n    }\r\n\r\n    function getTicketInfo(\r\n        uint256 _tokenId\r\n    ) external view returns (Purchase memory) {\r\n        require(_tokenId < purchases.length, \"Ticket does not exist\");\r\n        return purchases[_tokenId];\r\n    }\r\n\r\n    function getOwnedTicketIds(\r\n        address _owner\r\n    ) external view returns (uint256[] memory) {\r\n        uint256 balance = balanceOf(_owner);\r\n        uint256[] memory tokenIds = new uint256[](balance);\r\n        for (uint256 i = 0; i < balance; i++) {\r\n            tokenIds[i] = tokenOfOwnerByIndex(_owner, i);\r\n        }\r\n        return tokenIds;\r\n    }\r\n\r\n    //   ID     \r\n    mapping(uint256 => Purchase[]) public tradeHistories;\r\n\r\n    // NFT  \r\n    function transfer(address _to, uint256 _tokenId) external {\r\n        require(_exists(_tokenId), \"Token does not exist\");\r\n        address owner = ownerOf(_tokenId);\r\n        require(msg.sender == owner, \"Not token owner\");\r\n        require(_to != address(0), \"Invalid recipient address\");\r\n\r\n        // NFT \r\n        _transfer(owner, _to, _tokenId);\r\n\r\n        //   \r\n        Purchase memory trade = Purchase({\r\n            buyer: _to,\r\n            concert: purchases[_tokenId].concert,\r\n            concertDate: purchases[_tokenId].concertDate,\r\n            concertTime: purchases[_tokenId].concertTime,\r\n            purchaseTime: block.timestamp,\r\n            paymentAmount: purchases[_tokenId].paymentAmount,\r\n            totalTicket: purchases[_tokenId].totalTicket\r\n        });\r\n        tradeHistories[_tokenId].push(trade);\r\n    }\r\n\r\n    //   ID   \r\n    function getTradeHistory(\r\n        uint256 _tokenId\r\n    ) external view returns (Purchase[] memory) {\r\n        return tradeHistories[_tokenId];\r\n    }\r\n}\r\n",
  "sourcePath": "C:\\Users\\jungi\\Desktop\\jsh\\jsh\\backup\\project\\test\\NFT_Ticket_Site\\client\\src\\contracts\\TicketNFT.sol",
  "compiler": {
    "name": "solc",
    "version": "0.8.13+commit.abaa5c0e.Emscripten.clang"
  },
  "schemaVersion": "3.4.16",
  "updatedAt": "2024-09-19T02:27:39.872Z",
  "networkType": "ethereum",
  "devdoc": {
    "kind": "dev",
    "methods": {
      "approve(address,uint256)": {
        "details": "See {IERC721-approve}."
      },
      "balanceOf(address)": {
        "details": "See {IERC721-balanceOf}."
      },
      "getApproved(uint256)": {
        "details": "See {IERC721-getApproved}."
      },
      "isApprovedForAll(address,address)": {
        "details": "See {IERC721-isApprovedForAll}."
      },
      "name()": {
        "details": "See {IERC721Metadata-name}."
      },
      "ownerOf(uint256)": {
        "details": "See {IERC721-ownerOf}."
      },
      "safeTransferFrom(address,address,uint256)": {
        "details": "See {IERC721-safeTransferFrom}."
      },
      "safeTransferFrom(address,address,uint256,bytes)": {
        "details": "See {IERC721-safeTransferFrom}."
      },
      "setApprovalForAll(address,bool)": {
        "details": "See {IERC721-setApprovalForAll}."
      },
      "supportsInterface(bytes4)": {
        "details": "See {IERC165-supportsInterface}."
      },
      "symbol()": {
        "details": "See {IERC721Metadata-symbol}."
      },
      "tokenByIndex(uint256)": {
        "details": "See {IERC721Enumerable-tokenByIndex}."
      },
      "tokenOfOwnerByIndex(address,uint256)": {
        "details": "See {IERC721Enumerable-tokenOfOwnerByIndex}."
      },
      "tokenURI(uint256)": {
        "details": "See {IERC721Metadata-tokenURI}."
      },
      "totalSupply()": {
        "details": "See {IERC721Enumerable-totalSupply}."
      },
      "transferFrom(address,address,uint256)": {
        "details": "See {IERC721-transferFrom}."
      }
    },
    "version": 1
  },
  "userdoc": {
    "kind": "user",
    "methods": {},
    "version": 1
  }
}