{
  "contractName": "TicketNFT",
  "abi": [
    {
      "inputs": [
        {
          "internalType": "string",
          "name": "name",
          "type": "string"
        },
        {
          "internalType": "string",
          "name": "symbol",
          "type": "string"
        }
      ],
      "stateMutability": "nonpayable",
      "type": "constructor"
    },
    {
      "anonymous": false,
      "inputs": [
        {
          "indexed": true,
          "internalType": "address",
          "name": "owner",
          "type": "address"
        },
        {
          "indexed": true,
          "internalType": "address",
          "name": "approved",
          "type": "address"
        },
        {
          "indexed": true,
          "internalType": "uint256",
          "name": "tokenId",
          "type": "uint256"
        }
      ],
      "name": "Approval",
      "type": "event"
    },
    {
      "anonymous": false,
      "inputs": [
        {
          "indexed": true,
          "internalType": "address",
          "name": "owner",
          "type": "address"
        },
        {
          "indexed": true,
          "internalType": "address",
          "name": "operator",
          "type": "address"
        },
        {
          "indexed": false,
          "internalType": "bool",
          "name": "approved",
          "type": "bool"
        }
      ],
      "name": "ApprovalForAll",
      "type": "event"
    },
    {
      "anonymous": false,
      "inputs": [
        {
          "indexed": true,
          "internalType": "address",
          "name": "from",
          "type": "address"
        },
        {
          "indexed": true,
          "internalType": "address",
          "name": "to",
          "type": "address"
        },
        {
          "indexed": true,
          "internalType": "uint256",
          "name": "tokenId",
          "type": "uint256"
        }
      ],
      "name": "Transfer",
      "type": "event"
    },
    {
      "inputs": [
        {
          "internalType": "address",
          "name": "to",
          "type": "address"
        },
        {
          "internalType": "uint256",
          "name": "tokenId",
          "type": "uint256"
        }
      ],
      "name": "approve",
      "outputs": [],
      "stateMutability": "nonpayable",
      "type": "function"
    },
    {
      "inputs": [
        {
          "internalType": "address",
          "name": "owner",
          "type": "address"
        }
      ],
      "name": "balanceOf",
      "outputs": [
        {
          "internalType": "uint256",
          "name": "",
          "type": "uint256"
        }
      ],
      "stateMutability": "view",
      "type": "function",
      "constant": true
    },
    {
      "inputs": [
        {
          "internalType": "uint256",
          "name": "tokenId",
          "type": "uint256"
        }
      ],
      "name": "getApproved",
      "outputs": [
        {
          "internalType": "address",
          "name": "",
          "type": "address"
        }
      ],
      "stateMutability": "view",
      "type": "function",
      "constant": true
    },
    {
      "inputs": [
        {
          "internalType": "address",
          "name": "owner",
          "type": "address"
        },
        {
          "internalType": "address",
          "name": "operator",
          "type": "address"
        }
      ],
      "name": "isApprovedForAll",
      "outputs": [
        {
          "internalType": "bool",
          "name": "",
          "type": "bool"
        }
      ],
      "stateMutability": "view",
      "type": "function",
      "constant": true
    },
    {
      "inputs": [],
      "name": "name",
      "outputs": [
        {
          "internalType": "string",
          "name": "",
          "type": "string"
        }
      ],
      "stateMutability": "view",
      "type": "function",
      "constant": true
    },
    {
      "inputs": [
        {
          "internalType": "uint256",
          "name": "tokenId",
          "type": "uint256"
        }
      ],
      "name": "ownerOf",
      "outputs": [
        {
          "internalType": "address",
          "name": "",
          "type": "address"
        }
      ],
      "stateMutability": "view",
      "type": "function",
      "constant": true
    },
    {
      "inputs": [
        {
          "internalType": "uint256",
          "name": "",
          "type": "uint256"
        }
      ],
      "name": "purchases",
      "outputs": [
        {
          "internalType": "address",
          "name": "buyer",
          "type": "address"
        },
        {
          "internalType": "string",
          "name": "concert",
          "type": "string"
        },
        {
          "internalType": "string",
          "name": "concertDate",
          "type": "string"
        },
        {
          "internalType": "string",
          "name": "concertTime",
          "type": "string"
        },
        {
          "internalType": "uint256",
          "name": "purchaseTime",
          "type": "uint256"
        },
        {
          "internalType": "uint256",
          "name": "paymentAmount",
          "type": "uint256"
        }
      ],
      "stateMutability": "view",
      "type": "function",
      "constant": true
    },
    {
      "inputs": [
        {
          "internalType": "address",
          "name": "from",
          "type": "address"
        },
        {
          "internalType": "address",
          "name": "to",
          "type": "address"
        },
        {
          "internalType": "uint256",
          "name": "tokenId",
          "type": "uint256"
        }
      ],
      "name": "safeTransferFrom",
      "outputs": [],
      "stateMutability": "nonpayable",
      "type": "function"
    },
    {
      "inputs": [
        {
          "internalType": "address",
          "name": "from",
          "type": "address"
        },
        {
          "internalType": "address",
          "name": "to",
          "type": "address"
        },
        {
          "internalType": "uint256",
          "name": "tokenId",
          "type": "uint256"
        },
        {
          "internalType": "bytes",
          "name": "_data",
          "type": "bytes"
        }
      ],
      "name": "safeTransferFrom",
      "outputs": [],
      "stateMutability": "nonpayable",
      "type": "function"
    },
    {
      "inputs": [
        {
          "internalType": "address",
          "name": "operator",
          "type": "address"
        },
        {
          "internalType": "bool",
          "name": "approved",
          "type": "bool"
        }
      ],
      "name": "setApprovalForAll",
      "outputs": [],
      "stateMutability": "nonpayable",
      "type": "function"
    },
    {
      "inputs": [
        {
          "internalType": "bytes4",
          "name": "interfaceId",
          "type": "bytes4"
        }
      ],
      "name": "supportsInterface",
      "outputs": [
        {
          "internalType": "bool",
          "name": "",
          "type": "bool"
        }
      ],
      "stateMutability": "view",
      "type": "function",
      "constant": true
    },
    {
      "inputs": [],
      "name": "symbol",
      "outputs": [
        {
          "internalType": "string",
          "name": "",
          "type": "string"
        }
      ],
      "stateMutability": "view",
      "type": "function",
      "constant": true
    },
    {
      "inputs": [
        {
          "internalType": "uint256",
          "name": "index",
          "type": "uint256"
        }
      ],
      "name": "tokenByIndex",
      "outputs": [
        {
          "internalType": "uint256",
          "name": "",
          "type": "uint256"
        }
      ],
      "stateMutability": "view",
      "type": "function",
      "constant": true
    },
    {
      "inputs": [
        {
          "internalType": "address",
          "name": "owner",
          "type": "address"
        },
        {
          "internalType": "uint256",
          "name": "index",
          "type": "uint256"
        }
      ],
      "name": "tokenOfOwnerByIndex",
      "outputs": [
        {
          "internalType": "uint256",
          "name": "",
          "type": "uint256"
        }
      ],
      "stateMutability": "view",
      "type": "function",
      "constant": true
    },
    {
      "inputs": [
        {
          "internalType": "uint256",
          "name": "tokenId",
          "type": "uint256"
        }
      ],
      "name": "tokenURI",
      "outputs": [
        {
          "internalType": "string",
          "name": "",
          "type": "string"
        }
      ],
      "stateMutability": "view",
      "type": "function",
      "constant": true
    },
    {
      "inputs": [],
      "name": "totalSupply",
      "outputs": [
        {
          "internalType": "uint256",
          "name": "",
          "type": "uint256"
        }
      ],
      "stateMutability": "view",
      "type": "function",
      "constant": true
    },
    {
      "inputs": [
        {
          "internalType": "uint256",
          "name": "",
          "type": "uint256"
        },
        {
          "internalType": "uint256",
          "name": "",
          "type": "uint256"
        }
      ],
      "name": "tradeHistories",
      "outputs": [
        {
          "internalType": "address",
          "name": "buyer",
          "type": "address"
        },
        {
          "internalType": "string",
          "name": "concert",
          "type": "string"
        },
        {
          "internalType": "string",
          "name": "concertDate",
          "type": "string"
        },
        {
          "internalType": "string",
          "name": "concertTime",
          "type": "string"
        },
        {
          "internalType": "uint256",
          "name": "purchaseTime",
          "type": "uint256"
        },
        {
          "internalType": "uint256",
          "name": "paymentAmount",
          "type": "uint256"
        }
      ],
      "stateMutability": "view",
      "type": "function",
      "constant": true
    },
    {
      "inputs": [
        {
          "internalType": "address",
          "name": "from",
          "type": "address"
        },
        {
          "internalType": "address",
          "name": "to",
          "type": "address"
        },
        {
          "internalType": "uint256",
          "name": "tokenId",
          "type": "uint256"
        }
      ],
      "name": "transferFrom",
      "outputs": [],
      "stateMutability": "nonpayable",
      "type": "function"
    },
    {
      "inputs": [
        {
          "internalType": "address",
          "name": "_to",
          "type": "address"
        },
        {
          "internalType": "string",
          "name": "_concert",
          "type": "string"
        },
        {
          "internalType": "string",
          "name": "_concertDate",
          "type": "string"
        },
        {
          "internalType": "string",
          "name": "_concertTime",
          "type": "string"
        },
        {
          "internalType": "string[]",
          "name": "_selectedSeats",
          "type": "string[]"
        },
        {
          "internalType": "uint256",
          "name": "_paymentAmount",
          "type": "uint256"
        }
      ],
      "name": "mint",
      "outputs": [
        {
          "internalType": "uint256",
          "name": "",
          "type": "uint256"
        }
      ],
      "stateMutability": "nonpayable",
      "type": "function"
    },
    {
      "inputs": [
        {
          "internalType": "uint256",
          "name": "_tokenId",
          "type": "uint256"
        }
      ],
      "name": "getTicketInfo",
      "outputs": [
        {
          "components": [
            {
              "internalType": "address",
              "name": "buyer",
              "type": "address"
            },
            {
              "internalType": "string",
              "name": "concert",
              "type": "string"
            },
            {
              "internalType": "string",
              "name": "concertDate",
              "type": "string"
            },
            {
              "internalType": "string",
              "name": "concertTime",
              "type": "string"
            },
            {
              "internalType": "uint256",
              "name": "purchaseTime",
              "type": "uint256"
            },
            {
              "internalType": "string[]",
              "name": "selectedSeats",
              "type": "string[]"
            },
            {
              "internalType": "uint256",
              "name": "paymentAmount",
              "type": "uint256"
            }
          ],
          "internalType": "struct TicketNFT.Purchase",
          "name": "",
          "type": "tuple"
        }
      ],
      "stateMutability": "view",
      "type": "function",
      "constant": true
    },
    {
      "inputs": [
        {
          "internalType": "address",
          "name": "_owner",
          "type": "address"
        }
      ],
      "name": "getOwnedTicketIds",
      "outputs": [
        {
          "internalType": "uint256[]",
          "name": "",
          "type": "uint256[]"
        }
      ],
      "stateMutability": "view",
      "type": "function",
      "constant": true
    },
    {
      "inputs": [
        {
          "internalType": "address",
          "name": "_to",
          "type": "address"
        },
        {
          "internalType": "uint256",
          "name": "_tokenId",
          "type": "uint256"
        }
      ],
      "name": "transfer",
      "outputs": [],
      "stateMutability": "nonpayable",
      "type": "function"
    },
    {
      "inputs": [
        {
          "internalType": "uint256",
          "name": "_tokenId",
          "type": "uint256"
        }
      ],
      "name": "getTradeHistory",
      "outputs": [
        {
          "components": [
            {
              "internalType": "address",
              "name": "buyer",
              "type": "address"
            },
            {
              "internalType": "string",
              "name": "concert",
              "type": "string"
            },
            {
              "internalType": "string",
              "name": "concertDate",
              "type": "string"
            },
            {
              "internalType": "string",
              "name": "concertTime",
              "type": "string"
            },
            {
              "internalType": "uint256",
              "name": "purchaseTime",
              "type": "uint256"
            },
            {
              "internalType": "string[]",
              "name": "selectedSeats",
              "type": "string[]"
            },
            {
              "internalType": "uint256",
              "name": "paymentAmount",
              "type": "uint256"
            }
          ],
          "internalType": "struct TicketNFT.Purchase[]",
          "name": "",
          "type": "tuple[]"
        }
      ],
      "stateMutability": "view",
      "type": "function",
      "constant": true
    }
  ],
  "bytecode": "0x60806040523480156200001157600080fd5b5060405162005249380380620052498339818101604052810190620000379190620002c2565b818181600090805190602001906200005192919062000075565b5080600190805190602001906200006a92919062000075565b5050505050620003ab565b828054620000839062000376565b90600052602060002090601f016020900481019282620000a75760008555620000f3565b82601f10620000c257805160ff1916838001178555620000f3565b82800160010185558215620000f3579182015b82811115620000f2578251825591602001919060010190620000d5565b5b50905062000102919062000106565b5090565b5b808211156200012157600081600090555060010162000107565b5090565b6000604051905090565b600080fd5b600080fd5b600080fd5b600080fd5b6000601f19601f8301169050919050565b7f4e487b7100000000000000000000000000000000000000000000000000000000600052604160045260246000fd5b6200018e8262000143565b810181811067ffffffffffffffff82111715620001b057620001af62000154565b5b80604052505050565b6000620001c562000125565b9050620001d3828262000183565b919050565b600067ffffffffffffffff821115620001f657620001f562000154565b5b620002018262000143565b9050602081019050919050565b60005b838110156200022e57808201518184015260208101905062000211565b838111156200023e576000848401525b50505050565b60006200025b6200025584620001d8565b620001b9565b9050828152602081018484840111156200027a57620002796200013e565b5b620002878482856200020e565b509392505050565b600082601f830112620002a757620002a662000139565b5b8151620002b984826020860162000244565b91505092915050565b60008060408385031215620002dc57620002db6200012f565b5b600083015167ffffffffffffffff811115620002fd57620002fc62000134565b5b6200030b858286016200028f565b925050602083015167ffffffffffffffff8111156200032f576200032e62000134565b5b6200033d858286016200028f565b9150509250929050565b7f4e487b7100000000000000000000000000000000000000000000000000000000600052602260045260246000fd5b600060028204905060018216806200038f57607f821691505b602082108103620003a557620003a462000347565b5b50919050565b614e8e80620003bb6000396000f3fe608060405234801561001057600080fd5b506004361061014d5760003560e01c80638392fe31116100c3578063a9059cbb1161007c578063a9059cbb14610401578063b88d4fde1461041d578063c87b56dd14610439578063d9e83b5414610469578063e985e9c51461049e578063ff99a063146104ce5761014d565b80638392fe3114610302578063873c5e601461033757806395d89b41146103675780639abb2f7e14610385578063a22cb465146103b5578063a4bfd0cc146103d15761014d565b806323b872dd1161011557806323b872dd1461020a5780632f745c591461022657806342842e0e146102565780634f6ccce7146102725780636352211e146102a257806370a08231146102d25761014d565b806301ffc9a71461015257806306fdde0314610182578063081812fc146101a0578063095ea7b3146101d057806318160ddd146101ec575b600080fd5b61016c60048036038101906101679190613373565b6104fe565b60405161017991906133bb565b60405180910390f35b61018a610578565b604051610197919061346f565b60405180910390f35b6101ba60048036038101906101b591906134c7565b61060a565b6040516101c79190613535565b60405180910390f35b6101ea60048036038101906101e5919061357c565b61068f565b005b6101f46107a6565b60405161020191906135cb565b60405180910390f35b610224600480360381019061021f91906135e6565b6107b3565b005b610240600480360381019061023b919061357c565b610813565b60405161024d91906135cb565b60405180910390f35b610270600480360381019061026b91906135e6565b6108b8565b005b61028c600480360381019061028791906134c7565b6108d8565b60405161029991906135cb565b60405180910390f35b6102bc60048036038101906102b791906134c7565b610949565b6040516102c99190613535565b60405180910390f35b6102ec60048036038101906102e79190613639565b6109fa565b6040516102f991906135cb565b60405180910390f35b61031c600480360381019061031791906134c7565b610ab1565b60405161032e96959493929190613666565b60405180910390f35b610351600480360381019061034c91906134c7565b610cb5565b60405161035e9190613979565b60405180910390f35b61036f611020565b60405161037c919061346f565b60405180910390f35b61039f600480360381019061039a9190613bb6565b6110b2565b6040516103ac91906135cb565b60405180910390f35b6103cf60048036038101906103ca9190613cdf565b61132e565b005b6103eb60048036038101906103e69190613639565b6114ae565b6040516103f89190613dce565b60405180910390f35b61041b6004803603810190610416919061357c565b61155c565b005b61043760048036038101906104329190613e91565b611b1a565b005b610453600480360381019061044e91906134c7565b611b7c565b604051610460919061346f565b60405180910390f35b610483600480360381019061047e9190613f14565b611c23565b60405161049596959493929190613666565b60405180910390f35b6104b860048036038101906104b39190613f54565b611e34565b6040516104c591906133bb565b60405180910390f35b6104e860048036038101906104e391906134c7565b611ec8565b6040516104f59190614045565b60405180910390f35b60007f780e9d63000000000000000000000000000000000000000000000000000000007bffffffffffffffffffffffffffffffffffffffffffffffffffffffff1916827bffffffffffffffffffffffffffffffffffffffffffffffffffffffff19161480610571575061057082612244565b5b9050919050565b60606000805461058790614096565b80601f01602080910402602001604051908101604052809291908181526020018280546105b390614096565b80156106005780601f106105d557610100808354040283529160200191610600565b820191906000526020600020905b8154815290600101906020018083116105e357829003601f168201915b5050505050905090565b600061061582612326565b610654576040517f08c379a000000000000000000000000000000000000000000000000000000000815260040161064b90614139565b60405180910390fd5b6004600083815260200190815260200160002060009054906101000a900473ffffffffffffffffffffffffffffffffffffffff169050919050565b600061069a82610949565b90508073ffffffffffffffffffffffffffffffffffffffff168373ffffffffffffffffffffffffffffffffffffffff160361070a576040517f08c379a0000000000000000000000000000000000000000000000000000000008152600401610701906141cb565b60405180910390fd5b8073ffffffffffffffffffffffffffffffffffffffff16610729612392565b73ffffffffffffffffffffffffffffffffffffffff161480610758575061075781610752612392565b611e34565b5b610797576040517f08c379a000000000000000000000000000000000000000000000000000000000815260040161078e9061425d565b60405180910390fd5b6107a1838361239a565b505050565b6000600880549050905090565b6107c46107be612392565b82612453565b610803576040517f08c379a00000000000000000000000000000000000000000000000000000000081526004016107fa906142ef565b60405180910390fd5b61080e838383612531565b505050565b600061081e836109fa565b821061085f576040517f08c379a000000000000000000000000000000000000000000000000000000000815260040161085690614381565b60405180910390fd5b600660008473ffffffffffffffffffffffffffffffffffffffff1673ffffffffffffffffffffffffffffffffffffffff168152602001908152602001600020600083815260200190815260200160002054905092915050565b6108d383838360405180602001604052806000815250611b1a565b505050565b60006108e26107a6565b8210610923576040517f08c379a000000000000000000000000000000000000000000000000000000000815260040161091a90614413565b60405180910390fd5b6008828154811061093757610936614433565b5b90600052602060002001549050919050565b6000806002600084815260200190815260200160002060009054906101000a900473ffffffffffffffffffffffffffffffffffffffff169050600073ffffffffffffffffffffffffffffffffffffffff168173ffffffffffffffffffffffffffffffffffffffff16036109f1576040517f08c379a00000000000000000000000000000000000000000000000000000000081526004016109e8906144d4565b60405180910390fd5b80915050919050565b60008073ffffffffffffffffffffffffffffffffffffffff168273ffffffffffffffffffffffffffffffffffffffff1603610a6a576040517f08c379a0000000000000000000000000000000000000000000000000000000008152600401610a6190614566565b60405180910390fd5b600360008373ffffffffffffffffffffffffffffffffffffffff1673ffffffffffffffffffffffffffffffffffffffff168152602001908152602001600020549050919050565b600a8181548110610ac157600080fd5b90600052602060002090600702016000915090508060000160009054906101000a900473ffffffffffffffffffffffffffffffffffffffff1690806001018054610b0a90614096565b80601f0160208091040260200160405190810160405280929190818152602001828054610b3690614096565b8015610b835780601f10610b5857610100808354040283529160200191610b83565b820191906000526020600020905b815481529060010190602001808311610b6657829003601f168201915b505050505090806002018054610b9890614096565b80601f0160208091040260200160405190810160405280929190818152602001828054610bc490614096565b8015610c115780601f10610be657610100808354040283529160200191610c11565b820191906000526020600020905b815481529060010190602001808311610bf457829003601f168201915b505050505090806003018054610c2690614096565b80601f0160208091040260200160405190810160405280929190818152602001828054610c5290614096565b8015610c9f5780601f10610c7457610100808354040283529160200191610c9f565b820191906000526020600020905b815481529060010190602001808311610c8257829003601f168201915b5050505050908060040154908060060154905086565b6060600b6000838152602001908152602001600020805480602002602001604051908101604052809291908181526020016000905b8282101561101557838290600052602060002090600702016040518060e00160405290816000820160009054906101000a900473ffffffffffffffffffffffffffffffffffffffff1673ffffffffffffffffffffffffffffffffffffffff1673ffffffffffffffffffffffffffffffffffffffff168152602001600182018054610d7390614096565b80601f0160208091040260200160405190810160405280929190818152602001828054610d9f90614096565b8015610dec5780601f10610dc157610100808354040283529160200191610dec565b820191906000526020600020905b815481529060010190602001808311610dcf57829003601f168201915b50505050508152602001600282018054610e0590614096565b80601f0160208091040260200160405190810160405280929190818152602001828054610e3190614096565b8015610e7e5780601f10610e5357610100808354040283529160200191610e7e565b820191906000526020600020905b815481529060010190602001808311610e6157829003601f168201915b50505050508152602001600382018054610e9790614096565b80601f0160208091040260200160405190810160405280929190818152602001828054610ec390614096565b8015610f105780601f10610ee557610100808354040283529160200191610f10565b820191906000526020600020905b815481529060010190602001808311610ef357829003601f168201915b505050505081526020016004820154815260200160058201805480602002602001604051908101604052809291908181526020016000905b82821015610ff4578382906000526020600020018054610f6790614096565b80601f0160208091040260200160405190810160405280929190818152602001828054610f9390614096565b8015610fe05780601f10610fb557610100808354040283529160200191610fe0565b820191906000526020600020905b815481529060010190602001808311610fc357829003601f168201915b505050505081526020019060010190610f48565b50505050815260200160068201548152505081526020019060010190610cea565b505050509050919050565b60606001805461102f90614096565b80601f016020809104026020016040519081016040528092919081815260200182805461105b90614096565b80156110a85780601f1061107d576101008083540402835291602001916110a8565b820191906000526020600020905b81548152906001019060200180831161108b57829003601f168201915b5050505050905090565b600080600a8054905090506110c7888261278c565b60006040518060e001604052808a73ffffffffffffffffffffffffffffffffffffffff168152602001898152602001888152602001878152602001428152602001868152602001858152509050600a81908060018154018082558091505060019003906000526020600020906007020160009091909190915060008201518160000160006101000a81548173ffffffffffffffffffffffffffffffffffffffff021916908373ffffffffffffffffffffffffffffffffffffffff16021790555060208201518160010190805190602001906111a392919061314d565b5060408201518160020190805190602001906111c092919061314d565b5060608201518160030190805190602001906111dd92919061314d565b506080820151816004015560a08201518160050190805190602001906112049291906131d3565b5060c082015181600601555050600b600083815260200190815260200160002081908060018154018082558091505060019003906000526020600020906007020160009091909190915060008201518160000160006101000a81548173ffffffffffffffffffffffffffffffffffffffff021916908373ffffffffffffffffffffffffffffffffffffffff16021790555060208201518160010190805190602001906112b192919061314d565b5060408201518160020190805190602001906112ce92919061314d565b5060608201518160030190805190602001906112eb92919061314d565b506080820151816004015560a08201518160050190805190602001906113129291906131d3565b5060c08201518160060155505081925050509695505050505050565b611336612392565b73ffffffffffffffffffffffffffffffffffffffff168273ffffffffffffffffffffffffffffffffffffffff16036113a3576040517f08c379a000000000000000000000000000000000000000000000000000000000815260040161139a906145d2565b60405180910390fd5b80600560006113b0612392565b73ffffffffffffffffffffffffffffffffffffffff1673ffffffffffffffffffffffffffffffffffffffff16815260200190815260200160002060008473ffffffffffffffffffffffffffffffffffffffff1673ffffffffffffffffffffffffffffffffffffffff16815260200190815260200160002060006101000a81548160ff0219169083151502179055508173ffffffffffffffffffffffffffffffffffffffff1661145d612392565b73ffffffffffffffffffffffffffffffffffffffff167f17307eab39ab6107e8899845ad3d59bd9653f200f220920489ca2b5937696c31836040516114a291906133bb565b60405180910390a35050565b606060006114bb836109fa565b905060008167ffffffffffffffff8111156114d9576114d86139a5565b5b6040519080825280602002602001820160405280156115075781602001602082028036833780820191505090505b50905060005b828110156115515761151f8582610813565b82828151811061153257611531614433565b5b602002602001018181525050808061154990614621565b91505061150d565b508092505050919050565b61156581612326565b6115a4576040517f08c379a000000000000000000000000000000000000000000000000000000000815260040161159b906146b5565b60405180910390fd5b60006115af82610949565b90508073ffffffffffffffffffffffffffffffffffffffff163373ffffffffffffffffffffffffffffffffffffffff161461161f576040517f08c379a000000000000000000000000000000000000000000000000000000000815260040161161690614721565b60405180910390fd5b600073ffffffffffffffffffffffffffffffffffffffff168373ffffffffffffffffffffffffffffffffffffffff160361168e576040517f08c379a00000000000000000000000000000000000000000000000000000000081526004016116859061478d565b60405180910390fd5b611699818484612531565b60006040518060e001604052808573ffffffffffffffffffffffffffffffffffffffff168152602001600a85815481106116d6576116d5614433565b5b906000526020600020906007020160010180546116f290614096565b80601f016020809104026020016040519081016040528092919081815260200182805461171e90614096565b801561176b5780601f106117405761010080835404028352916020019161176b565b820191906000526020600020905b81548152906001019060200180831161174e57829003601f168201915b50505050508152602001600a858154811061178957611788614433565b5b906000526020600020906007020160020180546117a590614096565b80601f01602080910402602001604051908101604052809291908181526020018280546117d190614096565b801561181e5780601f106117f35761010080835404028352916020019161181e565b820191906000526020600020905b81548152906001019060200180831161180157829003601f168201915b50505050508152602001600a858154811061183c5761183b614433565b5b9060005260206000209060070201600301805461185890614096565b80601f016020809104026020016040519081016040528092919081815260200182805461188490614096565b80156118d15780601f106118a6576101008083540402835291602001916118d1565b820191906000526020600020905b8154815290600101906020018083116118b457829003601f168201915b50505050508152602001428152602001600a85815481106118f5576118f4614433565b5b9060005260206000209060070201600501805480602002602001604051908101604052809291908181526020016000905b828210156119d257838290600052602060002001805461194590614096565b80601f016020809104026020016040519081016040528092919081815260200182805461197190614096565b80156119be5780601f10611993576101008083540402835291602001916119be565b820191906000526020600020905b8154815290600101906020018083116119a157829003601f168201915b505050505081526020019060010190611926565b505050508152602001600a85815481106119ef576119ee614433565b5b9060005260206000209060070201600601548152509050600b600084815260200190815260200160002081908060018154018082558091505060019003906000526020600020906007020160009091909190915060008201518160000160006101000a81548173ffffffffffffffffffffffffffffffffffffffff021916908373ffffffffffffffffffffffffffffffffffffffff1602179055506020820151816001019080519060200190611aa692919061314d565b506040820151816002019080519060200190611ac392919061314d565b506060820151816003019080519060200190611ae092919061314d565b506080820151816004015560a0820151816005019080519060200190611b079291906131d3565b5060c08201518160060155505050505050565b611b2b611b25612392565b83612453565b611b6a576040517f08c379a0000000000000000000000000000000000000000000000000000000008152600401611b61906142ef565b60405180910390fd5b611b7684848484612959565b50505050565b6060611b8782612326565b611bc6576040517f08c379a0000000000000000000000000000000000000000000000000000000008152600401611bbd9061481f565b60405180910390fd5b6000611bd06129b5565b90506000815111611bf05760405180602001604052806000815250611c1b565b80611bfa846129cc565b604051602001611c0b92919061487b565b6040516020818303038152906040525b915050919050565b600b6020528160005260406000208181548110611c3f57600080fd5b9060005260206000209060070201600091509150508060000160009054906101000a900473ffffffffffffffffffffffffffffffffffffffff1690806001018054611c8990614096565b80601f0160208091040260200160405190810160405280929190818152602001828054611cb590614096565b8015611d025780601f10611cd757610100808354040283529160200191611d02565b820191906000526020600020905b815481529060010190602001808311611ce557829003601f168201915b505050505090806002018054611d1790614096565b80601f0160208091040260200160405190810160405280929190818152602001828054611d4390614096565b8015611d905780601f10611d6557610100808354040283529160200191611d90565b820191906000526020600020905b815481529060010190602001808311611d7357829003601f168201915b505050505090806003018054611da590614096565b80601f0160208091040260200160405190810160405280929190818152602001828054611dd190614096565b8015611e1e5780601f10611df357610100808354040283529160200191611e1e565b820191906000526020600020905b815481529060010190602001808311611e0157829003601f168201915b5050505050908060040154908060060154905086565b6000600560008473ffffffffffffffffffffffffffffffffffffffff1673ffffffffffffffffffffffffffffffffffffffff16815260200190815260200160002060008373ffffffffffffffffffffffffffffffffffffffff1673ffffffffffffffffffffffffffffffffffffffff16815260200190815260200160002060009054906101000a900460ff16905092915050565b611ed0613233565b600a805490508210611f17576040517f08c379a0000000000000000000000000000000000000000000000000000000008152600401611f0e906148eb565b60405180910390fd5b600a8281548110611f2b57611f2a614433565b5b90600052602060002090600702016040518060e00160405290816000820160009054906101000a900473ffffffffffffffffffffffffffffffffffffffff1673ffffffffffffffffffffffffffffffffffffffff1673ffffffffffffffffffffffffffffffffffffffff168152602001600182018054611faa90614096565b80601f0160208091040260200160405190810160405280929190818152602001828054611fd690614096565b80156120235780601f10611ff857610100808354040283529160200191612023565b820191906000526020600020905b81548152906001019060200180831161200657829003601f168201915b5050505050815260200160028201805461203c90614096565b80601f016020809104026020016040519081016040528092919081815260200182805461206890614096565b80156120b55780601f1061208a576101008083540402835291602001916120b5565b820191906000526020600020905b81548152906001019060200180831161209857829003601f168201915b505050505081526020016003820180546120ce90614096565b80601f01602080910402602001604051908101604052809291908181526020018280546120fa90614096565b80156121475780601f1061211c57610100808354040283529160200191612147565b820191906000526020600020905b81548152906001019060200180831161212a57829003601f168201915b505050505081526020016004820154815260200160058201805480602002602001604051908101604052809291908181526020016000905b8282101561222b57838290600052602060002001805461219e90614096565b80601f01602080910402602001604051908101604052809291908181526020018280546121ca90614096565b80156122175780601f106121ec57610100808354040283529160200191612217565b820191906000526020600020905b8154815290600101906020018083116121fa57829003601f168201915b50505050508152602001906001019061217f565b5050505081526020016006820154815250509050919050565b60007f80ac58cd000000000000000000000000000000000000000000000000000000007bffffffffffffffffffffffffffffffffffffffffffffffffffffffff1916827bffffffffffffffffffffffffffffffffffffffffffffffffffffffff1916148061230f57507f5b5e139f000000000000000000000000000000000000000000000000000000007bffffffffffffffffffffffffffffffffffffffffffffffffffffffff1916827bffffffffffffffffffffffffffffffffffffffffffffffffffffffff1916145b8061231f575061231e82612b2c565b5b9050919050565b60008073ffffffffffffffffffffffffffffffffffffffff166002600084815260200190815260200160002060009054906101000a900473ffffffffffffffffffffffffffffffffffffffff1673ffffffffffffffffffffffffffffffffffffffff1614159050919050565b600033905090565b816004600083815260200190815260200160002060006101000a81548173ffffffffffffffffffffffffffffffffffffffff021916908373ffffffffffffffffffffffffffffffffffffffff160217905550808273ffffffffffffffffffffffffffffffffffffffff1661240d83610949565b73ffffffffffffffffffffffffffffffffffffffff167f8c5be1e5ebec7d5bd14f71427d1e84f3dd0314c0f7b2291e5b200ac8c7c3b92560405160405180910390a45050565b600061245e82612326565b61249d576040517f08c379a00000000000000000000000000000000000000000000000000000000081526004016124949061497d565b60405180910390fd5b60006124a883610949565b90508073ffffffffffffffffffffffffffffffffffffffff168473ffffffffffffffffffffffffffffffffffffffff16148061251757508373ffffffffffffffffffffffffffffffffffffffff166124ff8461060a565b73ffffffffffffffffffffffffffffffffffffffff16145b8061252857506125278185611e34565b5b91505092915050565b8273ffffffffffffffffffffffffffffffffffffffff1661255182610949565b73ffffffffffffffffffffffffffffffffffffffff16146125a7576040517f08c379a000000000000000000000000000000000000000000000000000000000815260040161259e90614a0f565b60405180910390fd5b600073ffffffffffffffffffffffffffffffffffffffff168273ffffffffffffffffffffffffffffffffffffffff1603612616576040517f08c379a000000000000000000000000000000000000000000000000000000000815260040161260d90614aa1565b60405180910390fd5b612621838383612b96565b61262c60008261239a565b6001600360008573ffffffffffffffffffffffffffffffffffffffff1673ffffffffffffffffffffffffffffffffffffffff168152602001908152602001600020600082825461267c9190614ac1565b925050819055506001600360008473ffffffffffffffffffffffffffffffffffffffff1673ffffffffffffffffffffffffffffffffffffffff16815260200190815260200160002060008282546126d39190614af5565b92505081905550816002600083815260200190815260200160002060006101000a81548173ffffffffffffffffffffffffffffffffffffffff021916908373ffffffffffffffffffffffffffffffffffffffff160217905550808273ffffffffffffffffffffffffffffffffffffffff168473ffffffffffffffffffffffffffffffffffffffff167fddf252ad1be2c89b69c2b068fc378daa952ba7f163c4a11628f55a4df523b3ef60405160405180910390a4505050565b600073ffffffffffffffffffffffffffffffffffffffff168273ffffffffffffffffffffffffffffffffffffffff16036127fb576040517f08c379a00000000000000000000000000000000000000000000000000000000081526004016127f290614b97565b60405180910390fd5b61280481612326565b15612844576040517f08c379a000000000000000000000000000000000000000000000000000000000815260040161283b90614c03565b60405180910390fd5b61285060008383612b96565b6001600360008473ffffffffffffffffffffffffffffffffffffffff1673ffffffffffffffffffffffffffffffffffffffff16815260200190815260200160002060008282546128a09190614af5565b92505081905550816002600083815260200190815260200160002060006101000a81548173ffffffffffffffffffffffffffffffffffffffff021916908373ffffffffffffffffffffffffffffffffffffffff160217905550808273ffffffffffffffffffffffffffffffffffffffff16600073ffffffffffffffffffffffffffffffffffffffff167fddf252ad1be2c89b69c2b068fc378daa952ba7f163c4a11628f55a4df523b3ef60405160405180910390a45050565b612964848484612531565b61297084848484612ca8565b6129af576040517f08c379a00000000000000000000000000000000000000000000000000000000081526004016129a690614c95565b60405180910390fd5b50505050565b606060405180602001604052806000815250905090565b606060008203612a13576040518060400160405280600181526020017f30000000000000000000000000000000000000000000000000000000000000008152509050612b27565b600082905060005b60008214612a45578080612a2e90614621565b915050600a82612a3e9190614ce4565b9150612a1b565b60008167ffffffffffffffff811115612a6157612a606139a5565b5b6040519080825280601f01601f191660200182016040528015612a935781602001600182028036833780820191505090505b5090505b60008514612b2057600182612aac9190614ac1565b9150600a85612abb9190614d15565b6030612ac79190614af5565b60f81b818381518110612add57612adc614433565b5b60200101907effffffffffffffffffffffffffffffffffffffffffffffffffffffffffffff1916908160001a905350600a85612b199190614ce4565b9450612a97565b8093505050505b919050565b60007f01ffc9a7000000000000000000000000000000000000000000000000000000007bffffffffffffffffffffffffffffffffffffffffffffffffffffffff1916827bffffffffffffffffffffffffffffffffffffffffffffffffffffffff1916149050919050565b612ba1838383612e2f565b600073ffffffffffffffffffffffffffffffffffffffff168373ffffffffffffffffffffffffffffffffffffffff1603612be357612bde81612e34565b612c22565b8173ffffffffffffffffffffffffffffffffffffffff168373ffffffffffffffffffffffffffffffffffffffff1614612c2157612c208382612e7d565b5b5b600073ffffffffffffffffffffffffffffffffffffffff168273ffffffffffffffffffffffffffffffffffffffff1603612c6457612c5f81612fea565b612ca3565b8273ffffffffffffffffffffffffffffffffffffffff168273ffffffffffffffffffffffffffffffffffffffff1614612ca257612ca182826130bb565b5b5b505050565b6000612cc98473ffffffffffffffffffffffffffffffffffffffff1661313a565b15612e22578373ffffffffffffffffffffffffffffffffffffffff1663150b7a02612cf2612392565b8786866040518563ffffffff1660e01b8152600401612d149493929190614d9b565b6020604051808303816000875af1925050508015612d5057506040513d601f19601f82011682018060405250810190612d4d9190614dfc565b60015b612dd2573d8060008114612d80576040519150601f19603f3d011682016040523d82523d6000602084013e612d85565b606091505b506000815103612dca576040517f08c379a0000000000000000000000000000000000000000000000000000000008152600401612dc190614c95565b60405180910390fd5b805181602001fd5b63150b7a0260e01b7bffffffffffffffffffffffffffffffffffffffffffffffffffffffff1916817bffffffffffffffffffffffffffffffffffffffffffffffffffffffff191614915050612e27565b600190505b949350505050565b505050565b6008805490506009600083815260200190815260200160002081905550600881908060018154018082558091505060019003906000526020600020016000909190919091505550565b60006001612e8a846109fa565b612e949190614ac1565b9050600060076000848152602001908152602001600020549050818114612f79576000600660008673ffffffffffffffffffffffffffffffffffffffff1673ffffffffffffffffffffffffffffffffffffffff168152602001908152602001600020600084815260200190815260200160002054905080600660008773ffffffffffffffffffffffffffffffffffffffff1673ffffffffffffffffffffffffffffffffffffffff168152602001908152602001600020600084815260200190815260200160002081905550816007600083815260200190815260200160002081905550505b6007600084815260200190815260200160002060009055600660008573ffffffffffffffffffffffffffffffffffffffff1673ffffffffffffffffffffffffffffffffffffffff16815260200190815260200160002060008381526020019081526020016000206000905550505050565b60006001600880549050612ffe9190614ac1565b905060006009600084815260200190815260200160002054905060006008838154811061302e5761302d614433565b5b9060005260206000200154905080600883815481106130505761304f614433565b5b90600052602060002001819055508160096000838152602001908152602001600020819055506009600085815260200190815260200160002060009055600880548061309f5761309e614e29565b5b6001900381819060005260206000200160009055905550505050565b60006130c6836109fa565b905081600660008573ffffffffffffffffffffffffffffffffffffffff1673ffffffffffffffffffffffffffffffffffffffff168152602001908152602001600020600083815260200190815260200160002081905550806007600084815260200190815260200160002081905550505050565b600080823b905060008111915050919050565b82805461315990614096565b90600052602060002090601f01602090048101928261317b57600085556131c2565b82601f1061319457805160ff19168380011785556131c2565b828001600101855582156131c2579182015b828111156131c15782518255916020019190600101906131a6565b5b5090506131cf9190613286565b5090565b828054828255906000526020600020908101928215613222579160200282015b8281111561322157825182908051906020019061321192919061314d565b50916020019190600101906131f3565b5b50905061322f91906132a3565b5090565b6040518060e00160405280600073ffffffffffffffffffffffffffffffffffffffff1681526020016060815260200160608152602001606081526020016000815260200160608152602001600081525090565b5b8082111561329f576000816000905550600101613287565b5090565b5b808211156132c357600081816132ba91906132c7565b506001016132a4565b5090565b5080546132d390614096565b6000825580601f106132e55750613304565b601f0160209004906000526020600020908101906133039190613286565b5b50565b6000604051905090565b600080fd5b600080fd5b60007fffffffff0000000000000000000000000000000000000000000000000000000082169050919050565b6133508161331b565b811461335b57600080fd5b50565b60008135905061336d81613347565b92915050565b60006020828403121561338957613388613311565b5b60006133978482850161335e565b91505092915050565b60008115159050919050565b6133b5816133a0565b82525050565b60006020820190506133d060008301846133ac565b92915050565b600081519050919050565b600082825260208201905092915050565b60005b838110156134105780820151818401526020810190506133f5565b8381111561341f576000848401525b50505050565b6000601f19601f8301169050919050565b6000613441826133d6565b61344b81856133e1565b935061345b8185602086016133f2565b61346481613425565b840191505092915050565b600060208201905081810360008301526134898184613436565b905092915050565b6000819050919050565b6134a481613491565b81146134af57600080fd5b50565b6000813590506134c18161349b565b92915050565b6000602082840312156134dd576134dc613311565b5b60006134eb848285016134b2565b91505092915050565b600073ffffffffffffffffffffffffffffffffffffffff82169050919050565b600061351f826134f4565b9050919050565b61352f81613514565b82525050565b600060208201905061354a6000830184613526565b92915050565b61355981613514565b811461356457600080fd5b50565b60008135905061357681613550565b92915050565b6000806040838503121561359357613592613311565b5b60006135a185828601613567565b92505060206135b2858286016134b2565b9150509250929050565b6135c581613491565b82525050565b60006020820190506135e060008301846135bc565b92915050565b6000806000606084860312156135ff576135fe613311565b5b600061360d86828701613567565b935050602061361e86828701613567565b925050604061362f868287016134b2565b9150509250925092565b60006020828403121561364f5761364e613311565b5b600061365d84828501613567565b91505092915050565b600060c08201905061367b6000830189613526565b818103602083015261368d8188613436565b905081810360408301526136a18187613436565b905081810360608301526136b58186613436565b90506136c460808301856135bc565b6136d160a08301846135bc565b979650505050505050565b600081519050919050565b600082825260208201905092915050565b6000819050602082019050919050565b61371181613514565b82525050565b600082825260208201905092915050565b6000613733826133d6565b61373d8185613717565b935061374d8185602086016133f2565b61375681613425565b840191505092915050565b61376a81613491565b82525050565b600081519050919050565b600082825260208201905092915050565b6000819050602082019050919050565b60006137a88383613728565b905092915050565b6000602082019050919050565b60006137c882613770565b6137d2818561377b565b9350836020820285016137e48561378c565b8060005b858110156138205784840389528151613801858261379c565b945061380c836137b0565b925060208a019950506001810190506137e8565b50829750879550505050505092915050565b600060e08301600083015161384a6000860182613708565b50602083015184820360208601526138628282613728565b9150506040830151848203604086015261387c8282613728565b915050606083015184820360608601526138968282613728565b91505060808301516138ab6080860182613761565b5060a083015184820360a08601526138c382826137bd565b91505060c08301516138d860c0860182613761565b508091505092915050565b60006138ef8383613832565b905092915050565b6000602082019050919050565b600061390f826136dc565b61391981856136e7565b93508360208202850161392b856136f8565b8060005b85811015613967578484038952815161394885826138e3565b9450613953836138f7565b925060208a0199505060018101905061392f565b50829750879550505050505092915050565b600060208201905081810360008301526139938184613904565b905092915050565b600080fd5b600080fd5b7f4e487b7100000000000000000000000000000000000000000000000000000000600052604160045260246000fd5b6139dd82613425565b810181811067ffffffffffffffff821117156139fc576139fb6139a5565b5b80604052505050565b6000613a0f613307565b9050613a1b82826139d4565b919050565b600067ffffffffffffffff821115613a3b57613a3a6139a5565b5b613a4482613425565b9050602081019050919050565b82818337600083830152505050565b6000613a73613a6e84613a20565b613a05565b905082815260208101848484011115613a8f57613a8e6139a0565b5b613a9a848285613a51565b509392505050565b600082601f830112613ab757613ab661399b565b5b8135613ac7848260208601613a60565b91505092915050565b600067ffffffffffffffff821115613aeb57613aea6139a5565b5b602082029050602081019050919050565b600080fd5b6000613b14613b0f84613ad0565b613a05565b90508083825260208201905060208402830185811115613b3757613b36613afc565b5b835b81811015613b7e57803567ffffffffffffffff811115613b5c57613b5b61399b565b5b808601613b698982613aa2565b85526020850194505050602081019050613b39565b5050509392505050565b600082601f830112613b9d57613b9c61399b565b5b8135613bad848260208601613b01565b91505092915050565b60008060008060008060c08789031215613bd357613bd2613311565b5b6000613be189828a01613567565b965050602087013567ffffffffffffffff811115613c0257613c01613316565b5b613c0e89828a01613aa2565b955050604087013567ffffffffffffffff811115613c2f57613c2e613316565b5b613c3b89828a01613aa2565b945050606087013567ffffffffffffffff811115613c5c57613c5b613316565b5b613c6889828a01613aa2565b935050608087013567ffffffffffffffff811115613c8957613c88613316565b5b613c9589828a01613b88565b92505060a0613ca689828a016134b2565b9150509295509295509295565b613cbc816133a0565b8114613cc757600080fd5b50565b600081359050613cd981613cb3565b92915050565b60008060408385031215613cf657613cf5613311565b5b6000613d0485828601613567565b9250506020613d1585828601613cca565b9150509250929050565b600081519050919050565b600082825260208201905092915050565b6000819050602082019050919050565b6000613d578383613761565b60208301905092915050565b6000602082019050919050565b6000613d7b82613d1f565b613d858185613d2a565b9350613d9083613d3b565b8060005b83811015613dc1578151613da88882613d4b565b9750613db383613d63565b925050600181019050613d94565b5085935050505092915050565b60006020820190508181036000830152613de88184613d70565b905092915050565b600067ffffffffffffffff821115613e0b57613e0a6139a5565b5b613e1482613425565b9050602081019050919050565b6000613e34613e2f84613df0565b613a05565b905082815260208101848484011115613e5057613e4f6139a0565b5b613e5b848285613a51565b509392505050565b600082601f830112613e7857613e7761399b565b5b8135613e88848260208601613e21565b91505092915050565b60008060008060808587031215613eab57613eaa613311565b5b6000613eb987828801613567565b9450506020613eca87828801613567565b9350506040613edb878288016134b2565b925050606085013567ffffffffffffffff811115613efc57613efb613316565b5b613f0887828801613e63565b91505092959194509250565b60008060408385031215613f2b57613f2a613311565b5b6000613f39858286016134b2565b9250506020613f4a858286016134b2565b9150509250929050565b60008060408385031215613f6b57613f6a613311565b5b6000613f7985828601613567565b9250506020613f8a85828601613567565b9150509250929050565b600060e083016000830151613fac6000860182613708565b5060208301518482036020860152613fc48282613728565b91505060408301518482036040860152613fde8282613728565b91505060608301518482036060860152613ff88282613728565b915050608083015161400d6080860182613761565b5060a083015184820360a086015261402582826137bd565b91505060c083015161403a60c0860182613761565b508091505092915050565b6000602082019050818103600083015261405f8184613f94565b905092915050565b7f4e487b7100000000000000000000000000000000000000000000000000000000600052602260045260246000fd5b600060028204905060018216806140ae57607f821691505b6020821081036140c1576140c0614067565b5b50919050565b7f4552433732313a20617070726f76656420717565727920666f72206e6f6e657860008201527f697374656e7420746f6b656e0000000000000000000000000000000000000000602082015250565b6000614123602c836133e1565b915061412e826140c7565b604082019050919050565b6000602082019050818103600083015261415281614116565b9050919050565b7f4552433732313a20617070726f76616c20746f2063757272656e74206f776e6560008201527f7200000000000000000000000000000000000000000000000000000000000000602082015250565b60006141b56021836133e1565b91506141c082614159565b604082019050919050565b600060208201905081810360008301526141e4816141a8565b9050919050565b7f4552433732313a20617070726f76652063616c6c6572206973206e6f74206f7760008201527f6e6572206e6f7220617070726f76656420666f7220616c6c0000000000000000602082015250565b60006142476038836133e1565b9150614252826141eb565b604082019050919050565b600060208201905081810360008301526142768161423a565b9050919050565b7f4552433732313a207472616e736665722063616c6c6572206973206e6f74206f60008201527f776e6572206e6f7220617070726f766564000000000000000000000000000000602082015250565b60006142d96031836133e1565b91506142e48261427d565b604082019050919050565b60006020820190508181036000830152614308816142cc565b9050919050565b7f455243373231456e756d657261626c653a206f776e657220696e646578206f7560008201527f74206f6620626f756e6473000000000000000000000000000000000000000000602082015250565b600061436b602b836133e1565b91506143768261430f565b604082019050919050565b6000602082019050818103600083015261439a8161435e565b9050919050565b7f455243373231456e756d657261626c653a20676c6f62616c20696e646578206f60008201527f7574206f6620626f756e64730000000000000000000000000000000000000000602082015250565b60006143fd602c836133e1565b9150614408826143a1565b604082019050919050565b6000602082019050818103600083015261442c816143f0565b9050919050565b7f4e487b7100000000000000000000000000000000000000000000000000000000600052603260045260246000fd5b7f4552433732313a206f776e657220717565727920666f72206e6f6e657869737460008201527f656e7420746f6b656e0000000000000000000000000000000000000000000000602082015250565b60006144be6029836133e1565b91506144c982614462565b604082019050919050565b600060208201905081810360008301526144ed816144b1565b9050919050565b7f4552433732313a2062616c616e636520717565727920666f7220746865207a6560008201527f726f206164647265737300000000000000000000000000000000000000000000602082015250565b6000614550602a836133e1565b915061455b826144f4565b604082019050919050565b6000602082019050818103600083015261457f81614543565b9050919050565b7f4552433732313a20617070726f766520746f2063616c6c657200000000000000600082015250565b60006145bc6019836133e1565b91506145c782614586565b602082019050919050565b600060208201905081810360008301526145eb816145af565b9050919050565b7f4e487b7100000000000000000000000000000000000000000000000000000000600052601160045260246000fd5b600061462c82613491565b91507fffffffffffffffffffffffffffffffffffffffffffffffffffffffffffffffff820361465e5761465d6145f2565b5b600182019050919050565b7f546f6b656e20646f6573206e6f74206578697374000000000000000000000000600082015250565b600061469f6014836133e1565b91506146aa82614669565b602082019050919050565b600060208201905081810360008301526146ce81614692565b9050919050565b7f4e6f7420746f6b656e206f776e65720000000000000000000000000000000000600082015250565b600061470b600f836133e1565b9150614716826146d5565b602082019050919050565b6000602082019050818103600083015261473a816146fe565b9050919050565b7f496e76616c696420726563697069656e74206164647265737300000000000000600082015250565b60006147776019836133e1565b915061478282614741565b602082019050919050565b600060208201905081810360008301526147a68161476a565b9050919050565b7f4552433732314d657461646174613a2055524920717565727920666f72206e6f60008201527f6e6578697374656e7420746f6b656e0000000000000000000000000000000000602082015250565b6000614809602f836133e1565b9150614814826147ad565b604082019050919050565b60006020820190508181036000830152614838816147fc565b9050919050565b600081905092915050565b6000614855826133d6565b61485f818561483f565b935061486f8185602086016133f2565b80840191505092915050565b6000614887828561484a565b9150614893828461484a565b91508190509392505050565b7f5469636b657420646f6573206e6f742065786973740000000000000000000000600082015250565b60006148d56015836133e1565b91506148e08261489f565b602082019050919050565b60006020820190508181036000830152614904816148c8565b9050919050565b7f4552433732313a206f70657261746f7220717565727920666f72206e6f6e657860008201527f697374656e7420746f6b656e0000000000000000000000000000000000000000602082015250565b6000614967602c836133e1565b91506149728261490b565b604082019050919050565b600060208201905081810360008301526149968161495a565b9050919050565b7f4552433732313a207472616e73666572206f6620746f6b656e2074686174206960008201527f73206e6f74206f776e0000000000000000000000000000000000000000000000602082015250565b60006149f96029836133e1565b9150614a048261499d565b604082019050919050565b60006020820190508181036000830152614a28816149ec565b9050919050565b7f4552433732313a207472616e7366657220746f20746865207a65726f2061646460008201527f7265737300000000000000000000000000000000000000000000000000000000602082015250565b6000614a8b6024836133e1565b9150614a9682614a2f565b604082019050919050565b60006020820190508181036000830152614aba81614a7e565b9050919050565b6000614acc82613491565b9150614ad783613491565b925082821015614aea57614ae96145f2565b5b828203905092915050565b6000614b0082613491565b9150614b0b83613491565b9250827fffffffffffffffffffffffffffffffffffffffffffffffffffffffffffffffff03821115614b4057614b3f6145f2565b5b828201905092915050565b7f4552433732313a206d696e7420746f20746865207a65726f2061646472657373600082015250565b6000614b816020836133e1565b9150614b8c82614b4b565b602082019050919050565b60006020820190508181036000830152614bb081614b74565b9050919050565b7f4552433732313a20746f6b656e20616c7265616479206d696e74656400000000600082015250565b6000614bed601c836133e1565b9150614bf882614bb7565b602082019050919050565b60006020820190508181036000830152614c1c81614be0565b9050919050565b7f4552433732313a207472616e7366657220746f206e6f6e20455243373231526560008201527f63656976657220696d706c656d656e7465720000000000000000000000000000602082015250565b6000614c7f6032836133e1565b9150614c8a82614c23565b604082019050919050565b60006020820190508181036000830152614cae81614c72565b9050919050565b7f4e487b7100000000000000000000000000000000000000000000000000000000600052601260045260246000fd5b6000614cef82613491565b9150614cfa83613491565b925082614d0a57614d09614cb5565b5b828204905092915050565b6000614d2082613491565b9150614d2b83613491565b925082614d3b57614d3a614cb5565b5b828206905092915050565b600081519050919050565b600082825260208201905092915050565b6000614d6d82614d46565b614d778185614d51565b9350614d878185602086016133f2565b614d9081613425565b840191505092915050565b6000608082019050614db06000830187613526565b614dbd6020830186613526565b614dca60408301856135bc565b8181036060830152614ddc8184614d62565b905095945050505050565b600081519050614df681613347565b92915050565b600060208284031215614e1257614e11613311565b5b6000614e2084828501614de7565b91505092915050565b7f4e487b7100000000000000000000000000000000000000000000000000000000600052603160045260246000fdfea264697066735822122078b7ee45491f426bfad4afa4d003cae52789ebaca4fb640ccd9a6c1b6d7e5e2c64736f6c634300080d0033",
  "immutableReferences": {},
  "source": "// SPDX-License-Identifier: MIT\r\n//   MIT    .\r\n\r\npragma solidity 0.8.13;\r\n\r\nimport \"@openzeppelin/contracts/token/ERC721/extensions/ERC721Enumerable.sol\";\r\n\r\ncontract TicketNFT is ERC721Enumerable {\r\n    //      Purchase  \r\n    struct Purchase {\r\n        address buyer; //  \r\n        string concert; //  \r\n        string concertDate; //  \r\n        string concertTime; //  \r\n        uint256 purchaseTime; //  \r\n        string[] selectedSeats; //   \r\n        uint256 paymentAmount; //   \r\n    }\r\n\r\n    //  ID      \r\n    Purchase[] public purchases;\r\n\r\n    // ERC721Enumerable   TicketNFT  \r\n    constructor(\r\n        string memory name, //  \r\n        string memory symbol //  \r\n    ) ERC721(name, symbol) {} // ERC721Enumerable  \r\n\r\n    //   \r\n    function mint(\r\n        address _to, //    \r\n        string memory _concert, //  \r\n        string memory _concertDate, //  \r\n        string memory _concertTime, //  \r\n        string[] memory _selectedSeats, //   \r\n        uint256 _paymentAmount //  \r\n    ) external returns (uint256) {\r\n        //  ID  \r\n        uint256 tokenId = purchases.length; //    ID\r\n        _mint(_to, tokenId); // ERC721 mint    \r\n        //      \r\n        Purchase memory newPurchase = Purchase({\r\n            buyer: _to,\r\n            concert: _concert,\r\n            concertDate: _concertDate,\r\n            concertTime: _concertTime,\r\n            purchaseTime: block.timestamp,\r\n            selectedSeats: _selectedSeats,\r\n            paymentAmount: _paymentAmount\r\n        });\r\n        purchases.push(newPurchase);\r\n        tradeHistories[tokenId].push(newPurchase);\r\n        return tokenId; //  ID \r\n    }\r\n\r\n    function getTicketInfo(\r\n        uint256 _tokenId\r\n    ) external view returns (Purchase memory) {\r\n        require(_tokenId < purchases.length, \"Ticket does not exist\");\r\n        return purchases[_tokenId];\r\n    }\r\n\r\n    function getOwnedTicketIds(\r\n        address _owner\r\n    ) external view returns (uint256[] memory) {\r\n        uint256 balance = balanceOf(_owner);\r\n        uint256[] memory tokenIds = new uint256[](balance);\r\n        for (uint256 i = 0; i < balance; i++) {\r\n            tokenIds[i] = tokenOfOwnerByIndex(_owner, i);\r\n        }\r\n        return tokenIds;\r\n    }\r\n\r\n    //   ID     \r\n    mapping(uint256 => Purchase[]) public tradeHistories;\r\n\r\n    // NFT  \r\n    function transfer(address _to, uint256 _tokenId) external {\r\n        require(_exists(_tokenId), \"Token does not exist\");\r\n        address owner = ownerOf(_tokenId);\r\n        require(msg.sender == owner, \"Not token owner\");\r\n        require(_to != address(0), \"Invalid recipient address\");\r\n\r\n        // NFT \r\n        _transfer(owner, _to, _tokenId);\r\n\r\n        //   \r\n        Purchase memory trade = Purchase({\r\n            buyer: _to,\r\n            concert: purchases[_tokenId].concert,\r\n            concertDate: purchases[_tokenId].concertDate,\r\n            concertTime: purchases[_tokenId].concertTime,\r\n            purchaseTime: block.timestamp,\r\n            selectedSeats: purchases[_tokenId].selectedSeats,\r\n            paymentAmount: purchases[_tokenId].paymentAmount\r\n        });\r\n        tradeHistories[_tokenId].push(trade);\r\n    }\r\n\r\n    //   ID   \r\n    function getTradeHistory(\r\n        uint256 _tokenId\r\n    ) external view returns (Purchase[] memory) {\r\n        return tradeHistories[_tokenId];\r\n    }\r\n}\r\n",
  "sourcePath": "C:\\Users\\jungi\\Desktop\\jsh\\jsh\\backup\\project\\test\\movie\\client\\src\\contracts\\TicketNFT.sol",
  "compiler": {
    "name": "solc",
    "version": "0.8.13+commit.abaa5c0e.Emscripten.clang"
  },
  "schemaVersion": "3.4.16",
  "updatedAt": "2024-09-13T00:43:25.151Z",
  "networkType": "ethereum",
  "devdoc": {
    "kind": "dev",
    "methods": {
      "approve(address,uint256)": {
        "details": "See {IERC721-approve}."
      },
      "balanceOf(address)": {
        "details": "See {IERC721-balanceOf}."
      },
      "getApproved(uint256)": {
        "details": "See {IERC721-getApproved}."
      },
      "isApprovedForAll(address,address)": {
        "details": "See {IERC721-isApprovedForAll}."
      },
      "name()": {
        "details": "See {IERC721Metadata-name}."
      },
      "ownerOf(uint256)": {
        "details": "See {IERC721-ownerOf}."
      },
      "safeTransferFrom(address,address,uint256)": {
        "details": "See {IERC721-safeTransferFrom}."
      },
      "safeTransferFrom(address,address,uint256,bytes)": {
        "details": "See {IERC721-safeTransferFrom}."
      },
      "setApprovalForAll(address,bool)": {
        "details": "See {IERC721-setApprovalForAll}."
      },
      "supportsInterface(bytes4)": {
        "details": "See {IERC165-supportsInterface}."
      },
      "symbol()": {
        "details": "See {IERC721Metadata-symbol}."
      },
      "tokenByIndex(uint256)": {
        "details": "See {IERC721Enumerable-tokenByIndex}."
      },
      "tokenOfOwnerByIndex(address,uint256)": {
        "details": "See {IERC721Enumerable-tokenOfOwnerByIndex}."
      },
      "tokenURI(uint256)": {
        "details": "See {IERC721Metadata-tokenURI}."
      },
      "totalSupply()": {
        "details": "See {IERC721Enumerable-totalSupply}."
      },
      "transferFrom(address,address,uint256)": {
        "details": "See {IERC721-transferFrom}."
      }
    },
    "version": 1
  },
  "userdoc": {
    "kind": "user",
    "methods": {},
    "version": 1
  }
}